:03000000020006F5
:0E005F00750830750900E4F51EF51F02000358
:03000300020CB13B
:20006D0012139E7E008E831212BD021280C02085812012139EAF82E52024FCF886820886FF
:20008D0083C00712139EAE82D0077D008F047F00EE4207ED42048F828C831212BD121280A1
:2000AD00D02022E4C0E090000012136F158174C3C0E090001612136F15817407C0E0900091
:2000CD001712136F158174D0C0E090001812136F15817405C0E090001912136F1581747E3E
:2000ED00C0E090000112136F1581740AC0E090000212136F158174DCC0E090000312136FA7
:20010D00158174FEC0E090000412136F158174FFC0E090000512136F158174FFC0E09000F7
:20012D000612136F158174C0C0E090000712136F1581E4C0E090000812136F1581E4C0E023
:20014D0090000912136F15817408C0E090000A12136F158174DCC0E090000B12136F15813A
:20016D007424C0E090000C12136F1581744BC0E090000D12136F1581745EC0E090000E122C
:20018D00136F1581747EC0E090000F12136F1581740AC0E090001012136F158174D2C0E011
:2001AD0090001112136F1581740AC0E090001212136F15817402C0E090040012136F1581A9
:2001CD00740AC0E090001A12136F1581740AC0E090001B12136F15817413C0E0900404125C
:2001ED00136F15817488C0E090040512136F1581227401C0E090040112136F1581900403EE
:20020D0012139EAF82BF2202800E7410C0E090040112136F158180D9901AB875F0800212D5
:20022D0092C02085812005810581AF82900420C00712139E90042112139E90040C12136FF2
:20024D001581E52024FDF8E6C0E090040D12136F1581E52024FCF8E6C0E090040E12136FB3
:20026D001581E52024FBF8E6C0E090040F12136F1581E52024F9F8088607C0079004101240
:20028D00136F1581E52024F9F88607C00790041112136F158190042412139EAE827F009042
:2002AD000425C007C00612139EAD82D006D0077C00ED4207EC42068F048E0553050F8C02DB
:2002CD008D0374402BFBA82008A60208A603E52024F7F8E62CFA08E63DFBC3E49A74109BD4
:2002ED004003020384C007C006901AD675F080C007C006C005C004121292D004D005E4C317
:20030D009CFC74109DFDC005C004E52024F4F8E6C0E008E6C0E008E6C0E0C004C005A82089
:20032D0008868208868312165BE58124FBF581D004D005D006D007E52024F7F8E6C39CFA64
:20034D0008E69DFBE52024F4F8EC26FCED0836FD088607C007C006C004C005C007C002C0CB
:20036D000390400012165BE58124FBF581D006D007D006D0078035C007C006E52024F4F86E
:20038D00E6C0E008E6C0E008E6C0E0E52024F7F8E6C0E008E6C0E0A8200886820886831287
:2003AD00165BE58124FBF581D006D007E52024F7F8E62FFF08E63EFEFDC007C006C00590E2
:2003CD00042412136F1581D00690042512136F15817420C0E090040112136F158190000082
:2003ED0012139EE582600B901AE475F080121292801490040212139EE58230E309901AF424
:20040D0075F080121292852081D02022C020E581F5202427F581901B0475F080121292E5B1
:20042D0020241BF97700E904F87600740229FFC000A8077600E520240BF8740329F6E5203B
:20044D00240BF886007600E5202408F8740429F6E5202408F886007600E5202407F87405E6
:20046D0029F6E5202407F886007600A8200808740629F6A820080886007600A8200874079C
:20048D0029F6A8200886007600D000900426C007C001C00012139EAE82D000D00190042743
:2004AD00C006C001C00012139EAD82D000D001D006D007C000E5202403F8A6050876008E0D
:2004CD00028A057E00E5202403F88602088603EE4202ED4203E5202419F8A60208A603D0FC
:2004ED0000900428C007C001C00012139EAB82D000D0018B027B008B068A05900429C006AF
:20050D00C005C001C00012139EAB82D000D001D005D006D0077A00EE4203ED42028B047494
:20052D000F5AFDC000E5202403F8A60408A605E5202403F8C001E5202405F9E6F708E60927
:20054D00F7D001E5202405F8860474600826FDE5202409F8A60408A605E5202405F87408EE
:20056D0026FCE40836FDD000C3E49C74109D400302064EC003C002901B1A75F080C007C0AA
:20058D0003C002C001C000121292D000D001D002D003D007C000E5202403F8E4C396FC74A4
:2005AD00100896FDD00089038B027B007E40C007C005C004C003C002C001C000C002C00386
:2005CD00C006C004C005C000E5202409F88682088683D0001215C1E58124FBF581D000D069
:2005ED0001D002D003D004D005D0077408C39CFBE49DFE1CBCFF011DEC29FC7D007A40C076
:20060D0007C006C003C002C001C000C004C005C002C003C0069060001215C1E58124FBF5D4
:20062D0081D000D001D002D003D006D007C000E520240FF8A60308A606D000D002D00380F7
:20064D005989067D007C40C007C003C002C001C000C006C005C0047408C0E0E4C0E0C000F0
:20066D00E5202409F88682088683D0001215C1E58124FBF581D000D001D002D003D007C09A
:20068D0000E5202405F8740826FDE40836FEE520240FF8A60508A606D000C003C002C000C4
:2006AD00E520240FF8860508860674602EFEE5202411F8A60508A606E5202408F886008618
:2006CD00048C038B047B00E5202407F8860086027E00E5202415F8EA4BF6EE4C08F6A8205B
:2006ED000808860086068E057E00A82008860086047B00E5202417F8EC4EF6EB4D08F6D0F1
:20070D0000901B3E75F080C007C003C002C001C000121292D000D001D002D003D007C0009E
:20072D00E5202426F8E4F608F6D000D002D003C000E5202426F8C3E6940408E664809480EA
:20074D00D000506CC000E5202426F8E629F88606D0007D008E828D83C007C003C002C001EC
:20076D00C0001212BDD000D001D002D003D007C000E5202426F8C3E6940308E66480948081
:20078D00D000501A75822EC007C003C002C001C000121277D000D001D002D003D007C000A8
:2007AD00E5202426F806B600020806D00002073CC003C002901B4A75F080C007C003C00259
:2007CD00C001C000121292D000D001D002D003D007C000E5202415F88682088683D000C019
:2007ED0007C003C002C001C0001212BD901B5975F080121292D000D001D002D003D007C082
:20080D0000E5202419F88682088683D000C007C003C002C001C0001212BD121280D000D0B6
:20082D0001D002D003D007C000E5202417F8C001E5202409F9E6F708E609F7D001E5202485
:20084D0009F88682088683D000C007C002C001C0001218B0AB82AC83D000D001D002D00717
:20086D00C000E5202423F8A60308A604087600E520240FF8C001E5202419F9E726FB09E76A
:20088D000836FCD001D000C3E49B74109CD002D003400302098C901B6475F080C007C00311
:2008AD00C002C001C000121292D000D001D002D003D007C000E520240FF8E4C396FC741068
:2008CD000896FED000C007C006C004C003C002C001C0008500F0E5202423F8E6C0E008E61B
:2008ED00C0E008E6C0E0A8F0C004C006C000E5202411F88682088683D0001215C1E581244E
:20090D00FBF581D000D001D002D003D004D006D007C000E5202417F8C001E5202413F9E6BE
:20092D00C39CF708E69E09F7D001E5202423F8EC26FCEE0836FE088605D000C007C003C0CE
:20094D0002C001C000C004C006C0058500F0E5202413F8E6C0E008E6C0E0A8F0C000E5209E
:20096D002411F88682088683D0001215C1E58124FBF581D000D001D002D003D0078051C0C3
:20098D0007C003C002C001C0008500F0E5202423F8E6C0E008E6C0E008E6C0E0A8F08500C5
:2009AD00F0E5202417F8E6C0E008E6C0E0A8F0C000E5202411F88682088683D0001215C193
:2009CD00E58124FBF581D000D001D002D003D007901B8675F080C007C003C002C001C0000F
:2009ED00121292D000D001D002D003D007C000E5202423F886820886830886F0121A53FC01
:200A0D00D000ECB508028003020B707C007E00C003C0028C038E05C000E5202417F8C3EB07
:200A2D0096ED0896D000D002D0034003020B10C000E5202423F8C001E520240CF9EC26F7B7
:200A4D00EE083609F708E609F7D001E520240CF886820886830886F0121A53FDD000BD6170
:200A6D00004052ED2485404DED24E0FDC000E520240CF886820886830886F0ED121859E5ED
:200A8D0020240CF886820886830886F0121A53FDD0008D82C007C006C004C003C002C00178
:200AAD00C000121277D000D001D002D003D004D006D0078046C003C002C000E5202423F8B8
:200ACD00EC26FAEE0836FB088605D0008A828B838DF0121A53FAF582C007C006C004C003D8
:200AED00C002C001C000121277D000D001D002D003D004D006D007D002D0030CBC00010EC8
:200B0D00020A1CC003C002C000E520240BF886008606A8078605D00086048703C003C0027A
:200B2D00E5202423F8E6C0E008E6C0E008E6C0E0E5202417F8E6C0E008E6C0E0E520241538
:200B4D00F8E6C0E008E6C0E0C006C005C0048B8212022EE58124F6F581D002D003D002D0A1
:200B6D0003806A901B9275F080C007C003C002C001C000121292D000D001D002D003D007B9
:200B8D00C000E520240BF886008606A8078607D00086058704C003C0027492C0E0741BC0AE
:200BAD00E07480C0E0741DC0E0E4C0E0E5202415F8E6C0E008E6C0E0C006C007C0058C8255
:200BCD0012022EE58124F6F581D002D003C003C002121280901BB075F080121292D002D06A
:200BED0003E5202409F8740826FEE40836FFEE2BFBEF3AFAFFC003C002C007900428121397
:200C0D006F1581D00290042912136F15817440C0E090040112136F158174FFC0E09004024D
:200C2D0012136F1581E5202423F886050886060886078D828E838FF012170E852081D02099
:200C4D002290040212139EE58230E20302041922759850758920758DFDD29CD2AFD2ACD296
:200C6D008EC2982222901BC675F080121292901BFD75F080121292901C2F75F08012129276
:200C8D00901C6375F080121292901C9975F080121292901CCC75F080121292901BC675F0D4
:200CAD00800212929003E8120D57120C5DC2A11200B01201FE120C4E12131FAF82BF2E0091
:200CCD004029EF24854024E51E9415E51F648094805018E51E2409F8A607051EE4B51E02E1
:200CED00051F8F82C007121277D007BF082CE51E451F6026E51E2409F87600151E74FFB5A0
:200D0D001E02151F758208C007121277758220121277758208121277D007BF0A98E51E4545
:200D2D001F6092901D0475F0801212927401B51E0614B51F028003020CC2743FB5090280CB
:0A0D4D0003020CC2120C72020CC269
:201AB80055445020536F636B6574203020706F72742035303030206F70656E0D0A00092070
:201AD8006F766572666C6F77200D0A0053656E6420636F6D706C6574650D0A000D0A53655A
:201AF8006E64206661696C65640D0A00554450205061636B65742052656365697665640DAB
:201B18000A000D0A55445020525820486561646572204F766572666C6F77204465746563F7
:201B38007465640D0A0053656E6465722049503A20000953656E64657220506F72743A203C
:201B5800000952582053697A653A20000D0A5544502052582044415441204F766572666C13
:201B78006F772044657465637465640D0A000D524553504F4E53453A2000496E636F7272CB
:201B980065637420666F726D6174206F722077726F6E6720525455000D2D2D2D2D2D2D2D97
:201BB8002D2D2D2D2D2D2D2D2D2D2D0D0A002A2A2A2A2A2A2A2A2A2A2A2A2A2A2A2A2A2A13
:201BD8002A2A2A2A2A2A2A2A2A2A2A2A2A2A2A2A2A2A2A2A2A2A2A2A2A2A2A2A2A2A2A2AAD
:201BF8002A2A0D0A005365742F4368616E67652052545520416464726573732028302D39E2
:201C1800293A205553494E47205254553D3C2320302D393E0D0A005365742F4368616E67A5
:201C38006520495020416464726573733A205553494E472049503D3C2323232E2323232E48
:201C58002323232E2323233E0D0A005365742F4368616E6765205375626E6574204D6173A4
:201C78006B3A205553494E47205355423D3C2323232E2323232E2323232E2323233E0D0AFB
:201C9800005365742F4368616E676520476174657761793A205553494E4720474154453D3B
:201CB8003C2323232E2323232E2323232E2323233E0D0A005365742F4368616E6765204D3F
:201CD800414320416464726573733A205553494E47204D41433D3C30463A30463A30463A28
:0F1CF80030463A30463A30463E0D0A000D0A009B
:200D5700AE82AF83EE4F60071EBEFF011F80F522758CFF758AF6D28C308DFDC28CC28D2218
:200D7700C020E581F5202408F581AE82AF83A82008A60608A607A82008C3E6941008E6942D
:200D9700275003020F40E52024FBF88603088606088607C007C006C0037410C0E07427C0D4
:200DB700E0A8200886820886831216DDAC8215811581D003D006D00774302C8B828E838FF7
:200DD700F0121859E5202406F874012BF6E43E08F608A607C007C006C00374E8C0E0740334
:200DF700C0E0A8200886820886831216DD15811581740AC0E0E4C0E0121A6FAA821581150E
:200E170081D003D006D00774302AFAE5202406F886820886830886F0EA121859E520240698
:200E3700F874022BF6E43E08F608A607C007C006C0037464C0E0E4C0E0A820088682088685
:200E5700831216DD15811581740AC0E0E4C0E0121A6FAA8215811581D003D006D00774300E
:200E77002AFAE5202406F886820886830886F0EA121859E5202406F874032BF6E43E08F62D
:200E970008A607C007C006C003740AC0E0E4C0E0A8200886820886831216DD158115817406
:200EB7000AC0E0E4C0E0121A6FAA8215811581D003D006D00774302AFAE5202406F8868283
:200ED7000886830886F0EA121859E5202406F874042BF6E43E08F608A607C007C006C0031A
:200EF700740AC0E0E4C0E0A820088682088683121A6FAA8215811581D003D006D007743039
:200F17002AFAE5202406F886820886830886F0EA12185974052BFBE43EFC8F058B828C83FE
:200F37008DF0E4121859021271A82008C3E694E808E69403500302109BE52024FBF886070E
:200F5700088604088606C007C006C00474E8C0E07403C0E0A8200886820886831216DDAA58
:200F77008215811581D004D006D00774302A8F828C838EF0121859E5202403F874012FF67E
:200F9700E43C08F608A606C007C006C0047464C0E0E4C0E0A8200886820886831216DD1518
:200FB700811581740AC0E0E4C0E0121A6FAA8215811581D004D006D00774302AFAE52024FC
:200FD70003F886820886830886F0EA121859E5202403F874022FF6E43C08F608A606C007A3
:200FF700C006C004740AC0E0E4C0E0A8200886820886831216DD15811581740AC0E0E4C0D2
:20101700E0121A6FAA8215811581D004D006D00774302AFAE5202403F886820886830886D2
:20103700F0EA121859E5202403F874032FF6E43C08F608A606C007C006C004740AC0E0E457
:20105700C0E0A820088682088683121A6FAA8215811581D004D006D00774302AFAE520248B
:2010770003F886820886830886F0EA12185974042FFBE43CFC8E058B828C838DF0E4121862
:2010970059021271A82008C3E6946408E69400500302119EE52024FBF8860708860408869B
:2010B70006C007C006C0047464C0E0E4C0E0A8200886820886831216DDAA8215811581D0B0
:2010D70004D006D00774302A8F828C838EF0121859E5202403F874012FF6E43C08F608A6CF
:2010F70006C007C006C004740AC0E0E4C0E0A8200886820886831216DD15811581740AC088
:20111700E0E4C0E0121A6FAA8215811581D004D006D00774302AFAE5202403F8868208865E
:20113700830886F0EA121859E5202403F874022FF6E43C08F608A606C007C006C004740ACA
:20115700C0E0E4C0E0A820088682088683121A6FAA8215811581D004D006D00774302AFA2F
:20117700E5202403F886820886830886F0EA12185974032FFBE43CFC8E058B828C838DF047
:20119700E4121859021271A82008C3E6940A08E694005003021249E52024FBF886070886CC
:2011B70004088606C007C006C004740AC0E0E4C0E0A8200886820886831216DDAA821581DD
:2011D7001581D004D006D00774302A8F828C838EF0121859E5202403F874012FF6E43C080C
:2011F700F608A606C007C006C004740AC0E0E4C0E0A820088682088683121A6FAA821581F5
:201217001581D004D006D00774302AFAE5202403F886820886830886F0EA12185974022F0B
:20123700FBE43CFC8E058B828C838DF0E41218598028E52024FBF886030886040886057407
:20125700302E8B828C838DF01218590BBB00010C8B828C838DF0E4121859852081D02022F2
:2012770085829910990280FB2275990A10990280FB2275990910990280FB22AD82AE83AFA1
:20129700F08D828E838FF0121A53FC60180DBD00010E8C82C007C006C005121277D005D03C
:2012B70006D00780DC22C020E581F5202406F581AE82AF83A920097700E904F87600740245
:2012D70029F87600740329F87600740429F87600740529F8760089057C007B40C001C005E8
:2012F700C004C0038E828F83120D77158115811581D00189077E007D408F828E838DF01289
:151317001292852081D0202210980280048599822275820022DC
:20132C00AE82AF837D00BD10005017EF30E704D2A38002C2A3D2A1EE2EFEEF33FFC2A10D0A
:20134C0080E422AF827E00BE08005016EF30E704D2A38002C2A3D2A18F05ED2DFFC2A10E29
:20136C0080E522C020858120AE82AF83C2A07582F0C007C00612134FD006D0078E828F8359
:20138C0012132CE52024FDF8868212134FD2A0D02022AE82AF83C2A07D0075820FC007C004
:2013AC0006C00512134FD005D006D0078E828F83C00512132CD0057F00BF08005012D2A138
:2013CC008D06EE2EFEA2A2E4334EFDC2A10F80E9D2A08D8222C020E581F5202408F581A98A
:2013EC002009777AE904F8762E740229F8767A740329C000F8762E740429FFA807767A7408
:20140C000529F8762E740629FEA806767A740729F87600D00090000FC007C006C001C00028
:20142C0012139EE582D000D001F7900010C00012139EE582D000F690001112139EE582D0F3
:20144C0006D007A807F6900012C00612139EE582D006A806F6852081D02022C020E581F57F
:20146C00202408F581A92009777AE904F8762E740229F8767A740329C000F8762E7404292E
:20148C00FFA807767A740529F8762E740629FEA806767A740729F87600D000900005C007E7
:2014AC00C006C001C00012139EE582D000D001F7900006C00012139EE582D000F69000073A
:2014CC0012139EE582D006D007A807F6900008C00612139EE582D006A806F6852081D0206C
:2014EC0022C020E581F520240CF581A92009777AE904F8762E740229F8767A740329C0008A
:20150C00F8762E740429FFA807767A740529F8762E740629FEA806767A740729F8762E74B3
:20152C000829FDA805767A740929F8762E740A29FCA804767A740B29F87600D000900009D4
:20154C00C007C006C005C004C001C00012139EE582D000D001F790000AC00012139EE582A2
:20156C00D000F690000B12139EE582D004D005D006D007A807F690000CC006C005C00412DC
:20158C00139EE582D004D005D006A806F690000DC005C00412139EE582D004D005A805F668
:2015AC0090000EC00412139EE582D004A804F6852081D02022C020858120C082C083E581F4
:2015CC002404F581E5202405F8E4F608F6E5202405F88602088603E52024FCF8C3EA96EBD9
:2015EC0008965065E52024F9F8E5202405F9E726FA09E70836FB088607A82008E52024038A
:20160C00F9E6F708E609F7E5202405F88604088606E5202403F8EC26FCEE0836FE8C828EBE
:20162C0083C007C003C00212139EAE82D002D003D0078A828B838FF0EE121859E520240528
:20164C00F806B6000208068084852081D02022C020858120C082C08305810581E5202403BB
:20166C00F8E4F608F6E5202403F88602088603E52024FCF8C3EA96EB0896504FE52024F9A7
:20168C00F8E5202403F9E726FA09E70836FB0886078A828B838FF0121A53FAA820088606EE
:2016AC00088607E5202403F88603088605EB2EFEED3FFFC0028E828F8312136F1581E520F4
:1116CC002403F806B600020806809A852081D02022D0
:2016DD00E58124FEF8E6F918E6F87A10E4FBFCE58225E0F582E58333F583EB33FBEC33FC09
:1116FD00EB98F5F0EC994006FCABF0438201DADF2271
:20170E00C020858120C082C083C0F0E5812404F581A82008E608467003021853E520240669
:20172E00F8E4F608F6900001E0FAA3E0FF7D017E00EA4F6037C005C006A82008860508869E
:20174E0006C3EA9DEF9ED006D0055020E5202406F8A60208A60774022AFBE43FFC8B058C29
:20176E00068B828C83E0FAA3E0FF80C5A820088603088604EB24FEFBEC34FFFCE52024045D
:20178E00F874022BF6E43C08F6E5202404F88682088683EAF0EFA3F08D828E83EBF0ECA36A
:2017AE00F08B828C83E0FDA3E0FEEAB50539EFB506358D828E83A3A3E0FEA3E0FFE5202406
:2017CE0004F88682088683EEF0EFA3F08B828C83E0FEA3E0FF8E828F83E0FEA3E0FF8B827B
:2017EE008C83EEF0EFA3F0E5202406F8E608466054E5202406F88682088683E0FEA3E0FFBD
:20180E00EEB50341EFB5043D8B828C83E0FBA3E0FCE5202406F88682088683EBF0ECA3F0DE
:20182E00E5202406F8740226FEE40836FFE5202404F88682088683E0FCA3E0FD8E828F83FC
:0B184E00ECF0EDA3F0852081D02022FB
:06003500E478FFF6D8FD9F
:200013007900E94400601B7A00901D09780375A004E493F2A308B8000205A0D9F4DAF27567
:02003300A0FF2C
:1B18590020F71130F6138883A88220F509F6A8837583002280FEF280F5F0228E
:201874009000017403F07400A3F0901D07E493FE740193FF1EBEFF011FEE2403FEEF3400F4
:20189400FF900003EEF0EFA3F0900001E0FEA3E0FF8E828F83A3A3E4F0A3F022C020E5811A
:2018B400F5202408F581AE82AF83900001E0F5F0A3E045F0700BC007C006121874D006D0A1
:2018D40007EE4F600E74022EFCE43FFDC3EC9EED9F5006900000021A4D74022EFDE43FFC9A
:2018F400C3ED9404EC940050047D047C00900001E5202405F8E0F6A3E008F67A017B00E5D2
:20191400202405F8E608467003021A4AC002C003E5202405F88682088683A92009E0F7A355
:20193400E009F7A820088602088603E5202405F8E5202403F9E6F708E609F7E5202403F890
:20195400EAC396FAEB0896FB8A078B06C3EF9DEE9CD003D0025003021A27C002C00374047F
:201974002DFAE43CFBC3EF9AEE9BD003D0024076E5202403F8ED26FEEC0836FFE520240753
:20199400F8A60608A607E5202407F88682088683A92009E7F009E7A3F0E5202407F87402CF
:2019B40026FEE40836FFE5202405F88682088683A3A3E0FCA3E0FD8E828F83ECF0EDA3F06F
:2019D4008A828B83E5202407F8E6F008E6A3F0E5202405F88682088683E5202407F9E7F01B
:2019F40009E7A3F0801AE5202405F88682088683A3A3E0FEA3E0FF8A828B83EEF0EFA3F057
:201A1400E5202405F8740226FEE40836FF8E828F838026E5202405F8740226FEE40836FF28
:1F1A34008E028F038E828F83E5202405F8E0F6A3E008F6021913900000852081D02022DC
:20003B007800E84400600A790175A000E4F309D8FC7802E84404600C7905900001E4F0A3B8
:04005B00D8FCD9FAFA
:021D07000004D6
:0D000600758120121AB4E582600302000328
:1C1A530020F71430F6148883A88220F507E6A88375830022E280F7E49322E022A2
:201A6F00E58124FEF88601188600E84960367A01E825E0F8E933400EF9E58298E5839940E8
:201A8F00030A80ECC3E913F9E813F8C3E58298F5F0E583994005F58385F082C3E913F9E817
:051AAF0013F8DAE72244
:041AB4007582002215
:00000001FF
