:03000000020006F5
:1C005F00752130752200752300753900753A00754200E4F543F544F545020003E8
:03000300021035B3
:20007B00901D8E75F080121334901DA375F080121334E54260117401B542067EBB7F1D80FF
:20009B000A7EBF7F1D80047EC47F1D7D808E828F838DF0121334901DC875F08012133490C8
:2000BB001DCB75F08012133490002175F040121334901DE275F08012133490000F12153489
:2000DB007E008E8312142112133475822E12132B9000101215347E008E8312142112133437
:2000FB0075822E12132B9000111215347E008E8312142112133475822E12132B900012121C
:20011B0015347E008E83121421121334901DFA75F0801213349000051215347E008E8312D6
:20013B00142112133475822E12132B9000061215347E008E8312142112133475822E121337
:20015B002B9000071215347E008E8312142112133475822E12132B9000081215347E008EC4
:20017B0083121421121334901E1375F0801213349000011215347E008E8312142112133427
:20019B0075822E12132B9000021215347E008E8312142112133475822E12132B9000031299
:2001BB0015347E008E8312142112133475822E12132B9000041215347E008E831214211260
:2001DB001334901E2D75F0801213349000091215341213D490000A1215341213D490000B2E
:2001FB001215341213D490000C1215341213D490000D1215341213D490000E121534121391
:20021B00D4901E4675F080021334C011858111C082C08305810581E5112403F8E4F608F667
:20023B00E51124FDF886027B00E5112403F8C3E69A08E664808BF063F08095F0503BE51113
:20025B002403F8E6243AF98703A811088602088607E5112403F88605088606ED2AFAEE3F4D
:20027B00FF8A828F83C0031215051581E5112403F806B60002080680A7851181D01122C0DF
:20029B0011858111C082C083C0F07C00E51124FDF8C3EC96502BEC2423F98703A81108EC38
:2002BB0026FAE40836FE0886078A828E838FF0121C9DFAEBB50202800575820080060C80BB
:2002DB00CB758201851181D01122C011E581F5112404F5817410B539028006758200020454
:2002FB0066A911097700E904F87600740229C000F87600D0007F007E05BE10004003020432
:20031B0063EE2423FDC000A8058604D0007B008C828B83C007C006C005C001C000121C18B6
:20033B00E5828583F0D000D001D005D006D00745F070030204558E04EC142423FBC000A8E1
:20035B00038603D0007A008B828A83C007C006C005C004C001C000121C18E5828583F0D086
:20037B0000D001D004D005D006D00745F07003020455EC142423FCC000A8048604A704A8AC
:20039B00058605D000A6057C007D00C3EC9402ED64809480506AC000E5112404F8EFC4547D
:2003BB00F0F6EC29F88602D000BA3000401DEA24C64018C000EA24D0FAC000E5112404F8F6
:2003DB008603D000EA2BFFD000802EEC29FBC000A8038603D000BB41004019EB24B94014D2
:2003FB0074C92BFBC000E5112404F88602D000EB2AFF800575820080520CBC008E0D808B81
:20041B008E047D00EC24FCF582ED34FFF583C007C006C001C0007402C0E0E4C0E0121CFEC3
:20043B00AC8215811581D000D001D006D007EC243AC000F8A607D0008005758200800C8EE4
:20045B000574022DFE020314758201851181D01122C011858111058105810581AF827E0087
:20047B007D00C3ED9539500DED2423F98704BC2E010E0D80EDBE0302800675820002056B2C
:20049B00EF2423F98707BF2E0675820002056B89077E007D40744AC0E0741EC0E07480C019
:2004BB00E08F828E838DF012180FAD82AE83AFF01581158115818D028E038F04ED4E700545
:2004DB00F58202056B7F008A828B838CF0C007121914AD82AE83D0078D048E03EC4B601BF2
:2004FB00C0078C068B07C374FF9EE49FD007400BEF243AF98C05A7050F8012EC4B7009EFBA
:20051B00243AF876000F80057582008043C007744AC0E0741EC0E07480C0E090000075F0C6
:20053B000012180FA81108A68208A68308A6F0158115811581D007A8110886020886030834
:20055B008604A81108E6084660030204E2758201851181D01122E4C0E0900000121505154F
:20057B00817403C0E090001612150515817407C0E0900017121505158174D0C0E090001850
:20059B0012150515817405C0E09000191215051581753A7E753B0A753CC8753DFE7404C0B2
:2005BB00E09000011202251581753AFF753BFF753CC0753D007404C0E09000051202251565
:2005DB0081753A00753B08753CDC753D24753E4B753F5E7406C0E0900009120225158175AE
:2005FB003A7E753B0A753CD2753D0A7404C0E090000F12022515817402C0E09004001215D8
:20061B000515817421C0E0900500121505158174AAC0E090001A121505158174AAC0E09020
:20063B00001B12150515817413C0E090040412150515817488C0E0900405121505158174D6
:20065B0017C0E090050412150515817470C0E09005051215051581227401C0E090040112AF
:20067B0015051581900403121534AF82BF2201227410C0E0900401121505158180DAC011E2
:20069B00E581F5112404F581AE82AF83C2A5900420C007C006121534900421121534C03AC6
:2006BB0090040C1215051581C03B90040D1215051581C03C90040E1215051581C03D90046E
:2006DB000F1215051581C03E9004101215051581C03F900411121505158190042412153451
:2006FB00AC827D00900425C005C004121534AB82D004D005D006D0077A00A81108EB4DF6AB
:20071B00EA4C08F6A81108860208860353030F8A048B0574402DFDE5112403F8A60408A6E2
:20073B0005EE2AFCEF3BFDC3E49C74109D506EE4C39AFA74109BFBC007C006C003C002C015
:20075B0043C044C045C002C003E5112403F88682088683121611E58124FBF581D002D003A6
:20077B00D006D007EEC39AFCEF9BFDC006C007EA2543FAEB3544FBAF45C007C006C002C0A8
:20079B0003C007C004C005904000121611E58124FBF581D006D007D007D0068025C007C061
:2007BB0006C043C044C045C006C007E5112403F88682088683121611E58124FBF581D00647
:2007DB00D007A81108EE26FEEF0836FFFDC007C006C0059004241215051581D006D007C0F2
:2007FB000690042512150515817420C0E09004011215051581D2A5851181D01122C011E58B
:20081B0081F5112408F581900426121534900427121534900428121534AE827F00900429E6
:20083B00C007C006121534AD82D006D0077C00EF4205EE42048D06740F5CFFA81108A60615
:20085B0008A607A8110886020886038A0674602BFFE5112403F8A60608A60774082AFEE462
:20087B003BFFC3E49E74109F4003020911C005C004A81108E4C396FE74100896FFC007C02F
:20089B0006C005C004743AC0E07400C0E07440C0E0C006C007E5112403F88682088683122B
:2008BB001577E58124FBF581D004D005D006D0077408C39EFBE49FFAEE243AFD7E007F4065
:2008DB00C005C004C003C002C005C006C007C003C002906000121577E58124FBF581D002BD
:2008FB00D003D004D005E5112405F8A60308A602D004D0058047C005C004C003C002743AC5
:20091B00C0E07400C0E07440C0E07408C0E0E4C0E0E5112403F88682088683121577E581E2
:20093B0024FBF581D002D003D004D00574082AFAE43BFBE5112405F8A60208A603C005C00A
:20095B0004E5112405F8860608860774602FFFAB407A00AC417D00E5112407F8EC4AF6ED3D
:20097B004B08F6E5112407F8E5112403F9E6F708E609F7E5112403F88682088683C007C064
:20099B0006121A75AC82AD83D006D0078C438D44754500E5112405F8E5112407F9E726FCF6
:2009BB0009E70836FDC3E49C74109DD004D0055074C005C004E5112405F8E4C396FA7410C5
:2009DB000896FBC005C004C003C002C043C044C045C002C0038E828F83121577E58124FB7F
:2009FB00F581D002D003D004D005E5112407F8E6C39AFF08E69BFEEA2543FAEB3544FBADDE
:200A1B0045C005C004C002C003C005C007C006906000121577E58124FBF581D004D005D014
:200A3B0004D0058027C005C004C043C044C045E5112407F8E6C0E008E6C0E08E828F831225
:200A5B001577E58124FBF581D004D005E5112403F8740826FEE40836FFEE2DFDEF3CFCFF37
:200A7B00C005C004C0079004281215051581D00490042912150515817440C0E0900401123F
:200A9B0015051581AD43AE44AF458D828E838FF0121C9DB521537E007F008E048F05E51109
:200ABB002407F8C3EC96ED08965031EE2543FBEF3544FCAD458B828C838DF0121C9DFABAE8
:200ADB0061004011EA2485400CEA24E08B828C838DF01219FC0EBE00C10F80BEE5112407C1
:200AFB00F88682088683120699AD43AE44AF458D828E838FF01216C4851181D0112290040A
:200B1B0002121534E58230E217C2A4D2A6120818C2A6D2A4741FC0E0900402121505158154
:200B3B00227401C0E09005011215051581900503121534AF82BF13028017901E4C75F0809D
:200B5B001213347410C0E0900501121505158180D07402C0E090050112150515819005034F
:200B7B00121534AF82BF1401227410C0E0900501121505158180AA900502121534E58230A9
:200B9B00E130901E4E75F0801213347408C0E09005011215051581741FC0E090050212158A
:200BBB000515817410C0E09005011215051581020B3C900000121534E58260277408C0E0C5
:200BDB009005011215051581741FC0E090050212150515817410C0E090050112150515819A
:200BFB00020B3C22C011E581F5112404F581AE82AF83C2A5900520C007C006121534900599
:200C1B0021121534900524121534AC827D00900525C005C004121534AB82D004D005D00634
:200C3B00D0077A00A81108EB4DF6EA4C08F6A81108860208860353030F8A048B0574502DD7
:200C5B00FDE5112403F8A60408A605EE2AFCEF3BFDC3E49C74109D506EE4C39AFA74109B53
:200C7B00FBC007C006C003C002C043C044C045C002C003E5112403F8868208868312161154
:200C9B00E58124FBF581D002D003D006D007EEC39AFCEF9BFDC006C007EA2543FAEB3544E1
:200CBB00FBAF45C007C006C002C003C007C004C005904000121611E58124FBF581D006D01E
:200CDB0007D007D0068025C007C006C043C044C045C006C007E5112403F88682088683123A
:200CFB001611E58124FBF581D006D007A81108EE26FEEF0836FFFDC007C006C00590052403
:200D1B001215051581D006D007C00690052512150515817420C0E0900501121505158190EB
:200D3B001E6475F080121334D2A5851181D01122C011E581F5112406F58190052612153454
:200D5B00AF82900527C007121534AE82D0077D008F047F00EE4207ED4204900528C007C025
:200D7B0004121534AE82D0048E057E00900529C006C005C004121534AB82D004D005D006D0
:200D9B00D0077A00E5112403F8EB4EF6EA4D08F6E5112403F8860208860353030F8A058BC1
:200DBB000674702EFEA81108A60508A6068F828C83C007C004C003C002121A75AD82AE83B1
:200DDB00D002D003D004D0078D438E44754500EF2AFDEC3BFEC3E49D74109E506CE4C39AAE
:200DFB00FA74109BFBC007C004C003C002C043C044C045C002C003A8110886820886831237
:200E1B001577E58124FBF581D002D003D004D007EFC39AFDEC9BFEC007C004EA2543FAEB50
:200E3B003544FBAF45C007C004C002C003C007C005C006907000121577E58124FBF581D064
:200E5B0004D007D004D0078023C007C004C043C044C045C007C004A8110886820886831240
:200E7B001577E58124FBF581D004D007E5112403F8EF26FDEC0836FEFBC007C006C005C0C9
:200E9B0004C0039005281215051581D004D005D006C004C00590052912150515817440C0F5
:200EBB00E09005011215051581901E7475F080121334D004D007AB43AD44AE458B828D83E5
:200EDB008EF0121C9DB52160E5112405F8E4F608F6E5112405F88602088603C3EA9FEB9C86
:200EFB00503DE5112405F8E62543FA08E63544FBAE458A828B838EF0121C9DFDBD610040D8
:200F1B0011ED2485400CED24E08A828B838EF01219FCE5112405F806B60002080680B28F6F
:200F3B00828C83120BFFC2A6AD43AE44AF458D828E838FF01216C4851181D011229005026F
:200F5B00121534E58220E003020FF1901E8775F0801213349005021215347E008E83121495
:200F7B0021121334901E9075F0801213347401C0E09005021215051581900502121534E51B
:200F9B008230E2499005021215347E008E83121421121334C2A4D2A6120D4BC2A6D2A4749E
:200FBB0004C0E09005021215051581901E9C75F0801213349005021215347E008E831214EA
:200FDB0021121334901DC875F080021334901EA875F080021334900502121534E58230E3E9
:200FFB0024901EAF75F0801213347410C0E090050112150515817408C0E0900502121505BC
:20101B001581020B3C22759850758920758DFDD29CD2ACD2AFD28EC298229003E812131041
:20103B00121021C2A1120571120673C2A6E5427005120B1980167401B54208120F58120B02
:20105B00928009120B19120F58120B921214A8AF82BF30004005EF24C65026BF6100400515
:20107B00EF2485501CBF41004005EF24A55012BF2002800DBF2E028008BF3F028003BF3D8E
:20109B001874EB25394012E5392423F8A60705398F82C00712132BD007BF0823E539601F40
:2010BB00E5392423F876001539758208C00712132B75822012132B75820812132BD007BF92
:2010DB000D028003021048E5397003021048E5392423F87600901EBB75F080121334900014
:2010FB002375F040121334901EC275F0801213347401B5390B743FB5230612007B0212EE78
:20111B007403C0E0901EC775F08012029AAF821581EF601975820312046CE582600F74049C
:20113B00C0E090000F12022515810212EE7404C0E0901ECB75F08012029AAF821581EF604A
:20115B001C7405B53917AF27BF300050030212EEEF24C650030212EE8F210212EE7404C0A8
:20117B00E0901ED075F08012029AAF821581EF601975820412046CE582600F7404C0E09039
:20119B00000512022515810212EE7404C0E0901ED575F08012029AAF821581EF60161202F0
:2011BB00E5E582600F7406C0E090000912022515810212EE7405C0E0901EDA75F08012023B
:2011DB009AAF821581EF601975820512046CE582600F7404C0E0900001120225158102124B
:2011FB00EE7405C0E0901EE075F08012029AAF821581EF60257408B53920AF28BF540C747D
:20121B0043B529077450B52A028041BF550C7444B529077450B52A0280327409B539028024
:20123B00030212E57442B5280280030212E5744FB5290280030212E57454B52A0280030239
:20125B0012E57448B52B0280030212E5AF28BF422C7542027410C0E090040112150515812A
:20127B007410C0E09005011215051581120673120B3C901EE675F0801213348056BF542414
:20129B007401B54202801D7542017410C0E09004011215051581120B3C901F0075F08012F6
:2012BB001334802F7455B5282AE54260267542007410C0E090050112150515811206739052
:2012DB001F1175F0801213348009901F2275F0801213347E007F00C3EE9416EF64809480AE
:1512FB00500DEE2423F876000EBE00EB0F80E8753900021048A8
:201D6F005254553D0049503D005355423D00474154453D004D41433D004D4F44453D000A47
:201D8F000D57697A4E657420416461707465723A0D0A0A00536574204D4F44453E202E206D
:201DAF002E202E202E204D4F44453D0054435000424F544800554450000D0A005365742068
:201DCF005254552028302D39293E20202E205254553D000D0A5365742049503E202E202E18
:201DEF00202E202E202E2049503D000D0A536574205355424E45543E202E202E202E205325
:201E0F0055423D000D0A53657420474154453E202E202E202E202E20474154453D000D0A50
:201E2F00536574204D41433E20202E202E202E202E204D41433D000A0D0A002E007A006485
:201E4F006973636F6E6E6563742072656365697665640D0A0046696E69736865642053454D
:201E6F004E440D0A0046696E697368656420726563656976650D0A00434F4E5F49523A2032
:201E8F00002020205245435F49523A2000202020636C65617265643A004E4F4E450D0A00F4
:201EAF0074696D656F757472780D0A000D0A434F4D3E000D0A0D0A0049503D005254553D9B
:201ECF00005355423D004D41433D00474154453D004D4F44453D005544502F5443503A3590
:201EEF003030302F36303030204F50454E0D0A00005443503A36303030204F50454E0D0A95
:201F0F0000005544503A35303030204F50454E0D0A0000496E76616C69642C2074727920CF
:081F2F003C3F3E0D0A0D0A00C3
:20131000AE82AF83EE4F6012EE24FFFCEF34FFFDEC24FFFEED34FFFF80EA2285829910997F
:201330000280FB22AD82AE83AFF08D828E838FF0121C9DFC600C8C990DBD00010E1099EA9C
:2013500080FB22C011858111058105810581AF82E51124FBF88604088605088606EFC45470
:201370000FFB53030F7A00EB2437F582EA341FF583E4938C828D838EF01219FCA811087493
:20139000012CF6E43D08F608A6068F0353030F7F00EB2437F582EF341FF583E493FFA8112B
:2013B0000886820886830886F0EF1219FC74022CFCE43DFD8C828D838EF0E41219FC85116F
:2013D00081D01122C011858111058105810581AF82A911097700E904F87600740229F8762C
:2013F0000089067D007C40C001C006C005C0048F82121353158115811581D00189077E00DB
:201410007D408F828E838DF0121334851181D01122C011858111058105810581AE82AF8311
:20143000A81108760D087600087640A8110816B6FF0208168E048F03C004C003740AC0E0A7
:20145000E4C0E08C828B83121CB9AF8215811581D003D0048F0574302DFDA81108868208BE
:2014700086830886F0ED1219FC740AC0E0E4C0E08C828B83121693AC82AD83158115818C32
:20149000068D07EC4D70A4A8110886820886830886F0851181D01122109802800485998215
:0514B0002275820022FC
:111F37003031323334353637383941424344454600F7
:2014B500E5827F00BF0802801120E704C2A38002D2A3D2A1C2A1330F80EA22E5837F00BF26
:2014D5000802801120E704C2A38002D2A3D2A1C2A1330F80EAE5827F00BF0802801120E72C
:2014F50004C2A38002D2A3D2A1C2A1330F80EA22C011858111AE82AF83C2A07582F0C00779
:20151500C0061214B5D006D0078E828F831214D0E51124FDF886821214B5D2A0D01122AE3B
:2015350082AF83C2A07D0075820FC007C006C0051214B5D005D006D0078E828F83C0051255
:2015550014D0D0057F00BF08005012D2A18D06EE2EFEA2A2E4334EFDC2A10F80E9D2A08D75
:201575008222C011858111C082C083E5812404F581E5112405F8E4F608F6E5112405F886B5
:2015950002088603E51124FCF8C3EA96EB08965065E51124F9F8E5112405F9E726FA09E7FA
:2015B5000836FB088607A81108E5112403F9E6F708E609F7E5112405F88604088606E5117B
:2015D5002403F8EC26FCEE0836FE8C828E83C007C003C002121534AE82D002D003D0078AA3
:2015F500828B838FF0EE1219FCE5112405F806B6000208068084851181D01122C0118581DA
:2016150011C082C08305810581E5112403F8E4F608F6E5112403F88602088603E51124FCE2
:20163500F8C3EA96EB0896504FE51124F9F8E5112403F9E726FA09E70836FB0886078A8240
:201655008B838FF0121C9DFAA811088606088607E5112403F88603088605EB2EFEED3FFFCE
:1E167500C0028E828F831215051581E5112403F806B600020806809A851181D011229C
:20169300E58124FEF8E6F918E6F87A10E4FBFCE58225E0F582E58333F583EB33FBEC33FC53
:1116B300EB98F5F0EC994006FCABF0438201DADF22BB
:2016C400C011858111C082C083C0F0E5812404F581A81108E608467003021809E51124063A
:2016E400F8E4F608F6900001E0FAA3E0FF7D017E00EA4F6037C005C006A8110886050886F8
:2017040006C3EA9DEF9ED006D0055020E5112406F8A60208A60774022AFBE43FFC8B058C82
:20172400068B828C83E0FAA3E0FF80C5A811088603088604EB24FEFBEC34FFFCE5112404C5
:20174400F874022BF6E43C08F6E5112404F88682088683EAF0EFA3F08D828E83EBF0ECA3C3
:20176400F08B828C83E0FDA3E0FEEAB50539EFB506358D828E83A3A3E0FEA3E0FFE511245F
:2017840004F88682088683EEF0EFA3F08B828C83E0FEA3E0FF8E828F83E0FEA3E0FF8B82C5
:2017A4008C83EEF0EFA3F0E5112406F8E608466054E5112406F88682088683E0FEA3E0FF25
:2017C400EEB50341EFB5043D8B828C83E0FBA3E0FCE5112406F88682088683EBF0ECA3F038
:2017E400E5112406F8740226FEE40836FFE5112404F88682088683E0FCA3E0FD8E828F8365
:0B180400ECF0EDA3F0851181D0112263
:20180F00C011858111AD82AE83AFF0ED4E60068D0E8E0F8F10E50E450F7008900000F5F026
:20182F00021911AD0EAE0FAF108D828E838FF0121C9D6036AD0EAE0FAF108D828E838FF060
:20184F00121C9DFDC005E51124FBF886820886830886F0121C50AD82AE831581ED4E600A2F
:20186F00050EE4B50EBD050F80B9AD0EAE0FAF10AA0EAB0FAC108A828B838CF0121C9D606F
:20188F0061AA0EAB0FAC108A828B838CF0121C9DFAC007C006C005C002E51124FBF8868226
:2018AF000886830886F0121C50AA82AB831581D005D006D007EA4B601FAA0EAB0FAC108A2E
:2018CF00828B838CF0E41219FC050EB50E02050F8D828E838FF0802A050EE4B50E92050F4D
:2018EF00808EE4F50EF50FF5108D828E838FF0121C9D60088D828E838FF0800690000075DF
:05190F00F000D01122E0
:06003500E478FFF6D8FD9F
:20191400C011E581F5112406F581AD82AE83AFF07B007C008D828E838FF0121C9DFABA20A2
:20193400028003BA09070DBD00EA0E80E7A81108A60508A60608A6078D828E838FF0121C79
:201954009DFFBF2D03D38001C39200BF2D028003BF2B09A8110806B600020806A81108E5A8
:20197400112404F9E6F708E609F708E609F7E5112404F886820886830886F0121C9DFABA3C
:20199400300092014048EA24C692014041C020C003C00490000A121A17AA82AF83158115B3
:2019B40081D020E5112404F886820886830886F0121C9DFEA31818A68208A6837D00EE2471
:2019D400D0FEED34FFFDEE2AFBED3FFC80A0300009C3E49BFEE49CFF80048B068C078E82FD
:0819F4008F83851181D01122BF
:200013007900E94400601B7A00901F4A780375A004E493F2A308B8000205A0D9F4DAF27524
:02003300A0FF2C
:1B19FC0020F71130F6138883A88220F509F6A8837583002280FEF280F5F022EA
:201A170074FE2581F8E68582F0A4C0E08582F018E6A4F582D0E025F0C58386F0A42583F5AA
:021A3700832208
:201A39009000017403F07400A3F0901F48E493FE740193FF1EBEFF011FEE2403FEEF3400EA
:201A5900FF900003EEF0EFA3F0900001E0FEA3E0FF8E828F83A3A3E4F0A3F022C011E58162
:201A7900F5112408F581AE82AF83900001E0F5F0A3E045F0700BC007C006121A39D006D022
:201A990007EE4F600E74022EFCE43FFDC3EC9EED9F5006900000021C1274022EFDE43FFC0C
:201AB900C3ED9404EC940050047D047C00900001E5112405F8E0F6A3E008F67A017B00E51A
:201AD900112405F8E608467003021C0FC002C003E5112405F88682088683A91109E0F7A3F5
:201AF900E009F7A811088602088603E5112405F8E5112403F9E6F708E609F7E5112403F806
:201B1900EAC396FAEB0896FB8A078B06C3EF9DEE9CD003D0025003021BECC002C0037404F2
:201B39002DFAE43CFBC3EF9AEE9BD003D0024076E5112403F8ED26FEEC0836FFE5112407AA
:201B5900F8A60608A607E5112407F88682088683A91109E7F009E7A3F0E5112407F8740235
:201B790026FEE40836FFE5112405F88682088683A3A3E0FCA3E0FD8E828F83ECF0EDA3F0B7
:201B99008A828B83E5112407F8E6F008E6A3F0E5112405F88682088683E5112407F9E7F081
:201BB90009E7A3F0801AE5112405F88682088683A3A3E0FEA3E0FF8A828B83EEF0EFA3F09F
:201BD900E5112405F8740226FEE40836FF8E828F838026E5112405F8740226FEE40836FF80
:1F1BF9008E028F038E828F83E5112405F8E0F6A3E008F6021AD8900000851181D011227D
:201C1800AE82AF83C007C006121D3BE5828583F0D006D00745F07012BE300092004007EEDB
:181C380024C692005004C2008002D200A200E433FE7F008E828F832234
:20003B007800E84400600A790175A000E4F309D8FC7802E84404600C7905900001E4F0A3B8
:04005B00D8FCD9FAFA
:201C5000C011858111AD82AE83AFF08D828E838FF0121C9DFC6012E51124FDF8E6B5040205
:201C700080070DBD00E50E80E28D828E838FF0121C9DFCE51124FDF8E6B504088D828E8372
:0D1C90008FF0800690000075F000D011224A
:021F4800000493
:0D000600758145121D6BE582600302000349
:1C1C9D0020F71430F6148883A88220F507E6A88375830022E280F7E49322E02256
:201CB900E58124FEF88601188600E84960367A01E825E0F8E933400EF9E58298E58399409C
:201CD900030A80ECC3E913F9E813F8C3E58298F5F0E583994005F58385F082C3E913F9E8CB
:051CF90013F8DAE722F8
:201CFE00C2D5E58330E70DD2D5E4C39582F582E49583F583E58124FEF8E630E70AB2D5182D
:1D1D1E00E4C396F6E40896F918E6F812169D30D50BE4C39582F582E49583F5832264
:201D3B00AE82BE410092004007EE24A592005012BE610092004007EE248592005004C2009E
:101D5B008002D200A200E433FE7F008E828F8322AA
:041D6B00758200225B
:00000001FF
