:03000000020006F5
:15005F00752130752200752300753900753A00753E0102000381
:03000300020FF1F8
:20007400C011858111C082C083C0F07C00E51124FDF8C3EC96502BEC2423F98703A811088D
:20009400EC26FAE40836FE0886078A828E838FF0121B5BFAEBB50202800575820080060CBB
:2000B40080CB758201851181D01122C011858111058105810581AF827E007D00C3ED9539AB
:2000D400500DED2423F98704BC2E010E0D80EDBE030280067582000201BEEF2423F98707C6
:2000F400BF2E067582000201BE89077E007D4074DFC0E0741BC0E07480C0E08F828E838D11
:20011400F0121705AD82AE83AFF01581158115818D028E038F04ED4E7005F5820201BE7FD2
:20013400008A828B838CF0C00712180AAD82AE83D0078D048E03EC4B601BC0078C068B0724
:20015400C374FF9EE49FD007400BEF243AF98C05A7050F8012EC4B7009EF243AF876000F74
:2001740080057582008043C00774DFC0E0741BC0E07480C0E090000075F000121705A811D3
:2001940008A68208A68308A6F0158115811581D007A811088602088603088604A81108E6A0
:2001B40008466003020135758201851181D0112212142A7E008E8312132412123775820AAC
:2001D40002122EC01185811112142AAF82E51124FCF88682088683C00712142AAE82D0071B
:2001F4007D008F047F00EE4207ED42048F828C8312132412123775820A12122ED01122E4F4
:20021400C0E09000001213FB158174C3C0E09000161213FB15817407C0E09000171213FBCF
:20023400158174D0C0E09000181213FB15817405C0E09000191213FB1581747EC0E0900038
:20025400011213FB1581740AC0E09000021213FB158174DCC0E09000031213FB158174FEC2
:20027400C0E09000041213FB158174FFC0E09000051213FB158174FFC0E09000061213FB59
:20029400158174C0C0E09000071213FB1581E4C0E09000081213FB1581E4C0E09000091292
:2002B40013FB15817408C0E090000A1213FB158174DCC0E090000B1213FB15817424C0E0A1
:2002D40090000C1213FB1581744BC0E090000D1213FB1581745EC0E090000E1213FB158140
:2002F400747EC0E090000F1213FB1581740AC0E09000101213FB158174D2C0E090001112F6
:2003140013FB1581740AC0E09000121213FB15817402C0E09004001213FB1581740AC0E031
:2003340090001A1213FB1581740AC0E090001B1213FB15817413C0E09004041213FB158155
:200354007488C0E09004051213FB1581227401C0E09004011213FB158190040312142AAF86
:2003740082BF2202800E7410C0E09004011213FB158180D9901BE175F080021237C011859C
:20039400811105810581AF82900420C00712142A90042112142A90040C1213FB1581E5115E
:2003B40024FDF8E6C0E090040D1213FB1581E51124FCF8E6C0E090040E1213FB1581E51151
:2003D40024FBF8E6C0E090040F1213FB1581E51124F9F8088607C0079004101213FB158152
:2003F400E51124F9F88607C0079004111213FB158190042412142AAE827F00900425C007F8
:20041400C00612142AAD82D006D0077C00ED4207EC42068F048E0553050F8C028D03744091
:200434002BFBA81108A60208A603E51124F7F8E62CFA08E63DFBC3E49A74109B4003020484
:20045400E7C007C006901C0075F080C007C006C005C004121237D004D005E4C39CFC7410A6
:200474009DFDC005C004E51124F4F8E6C0E008E6C0E008E6C0E0C004C005A8110886820843
:200494008683121507E58124FBF581D004D005D006D007E51124F7F8E6C39CFA08E69DFBF2
:2004B400E51124F4F8EC26FCED0836FD088607C007C006C004C005C007C002C00390400025
:2004D400121507E58124FBF581D006D007D006D0078035C007C006E51124F4F8E6C0E008AF
:2004F400E6C0E008E6C0E0E51124F7F8E6C0E008E6C0E0A811088682088683121507E58149
:2005140024FBF581D006D007E51124F7F8E62FFF08E63EFEFDC007C006C005900424121312
:20053400FB1581D0069004251213FB15817420C0E09004011213FB158190000012142AE58D
:2005540082600B901C0F75F080121237801490040212142AE58230E309901C2075F08012DF
:200574001237851181D01122C011E581F5112427F581E511241BF97700E904F87600740290
:2005940029FFC000A8077600E511240BF8740329F6E511240BF886007600E5112408F874E0
:2005B4000429F6E5112408F886007600E5112407F8740529F6E5112407F886007600A8116F
:2005D4000808740629F6A811080886007600A81108740729F6A8110886007600D00090041D
:2005F40026C007C001C00012142AAE82D000D001900427C006C001C00012142AAD82D00007
:20061400D001D006D007C000E5112403F8A6050876008E028A057E00E5112403F886020808
:200634008603EE4202ED4203E5112419F8A60208A603D000900428C007C001C00012142A11
:20065400AB82D000D0018B027B008B068A05900429C006C005C001C00012142AAB82D0007A
:20067400D001D005D006D0077A00EE4203ED42028B04740F5AFDC000E5112403F8A6040845
:20069400A605E5112403F8C001E5112405F9E6F708E609F7D001E5112405F8860474600894
:2006B40026FDE5112409F8A60408A605E5112405F8740826FCE40836FDD000C3E49C741020
:2006D4009D40030207A8C003C002901C3175F080C007C003C002C001C000121237D000D066
:2006F40001D002D003D007C000E5112403F8E4C396FC74100896FDD00089038B027B007E5A
:2007140040C007C005C004C003C002C001C000C002C003C006C004C005C000E5112409F880
:200734008682088683D00012146DE58124FBF581D000D001D002D003D004D005D0077408EC
:20075400C39CFBE49DFE1CBCFF011DEC29FC7D007A40C007C006C003C002C001C000C00418
:20077400C005C002C003C00690600012146DE58124FBF581D000D001D002D003D006D007E4
:20079400C000E511240FF8A60308A606D000D002D003805989067D007C40C007C003C002A5
:2007B400C001C000C006C005C0047408C0E0E4C0E0C000E5112409F88682088683D00012DF
:2007D400146DE58124FBF581D000D001D002D003D007C000E5112405F8740826FDE40836D4
:2007F400FEE511240FF8A60508A606D000C003C002C000E511240FF8860508860674602E10
:20081400FEE5112411F8A60508A606E5112408F8860086048C038B047B00E5112407F886E2
:200834000086027E00E5112415F8EA4BF6EE4C08F6A8110808860086068E057E00A8110867
:20085400860086047B00E5112417F8EC4EF6EB4D08F6D000901C3A75F080C007C003C00283
:20087400C001C000121237D000D001D002D003D007C000E5112426F8E4F608F6D000D002F9
:20089400D003C000E5112426F8C3E6940408E664809480D000506FC000E5112426F8E629BC
:2008B400F88606D0007D008E828D83C007C003C002C001C000121324121237D000D001D051
:2008D40002D003D007C000E5112426F8C3E6940308E664809480D000501A75822EC007C054
:2008F40003C002C001C00012122ED000D001D002D003D007C000E5112426F806B600020871
:2009140006D000020896C003C002901C4675F080C007C003C002C001C000121237D000D029
:2009340001D002D003D007C000E5112415F88682088683D000C007C003C002C001C0001277
:200954001324121237901C5575F080121237D000D001D002D003D007C000E5112419F88622
:2009740082088683D000C007C003C002C001C00012132412123775820A12122ED000D0019B
:20099400D002D003D007C000E5112417F8C001E5112409F9E6F708E609F7D001E511240942
:2009B400F88682088683D000C007C002C001C00012196BAB82AC83D000D001D002D007C03C
:2009D40000E5112423F8A60308A604087600E511240FF8C001E5112419F9E726FB09E708E7
:2009F40036FCD001D000C3E49B74109CD002D0034003020AF2901C3175F080C007C003C0BC
:200A140002C001C000121237D000D001D002D003D007C000E511240FF8E4C396FC74100821
:200A340096FED000C007C006C004C003C002C001C0008500F0E5112423F8E6C0E008E6C009
:200A5400E008E6C0E0A8F0C004C006C000E5112411F88682088683D00012146DE58124FB0E
:200A7400F581D000D001D002D003D004D006D007C000E5112417F8C001E5112413F9E6C3AC
:200A94009CF708E69E09F7D001E5112423F8EC26FCEE0836FE088605D000C007C003C00236
:200AB400C001C000C004C006C0058500F0E5112413F8E6C0E008E6C0E0A8F0C000E5112432
:200AD40011F88682088683D00012146DE58124FBF581D000D001D002D003D0078051C007CD
:200AF400C003C002C001C0008500F0E5112423F8E6C0E008E6C0E008E6C0E0A8F08500F083
:200B1400E5112417F8E6C0E008E6C0E0A8F0C000E5112411F88682088683D00012146DE5A8
:200B34008124FBF581D000D001D002D003D007901C6075F080C007C003C002C001C000129E
:200B54001237901C6C75F080121237D000D001D002D003D007C000E5112423F88682088638
:200B7400830886F0121B5BFCD000ECB521028003020CDF7C007E00C003C0028C038E05C077
:200B940000E5112417F8C3EB96ED0896D000D002D0034003020C7FC000E5112423F8C0014E
:200BB400E511240CF9EC26F7EE083609F708E609F7D001E511240CF886820886830886F059
:200BD400121B5BFDD000BD61004052ED2485404DED24E0FDC000E511240CF88682088683F4
:200BF4000886F0ED1218F2E511240CF886820886830886F0121B5BFDD0008D82C007C006B4
:200C1400C004C003C002C001C00012122ED000D001D002D003D004D006D0078046C003C094
:200C340002C000E5112423F8EC26FAEE0836FB088605D0008A828B838DF0121B5BFAF58283
:200C5400C007C006C004C003C002C001C00012122ED000D001D002D003D004D006D007D040
:200C740002D0030CBC00010E020B8BC003C002C000E511240BF886008606A8078605D0009E
:200C940086048703C003C002E5112423F8E6C0E008E6C0E008E6C0E0E5112417F8E6C0E021
:200CB40008E6C0E0E5112415F8E6C0E008E6C0E0C006C005C0048B82120391E58124F6F5E0
:200CD40081D002D003D002D003806A901C7875F080C007C003C002C001C000121237D0004A
:200CF400D001D002D003D007C000E511240BF886008606A8078607D00086058704C003C0FF
:200D1400027482C0E0741CC0E07480C0E0741DC0E0E4C0E0E5112415F8E6C0E008E6C0E073
:200D3400C006C007C0058C82120391E58124F6F581D002D00375820AC003C00212122E9096
:200D54001CA175F080121237D002D003E5112409F8740826FEE40836FFEE2BFBEF3AFAFFCB
:200D7400C003C002C0079004281213FB1581D0029004291213FB15817440C0E09004011261
:200D940013FB158174FFC0E09004021213FB1581E5112423F886050886060886078D828EB6
:200DB400838FF01215BA851181D0112290040212142AE58230E20302057C227598507589C0
:200DD40020758DFDD29CD2AFD2ACD28EC29822901CB875F080121237901CCD75F080121271
:200DF40037E53E60067EE57F1C80047EE97F1C7D808E828F838DF0121237901CED75F08026
:200E1400121237901CF075F08012123790000F12142A7E008E8312132412123775822E122E
:200E3400122E90001012142A7E008E8312132412123775822E12122E90001112142A7E0055
:200E54008E8312132412123775822E12122E90001212142A7E008E83121324121237901C81
:200E7400ED75F080121237901D0875F08012123790002175F040121237901CED75F08012FB
:200E94001237901D2075F08012123790000512142A7E008E8312132412123775822E121287
:200EB4002E90000612142A7E008E8312132412123775822E12122E90000712142A7E008E6D
:200ED4008312132412123775822E12122E90000812142A7E008E83121324121237901CEDAC
:200EF40075F080121237901D3875F08012123790000112142A7E008E8312132412123775F0
:200F1400822E12122E90000212142A7E008E8312132412123775822E12122E900003121476
:200F34002A7E008E8312132412123775822E12122E90000412142A7E008E831213241212E9
:200F540037901CED75F080121237901D5075F08012123790000912142A1212D775823A1209
:200F7400122E90000A12142A1212D775823A12122E90000B12142A1212D775823A12122E4C
:200F940090000C12142A1212D775823A12122E90000D12142A1212D775823A12122E9000D8
:200FB4000E12142A1212D7901D6875F080121237901D6C75F080121237901D8875F08012EA
:200FD4001237901D9C75F080121237901DB575F080121237901DCD75F0800212379003E864
:200FF40012120E120DCFC2A1120213120361120DC01213ABAF82BF30004005EF24C6502B55
:20101400BF61004005EF24855021BF41004005EF24A55017BF20028012BF2E02800DBF3A02
:20103400028008BF3F028003BF3D1874EB25394012E5392423F8A60705398F82C007121228
:201054002ED007BF0823E539601FE5392423F876001539758208C00712122E75822012127C
:201074002E75820812122ED007BF0D028003021002E5397003021002E5392423F876009099
:201094001DE475F08012123790002375F040121237901CED75F0801212377401B5390B748D
:2010B4003FB52306120DE30211EC7403C0E0901DEB75F080120074AF821581EF60357582A2
:2010D400031200BFE582602BC03A90000F1213FB1581C03B9000101213FB1581C03C90000A
:2010F400111213FB1581C03D9000121213FB15810211EC7404C0E0901DEF75F080120074A2
:20111400AF821581EF601C7405B53917AF27BF300050030211ECEF24C650030211EC8F2119
:201134000211EC7404C0E0901DF475F080120074AF821581EF60347582041200BFE582609B
:201154002AC03A9000051213FB1581C03B9000061213FB1581C03C9000071213FB1581C0BC
:201174003D9000081213FB1581806D7404C0E0901DF975F080120074AF821581EF60087527
:20119400823512122E80517405C0E0901DFE75F080120074AF821581EF60347582051200DA
:2011B400BFE582602AC03A9000011213FB1581C03B9000021213FB1581C03C900003121333
:2011D400FB1581C03D9000041213FB15818009901E0475F0801212377E007F00C3EE941650
:1A11F400EF64809480500DEE2423F876000EBE00EB0F80E87539000210020A
:201BC0005254553D0049503D005355423D00474154453D004D41433D004D4F44453D002ED4
:201BE0000055445020536F636B6574203020706F72742035303030206F70656E0D0A000070
:201C000009206F766572666C6F77200D0A000053656E6420636F6D706C6574650D0A0000D6
:201C20000D0A53656E64206661696C65640D0A00004F766572666C6F770053656E646572B2
:201C40002049503A20000953656E64657220506F72743A20000952582053697A653A200020
:201C60000D524553504F4E53453A20005065657220646174613A200057726F6E672052541B
:201C80005500496E636F727265637420666F726D6174206F722077726F6E67205254550034
:201CA000000D2D2D2D2D2D2D2D2D2D2D2D2D2D2D2D2D2D2D0D0A00000A0D57697A4E65745E
:201CC00020416461707465723A0D0A0A002020204D6F6465202E202E202E202E20202E201D
:201CE0002E203A200055445000544350000D0A0020202049507634204164647265737320AC
:201D0000202E202E203A20002020205254552041646472657373202E202E202E203A200008
:201D20002020205375626E6574204D61736B202E202E202E203A200020202047617465776A
:201D400061792041646472657373202E203A20002020204D41432041646472657373202E96
:201D6000202E202E203A20000A0D0A00536574205254552028302D39293A205553494E47FE
:201D8000205254553D0D0A005365742049503A205553494E472049503D0D0A0053657420B6
:201DA0005355424E45543A205553494E47205355423D0D0A0053657420474154453A2055F8
:201DC00053494E4720474154453D0D0A00536574204D41433A205553494E47204D41433D12
:201DE0000D0A0A000D0A434F4D3E0049503D005254553D005355423D004D41433D004741C3
:171E000054453D00496E76616C69642C20747279203C3F3E0D0A0093
:20120E00AE82AF83EE4F60071EBEFF011F80F522758CFF758AF6D28C308DFDC28CC28D225C
:20122E0085829910990280FB22AD82AE83AFF08D828E838FF0121B5BFC600C8C990DBD003B
:20124E00010E1099EA80FB22C011858111058105810581AF82E51124FBF886040886050864
:20126E008606EFC4540FFB53030F7A00EB2417F582EA341EF583E4938C828D838EF0121856
:20128E00F2A8110874012CF6E43D08F608A6068F0353030F7F00EB2417F582EF341EF58357
:2012AE00E493FFA8110886820886830886F0EF1218F274022CFCE43DFD8C828D838EF0E40B
:2012CE001218F2851181D01122C011858111058105810581AF82A911097700E904F876008A
:2012EE00740229F8760089067D007C40C001C006C005C0048F82121256158115811581D0DE
:20130E000189077E007D408F828E838DF0121237851181D01122C0118581110581058105E6
:20132E0081AE82AF83A81108760D087600087640A8110816B6FF0208168E048F03C004C0E8
:20134E0003740AC0E0E4C0E08C828B83121B77AF8215811581D003D0048F0574302DFDA80C
:20136E00110886820886830886F0ED1218F2740AC0E0E4C0E08C828B83121589AC82AD83DA
:20138E00158115818C068D07EC4D70A4A8110886820886830886F0851181D0112210980284
:0A13AE0080048599822275820022D6
:111E1700303132333435363738394142434445460018
:2013B800AE82AF837D00BD10005017EF30E704D2A38002C2A3D2A1EE2EFEEF33FFC2A10D7E
:2013D80080E422AF827E00BE08005016EF30E704D2A38002C2A3D2A18F05ED2DFFC2A10E9D
:2013F80080E522C011858111AE82AF83C2A07582F0C007C0061213DBD006D0078E828F835F
:201418001213B8E51124FDF886821213DBD2A0D01122AE82AF83C2A07D0075820FC007C07D
:2014380006C0051213DBD005D006D0078E828F83C0051213B8D0057F00BF08005012D2A193
:201458008D06EE2EFEA2A2E4334EFDC2A10F80E9D2A08D8222C011858111C082C083E581D0
:201478002404F581E5112405F8E4F608F6E5112405F88602088603E51124FCF8C3EA96EB5B
:2014980008965065E51124F9F8E5112405F9E726FA09E70836FB088607A81108E51124031B
:2014B800F9E6F708E609F7E5112405F88604088606E5112403F8EC26FCEE0836FE8C828E32
:2014D80083C007C003C00212142AAE82D002D003D0078A828B838FF0EE1218F2E511240567
:2014F800F806B6000208068084851181D01122C011858111C082C08305810581E51124035C
:20151800F8E4F608F6E5112403F88602088603E51124FCF8C3EA96EB0896504FE51124F929
:20153800F8E5112403F9E726FA09E70836FB0886078A828B838FF0121B5BFAA81108860658
:20155800088607E5112403F88603088605EB2EFEED3FFFC0028E828F831213FB1581E511DB
:111578002403F806B600020806809A851181D0112243
:20158900E58124FEF8E6F918E6F87A10E4FBFCE58225E0F582E58333F583EB33FBEC33FC5E
:1115A900EB98F5F0EC994006FCABF0438201DADF22C6
:2015BA00C011858111C082C083C0F0E5812404F581A81108E6084670030216FFE511240651
:2015DA00F8E4F608F6900001E0FAA3E0FF7D017E00EA4F6037C005C006A811088605088603
:2015FA0006C3EA9DEF9ED006D0055020E5112406F8A60208A60774022AFBE43FFC8B058C8E
:20161A00068B828C83E0FAA3E0FF80C5A811088603088604EB24FEFBEC34FFFCE5112404D0
:20163A00F874022BF6E43C08F6E5112404F88682088683EAF0EFA3F08D828E83EBF0ECA3CE
:20165A00F08B828C83E0FDA3E0FEEAB50539EFB506358D828E83A3A3E0FEA3E0FFE511246A
:20167A0004F88682088683EEF0EFA3F08B828C83E0FEA3E0FF8E828F83E0FEA3E0FF8B82D0
:20169A008C83EEF0EFA3F0E5112406F8E608466054E5112406F88682088683E0FEA3E0FF30
:2016BA00EEB50341EFB5043D8B828C83E0FBA3E0FCE5112406F88682088683EBF0ECA3F043
:2016DA00E5112406F8740226FEE40836FFE5112404F88682088683E0FCA3E0FD8E828F8370
:0B16FA00ECF0EDA3F0851181D011226F
:20170500C011858111AD82AE83AFF0ED4E60068D0E8E0F8F10E50E450F7008900000F5F031
:20172500021807AD0EAE0FAF108D828E838FF0121B5B6036AD0EAE0FAF108D828E838FF0B9
:20174500121B5BFDC005E51124FBF886820886830886F0121B0EAD82AE831581ED4E600AC0
:20176500050EE4B50EBD050F80B9AD0EAE0FAF10AA0EAB0FAC108A828B838CF0121B5B60BD
:2017850061AA0EAB0FAC108A828B838CF0121B5BFAC007C006C005C002E51124FBF8868274
:2017A5000886830886F0121B0EAA82AB831581D005D006D007EA4B601FAA0EAB0FAC108A7C
:2017C500828B838CF0E41218F2050EB50E02050F8D828E838FF0802A050EE4B50E92050F63
:2017E500808EE4F50EF50FF5108D828E838FF0121B5B60088D828E838FF08006900000752D
:05180500F000D01122EB
:06003500E478FFF6D8FD9F
:20180A00C011E581F5112406F581AD82AE83AFF07B007C008D828E838FF0121B5BFABA20F0
:20182A00028003BA09070DBD00EA0E80E7A81108A60508A60608A6078D828E838FF0121B85
:20184A005BFFBF2D03D38001C39200BF2D028003BF2B09A8110806B600020806A81108E5F5
:20186A00112404F9E6F708E609F708E609F7E5112404F886820886830886F0121B5BFABA8A
:20188A00300092014048EA24C692014041C020C003C00490000A12190DAA82AF83158115C9
:2018AA0081D020E5112404F886820886830886F0121B5BFEA31818A68208A6837D00EE24BF
:2018CA00D0FEED34FFFDEE2AFBED3FFC80A0300009C3E49BFEE49CFF80048B068C078E8208
:0818EA008F83851181D01122CA
:200013007900E94400601B7A00901E2A780375A004E493F2A308B8000205A0D9F4DAF27545
:02003300A0FF2C
:1B18F20020F71130F6138883A88220F509F6A8837583002280FEF280F5F022F5
:20190D0074FE2581F8E68582F0A4C0E08582F018E6A4F582D0E025F0C58386F0A42583F5B5
:02192D00832213
:20192F009000017403F07400A3F0901E28E493FE740193FF1EBEFF011FEE2403FEEF340016
:20194F00FF900003EEF0EFA3F0900001E0FEA3E0FF8E828F83A3A3E4F0A3F022C011E5816D
:20196F00F5112408F581AE82AF83900001E0F5F0A3E045F0700BC007C00612192FD006D038
:20198F0007EE4F600E74022EFCE43FFDC3EC9EED9F5006900000021B0874022EFDE43FFC22
:2019AF00C3ED9404EC940050047D047C00900001E5112405F8E0F6A3E008F67A017B00E525
:2019CF00112405F8E608467003021B05C002C003E5112405F88682088683A91109E0F7A30B
:2019EF00E009F7A811088602088603E5112405F8E5112403F9E6F708E609F7E5112403F811
:201A0F00EAC396FAEB0896FB8A078B06C3EF9DEE9CD003D0025003021AE2C002C003740408
:201A2F002DFAE43CFBC3EF9AEE9BD003D0024076E5112403F8ED26FEEC0836FFE5112407B5
:201A4F00F8A60608A607E5112407F88682088683A91109E7F009E7A3F0E5112407F8740240
:201A6F0026FEE40836FFE5112405F88682088683A3A3E0FCA3E0FD8E828F83ECF0EDA3F0C2
:201A8F008A828B83E5112407F8E6F008E6A3F0E5112405F88682088683E5112407F9E7F08C
:201AAF0009E7A3F0801AE5112405F88682088683A3A3E0FEA3E0FF8A828B83EEF0EFA3F0AA
:201ACF00E5112405F8740226FEE40836FF8E828F838026E5112405F8740226FEE40836FF8B
:1F1AEF008E028F038E828F83E5112405F8E0F6A3E008F60219CE900000851181D0112293
:20003B007800E84400600A790175A000E4F309D8FC7802E84404600C7905900001E4F0A3B8
:04005B00D8FCD9FAFA
:201B0E00C011858111AD82AE83AFF08D828E838FF0121B5BFC6012E51124FDF8E6B504028B
:201B2E0080070DBD00E50E80E28D828E838FF0121B5BFCE51124FDF8E6B504088D828E83F8
:0D1B4E008FF0800690000075F000D011228D
:021E28000004B4
:0D00060075813E121BBCE582600302000301
:1C1B5B0020F71430F6148883A88220F507E6A88375830022E280F7E49322E02299
:201B7700E58124FEF88601188600E84960367A01E825E0F8E933400EF9E58298E5839940DF
:201B9700030A80ECC3E913F9E813F8C3E58298F5F0E583994005F58385F082C3E913F9E80E
:051BB70013F8DAE7223B
:041BBC00758200220C
:00000001FF
