:03000000020006F5
:06005F00750830020003E9
:030003000207737E
:20006500120C227E008E83120B79020B3C120C22AF82850982850A83C007120C22AE82D033
:20008500077D008F047F00EE4207ED42048F828C83120B79020B3C754200900000120BFEFA
:2000A5007542C3900016120BFE754207900017120BFE7542D0900018120BFE7542059000EA
:2000C50019120BFE75427E900001120BFE75420A900002120BFE7542DC900003120BFE75E2
:2000E50042FE900004120BFE7542FF900005120BFE7542FF900006120BFE7542C090000731
:20010500120BFE754200900008120BFE754200900009120BFE75420890000A120BFE7542BF
:20012500DC90000B120BFE75422490000C120BFE75424B90000D120BFE75425E90000E1217
:200145000BFE75427E90000F120BFE75420A900010120BFE7542D2900011120BFE75420A20
:20016500900012120BFE754202900400120BFE75420A90001A120BFE75420A90001B120B46
:20018500FE754213900404120BFE754288900405020BFE754201900401120BFE90040312EB
:2001A5000C22AF82BF2202800B754210900401120BFE80DF9010F675F080020B4EAF829000
:2001C5000420C007120C22900421120C22D0078F4290040C120BFE850B4290040D120BFE09
:2001E500850C4290040E120BFE850D4290040F120BFE850F42900410120BFE850E429004DA
:2002050011120BFE900424120C22AE827F00900425C007C006120C22AD82D006D0077C0028
:20022500ED4207EC42068F048E0553050F8C028D0374402BFBE5102CF8E5113DF9C3E49846
:20024500741099506590111375F080C007C006C005C004C003C002120B4ED002D003D004AF
:20026500D005E4C39CFC74109DFD8C688D6985126A85136B85146C8A828B83C005C004129F
:200285000DA4D004D005E510C39CF568E5119DF569EC2512F56AED3513F56B85146C904071
:2002A50000120DA4D006D007801E85106885116985126A85136B85146C8A828B83C007C085
:2002C50006120DA4D006D007E5102FFFE5113EFE8E42900424C007C006120BFED006D00771
:2002E5008F42900425120BFE754220900401120BFE900000120C22E582600990112075F007
:2003050080020B4E900402120C22E58230E30990112F75F080020B4E2290113D75F080129D
:200325000B4E90115175F080120B4E751F00752000752100752200752300752400752500FC
:20034500752600900426120C22AF82900427C007120C22AE82D0077D008F047F00EE420743
:20036500ED42048F1D8C1E900428120C22AD827E00900429C006C005120C22AB82D005D0EC
:20038500067A00EE4203ED42028B05740F5AFE8D2C8E2DAC2C7460252DFF8C2E8F2F7408A4
:2003A500252CFCE4352DFFC3E49C74109F400302043790116675F080C006C005C003C002C4
:2003C500120B4ED002D003D005D006E4C39DFD74109EFE75611F7562007563408D5F8E603E
:2003E500852E82852F83C006C005C003C002120D48D002D003D005D0067408C39DFCE49E6B
:20040500FF1DBDFF011EED241FFD8D617562007563408C5F8F60906000C007C004C003C0FE
:2004250002120D48D002D003D004D0078C158F16802D75611F756200756340755F08756076
:2004450000852E82852F83C003C002120D48D002D0037408252CFCE4352DFD8C158D16AC9E
:2004650015AD1674602DFD8C178D18AD237C00AE247F00EE4CF519EF4DF51AAD257C00E5F6
:20048500264CF51BEF4DF51C90118875F080C003C002120B4ED002D0037C007D00C3EC94A9
:2004A50004ED648094805047EC241FF987077E008F828E83C005C004C003C002120B79D0ED
:2004C50002D003D004D005C3EC9403ED64809480501675822EC005C004C003C002120B3385
:2004E500D002D003D004D0050CBC00B10D80AE90119475F080C003C002120B4E8519828546
:200505001A83120B799011A375F080120B4E851D82851E83120B79120B3C851B2E851C2F38
:20052500852E82852F83120F66AC82AD83D002D0038C278D28752900E51D2515FEE51E3548
:2005450016FFC3E49E74109F506C9011AE75F080C003C002120B4ED002D003E4C39515FE45
:2005650074109516FF8E5F8F60852761852862852963851782851883C007C006C003C002EF
:20058500120D48D002D003D006D007E51BC39EF55FE51C9FF560EE2527F561EF3528F562C0
:2005A500852963851782851883C003C002120D48D002D0038020851B5F851C608527618524
:2005C5002862852963851782851883C003C002120D48D002D0039011CE75F080C003C002D3
:2005E500120B4ED002D0038527828528838529F01210D6B5080280030206C0E4F52AF52BC5
:20060500AC2AAD2BC3EC951BED951C4003020692E52A2527F530E52B3528F53185293285D5
:2006250030828531838532F01210D6FDBD6100402FED2485402AED24E085308285318385BB
:2006450032F0120F0F8530828531838532F01210D6F582C003C002120B33D002D0038022A1
:20066500E52A2527FCE52B3528FDAF298C828D838FF01210D6F582C003C002120B33D00229
:20068500D003052AE4B52A02052B020605851F8285200B85210C85220D85190E851A0F8536
:2006A5001B10851C11852712852813852914C003C0021201C2D002D00380359011D975F085
:2006C50080C003C002120B4E851F8285200B85210C85220D7512D975131175148085190EBB
:2006E500851A0F75101D7511001201C2D002D003C003C002120B3C90113D75F080120B4E99
:20070500D002D0037408252EFEE4352FFFEE2BFBEF3AFA8A42900428C003C002120BFED0EC
:2007250002D0038B42900429120BFE754240900401120BFE7542FF900402120BFEAC27ADAC
:2007450028AF298C828D838FF0020E1E900402120C22E58230E20302031E227598507589D7
:2007650020758DFDD29CD2AFD2ACD28E22229003E8120789120760C2A112009C12019812E0
:04078500075180FB9D
:2010F60055445020536F636B6574203020706F72742035303030206F70656E0A0009206FDA
:20111600766572666C6F77200A0053656E6420636F6D706C6574650A000A53656E64206663
:2011360061696C65640A002D2D2D2D2D2D2D2D2D2D2D2D2D2D2D2D2D2D0A00554450205003
:2011560061636B65742052656365697665640A000A55445020525820486561646572204F8B
:20117600766572666C6F772044657465637465640A0053656E6465722049503A2000095338
:20119600656E64657220506F72743A20000952582053697A653A20000A5544502052582067
:2011B60044415441204F766572666C6F772044657465637465640A00524553504F4E5345D0
:2011D6003A2000496E636F727265637420666F726D6174206F722077726F6E6720525455E4
:0111F60000F8
:20078900AE82AF83EE4F60071EBEFF011F80F522758CFF758AF6D28C308DFDC28CC28D22EC
:2007A900AE82AF838E048F05C3EC9410ED942750030208E4853336853437853538757710A0
:2007C9007578278C828D83C005C004120DF5A882D004D0057430288536828537838538F079
:2007E900120F0F74012536F539E43537F53A85383B7577E87578038C828D83C005C00412CE
:200809000DF575770A757800121089A882D004D005743028853982853A83853BF0120F0F3E
:2008290074022536F539E43537F53A85383B7577647578008C828D83C005C004120DF575CC
:20084900770A757800121089A882D004D005743028853982853A83853BF0120F0F740325D9
:2008690036F539E43537F53A85383B75770A7578008C828D83C005C004120DF575770A758B
:200889007800121089A882D004D005743028853982853A83853BF0120F0F74042536F5392A
:2008A900E43537F53A85383B75770A7578008C828D83121089A882743028853982853A8394
:2008C900853BF0120F0F74052536F9E43537FAAB3889828A838BF0E4020F0FC3EC94E8ED86
:2008E900940350030209DA85333985343A85353B7577E87578038C828D83C005C004120DBD
:20090900F5A882D004D005743028853982853A83853BF0120F0F74012539F536E4353AF592
:2009290037853B387577647578008C828D83C005C004120DF575770A757800121089A882CF
:20094900D004D0057430288536828537838538F0120F0F74022539F536E4353AF537853B82
:200969003875770A7578008C828D83C005C004120DF575770A757800121089A882D004D03C
:20098900057430288536828537838538F0120F0F74032539F536E4353AF537853B387577C1
:2009A9000A7578008C828D83121089A8827430288536828537838538F0120F0F7404253949
:2009C900F9E4353AFAAB3B89828A838BF0E4020F0FC3EC9464ED94005003020A9385333940
:2009E90085343A85353B7577647578008C828D83C005C004120DF5A882D004D0057430286F
:200A0900853982853A83853BF0120F0F74012539F536E4353AF537853B3875770A75780013
:200A29008C828D83C005C004120DF575770A757800121089A882D004D00574302885368288
:200A49008537838538F0120F0F74022539F536E4353AF537853B3875770A7578008C828D7D
:200A690083121089A8827430288536828537838538F0120F0F74032539F9E4353AFAAB3BEF
:200A890089828A838BF0E4020F0FC3EC940AED9400407685333985343A85353B75770A75EE
:200AA90078008C828D83C005C004120DF5A882D004D005743028853982853A83853BF01217
:200AC9000F0F74012539F9E4353AFAAB3B75770A7578008C828D83C003C002C001121089FE
:200AE900AC82D001D002D00374302C89828A838BF0120F0F74022539FBE4353AFCAD3B8B25
:200B0900828C838DF0E4020F0FAB33AC34AD3574302E8B828C838DF0120F0F0BBB00010CAC
:200B29008B828C838DF0E4020F0F85829910990280FB2275990A10990280FB2275990910A0
:200B4900990280FB22AD82AE83AFF08D828E838FF01210D6FC60188C820DBD00010EC0079C
:200B6900C006C005120B33D005D006D00780DC22AE82AF83753C00753D00753E00753F0065
:200B890075400075410075333C7534007535408E828F831207A990003C75F040020B4E10AA
:120BA900980280FBAF998F82C007120B33D0078F8222AB
:200BBB00AE82AF837D00BD10005017EF30E704D2A38002C2A3D2A1EE2EFEEF33FFC2A10D83
:200BDB0080E422AF827E00BE08005016EF30E704D2A38002C2A3D2A18F05ED2DFFC2A10EA2
:200BFB0080E522AE82AF83C2A07582F0C007C006120BDED006D0078E828F83120BBB8542B2
:200C1B0082120BDED2A022AE82AF83C2A07D0075820FC007C006C005120BDED005D006D099
:200C3B00078E828F83C005120BBBD0057F00BF08005012D2A18D06EE2EFEA2A2E4334EFD90
:200C5B00C2A10F80E9D2A08D822275437A75442E75457A75462E75477A75482E75497A75F7
:200C7B004A0090000F120C22E582F543900010120C22E582F545900011120C22E582F5478C
:200C9B00900012120C22E582F54922754B7A754C2E754D7A754E2E754F7A75502E75517AC9
:200CBB00755200900005120C22E582F54B900006120C22E582F54D900007120C22E582F524
:200CDB004F900008120C22E582F5512275537A75542E75557A75562E75577A75582E75597E
:200CFB007A755A2E755B7A755C2E755D7A755E00900009120C22E582F55390000A120C2298
:200D1B00E582F55590000B120C22E582F55790000C120C22E582F55990000D120C22E582A4
:200D3B00F55B90000E120C22E582F55D22858264858365E4F566F567AA66AB67C3EA955F59
:200D5B00EB95605043E5662561F9E5673562FAAB63A864AF65AD66AE67ED28F8EE3FFF8847
:200D7B00828F83C003C002C001120C22AF82D001D002D00389828A838BF0EF120F0F05667A
:200D9B00E4B566B4056780B02285826D85836E7C007D008C028D03C3EA9568EB95695039AA
:200DBB00AA6DAB6E8C008D01E82AFAE93BFBEC256AF8ED356BF9AF6C888289838FF01210D8
:1A0DDB00D6F5428A828B83C005C004120BFED004D0050CBC00BD0D80BA229C
:200DF5007A10E4FBFCE58225E0F582E58333F583EB33FBEC33FCEB9577F5F0EC9578400634
:090E1500FCABF0438201DADD229E
:200E1E00AD82AE83ED4E700122E4F577F578900001E0F9A3E0FA757901757A00E94A60254C
:200E3E008D008E04C3E998EA9C501A89778A78740229FBE43AFC8B798C7A8B828C83E0F98C
:200E5E00A3E0FA80D7ED24FEFDEE34FFFE74022DFCE43EFF8C828F83E9F0EAA3F0857982BF
:200E7E00857A83EDF0EEA3F08D828E83E0F8A3E0FBE9B50033EAB5032F88828B83A3A3E01E
:200E9E00FAA3E0FB8C828F83EAF0EBA3F08D828E83E0FAA3E0FB8A828B83E0FAA3E0FB8DCD
:200EBE00828E83EAF0EBA3F0E57745786042857782857883E0FAA3E0FBEAB50533EBB5069B
:200EDE002F8D828E83E0FDA3E0FE857782857883EDF0EEA3F074022577FDE43578FE8C823F
:110EFE008F83E0FCA3E0FF8D828E83ECF0EFA3F022D3
:06003500E478FFF6D8FD9F
:200013007900E94400601B7A009011F9780375A004E493F2A308B8000205A0D9F4DAF27583
:02003300A0FF2C
:1B0F0F0020F71130F6138883A88220F509F6A8837583002280FEF280F5F022E1
:200F2A009000017403F07400A3F09011F7E493FE740193FF1EBEFF011FEE2403FEEF340063
:200F4A00FF900003EEF0EFA3F0900001E0FEA3E0FF8E828F83A3A3E4F0A3F022AE82AF8351
:200F6A00900001E0F5F0A3E045F0700BC007C006120F2AD006D007EE4F600E74022EFCE42A
:200F8A003FFDC3EC9EED9F50049000002274022EF56FE43FF570C3E56F9404E570940050B4
:200FAA0006756F04757000900001E0FCA3E0FD7A017B00EC4D70030210858C828D83E0F838
:200FCA00A3E0F9880689078C758D76EEC39575F571EF9576F572C3E571956FE5729570501E
:200FEA000302106E7404256FFEE43570FFC3E5719EE5729F404EE56F2575FEE5703576FFAC
:20100A008E738F74857382857483E8F0E9A3F074022573F8E43574F98C828D83A3A3E0FEAA
:20102A00A3E0FF88828983EEF0EFA3F08A828B83E573F0E574A3F08C828D83E573F0E574A1
:20104A00A3F080148C828D83A3A3E0FEA3E0FF8A828B83EEF0EFA3F074022CFEE43DFF8ED3
:1F106A00828F832274022CFEE43DFF8E028F038E828F83E0FCA3E0FD020FBD90000022D1
:20108900E577457860467A01E57725E0F577E578334012F578E5829577E583957840030ABC
:2010A90080E6C3E57813F578E57713F577C3E5829577F5F0E58395784005F58385F082C33F
:0D10C900E57813F578E57713F577DAE12285
:20003B007800E84400600A790175A000E4F309D8FC7802E84404600C7905900001E4F0A3B8
:04005B00D8FCD9FAFA
:0211F7000004F2
:0D00060075817A1210F2E58260030200039A
:1C10D60020F71430F6148883A88220F507E6A88375830022E280F7E49322E02229
:0410F20075820022E1
:00000001FF
