:03000000020006F5
:1C005F00752130752200752300753900753A00754200E4F543F544F545020003E8
:030003000210EDFB
:20007B00759850758920758DFDD29CD2AFD2ACD28EC29822901E4775F0801213FA901E5C9F
:20009B0075F0801213FAE54260117401B542067E747F1E800A7E787F1E80047E7D7F1E7DF2
:2000BB00808E828F838DF01213FA901E8175F0801213FA901E8475F0801213FA9000217558
:2000DB00F0401213FA901E9B75F0801213FA90000F1215ED7E008E831214E71213FA758204
:2000FB002E1213F19000101215ED7E008E831214E71213FA75822E1213F19000111215ED42
:20011B007E008E831214E71213FA75822E1213F19000121215ED7E008E831214E71213FA5D
:20013B00901EB375F0801213FA9000051215ED7E008E831214E71213FA75822E1213F19010
:20015B0000061215ED7E008E831214E71213FA75822E1213F19000071215ED7E008E831228
:20017B0014E71213FA75822E1213F19000081215ED7E008E831214E71213FA901ECC75F0C9
:20019B00801213FA9000011215ED7E008E831214E71213FA75822E1213F19000021215ED64
:2001BB007E008E831214E71213FA75822E1213F19000031215ED7E008E831214E71213FACC
:2001DB0075822E1213F19000041215ED7E008E831214E71213FA901EE675F0801213FA903E
:2001FB0000091215ED12149A90000A1215ED12149A90000B1215ED12149A90000C1215ED7A
:20021B0012149A90000D1215ED12149A90000E1215ED12149A901EFF75F0800213FAC011AE
:20023B00858111C082C08305810581E5112403F8E4F608F6E51124FDF886027B00E51124E2
:20025B0003F8C3E69A08E664808BF063F08095F0503BE5112403F8E6243AF98703A8110878
:20027B008602088607E5112403F88605088606ED2AFAEE3FFF8A828F83C0031215BE158179
:20029B00E5112403F806B60002080680A7851181D01122C011858111C082C083C0F07C0088
:2002BB00E51124FDF8C3EC96502BEC2423F98703A81108EC26FAE40836FE0886078A828E82
:2002DB00838FF0121D56FAEBB50202800575820080060C80CB758201851181D01122C011A2
:2002FB00E581F5112404F5817410B53902800675820002047AA911097700E904F87600745F
:20031B000229C000F87600D0007F007E05BE10004003020477EE2423FDC000A8058604D010
:20033B00007B008C828B83C007C006C005C001C000121CD1E5828583F0D000D001D005D094
:20035B0006D00745F070030204698E04EC142423FBC000A8038603D0007A008B828A83C0A2
:20037B0007C006C005C004C001C000121CD1E5828583F0D000D001D004D005D006D00745F1
:20039B00F07003020469EC142423FCC000A8048604A704A8058605D000A6057C007D00C31D
:2003BB00EC9402ED64809480506AC000E5112404F8EFC454F0F6EC29F88602D000BA3000EF
:2003DB00401DEA24C64018C000EA24D0FAC000E5112404F88603D000EA2BFFD000802EEC34
:2003FB0029FBC000A8038603D000BB41004019EB24B9401474C92BFBC000E5112404F886CA
:20041B0002D000EB2AFF800575820080520CBC008E0D808B8E047D00EC24FCF582ED34FF6D
:20043B00F583C007C006C001C0007402C0E0E4C0E0121DB7AC8215811581D000D001D006CA
:20045B00D007EC243AC000F8A607D0008005758200800C8E0574022DFE0203287582018545
:20047B001181D01122C011858111058105810581AF827E007D00C3ED9539500DED2423F91E
:20049B008704BC2E010E0D80EDBE0302800675820002057FEF2423F98707BF2E06758200D6
:2004BB0002057F89077E007D407403C0E0741FC0E07480C0E08F828E838DF01218C8AD8232
:2004DB00AE83AFF01581158115818D028E038F04ED4E7005F58202057F7F008A828B838CEA
:2004FB00F0C0071219CDAD82AE83D0078D048E03EC4B601BC0078C068B07C374FF9EE49FE5
:20051B00D007400BEF243AF98C05A7050F8012EC4B7009EF243AF876000F80057582008004
:20053B0043C0077403C0E0741FC0E07480C0E090000075F0001218C8A81108A68208A683B7
:20055B0008A6F0158115811581D007A811088602088603088604A81108E60846600302047F
:20057B00F6758201851181D01122E4C0E09000001215BE158174C3C0E09000161215BE1552
:20059B00817407C0E09000171215BE158174D0C0E09000181215BE15817405C0E0900019B9
:2005BB001215BE1581753A7E753B0A753CC8753DFE7404C0E09000011202391581753AFF5B
:2005DB00753BFF753CC0753D007404C0E09000051202391581753A00753B08753CDC753DF8
:2005FB0024753E4B753F5E7406C0E09000091202391581753A7E753B0A753CD2753D0A747C
:20061B0004C0E090000F12023915817402C0E09004001215BE15817421C0E0900500121583
:20063B00BE1581740AC0E090001A1215BE1581740AC0E090001B1215BE15817413C0E0900D
:20065B0004041215BE15817488C0E09004051215BE15817417C0E09005041215BE15817499
:20067B0070C0E09005051215BE1581227401C0E09004011215BE15819004031215EDAF8217
:20069B00BF2201227410C0E09004011215BE158180DAC011E581F5112404F581AE82AF8370
:2006BB00C2A5900420C007C0061215ED9004211215EDC03A90040C1215BE1581C03B9004F6
:2006DB000D1215BE1581C03C90040E1215BE1581C03D90040F1215BE1581C03E900410128F
:2006FB0015BE1581C03F9004111215BE15819004241215EDAC827D00900425C005C004128C
:20071B0015EDAB82D004D005D006D0077A00A81108EB4DF6EA4C08F6A811088602088603C2
:20073B0053030F8A048B0574402DFDE5112403F8A60408A605EE2AFCEF3BFDC3E49C7410C9
:20075B009D40030207EF901F0575F080C007C006C003C0021213FAD002D003E4C39AFA7488
:20077B00109BFBC003C002E51124FBF8E6C0E008E6C0E008E6C0E0C002C003E5112403F8EA
:20079B0086820886831216CAE58124FBF581D002D003D006D007EEC39AFCEF9BFDC006C092
:2007BB0007E51124FBF8EA26FAEB0836FB088607C007C006C002C003C007C004C005904015
:2007DB00001216CAE58124FBF581D006D007D007D006802FC007C006E51124FBF8E6C0E0E8
:2007FB0008E6C0E008E6C0E0C006C007E5112403F886820886831216CAE58124FBF581D04A
:20081B0006D007A81108EE26FEEF0836FFFDC007C006C0059004241215BE1581D006D007B2
:20083B00C0069004251215BE15817420C0E09004011215BE15819000001215EDE582600BE9
:20085B00901F1175F0801213FA80149004021215EDE58230E309901F2275F0801213FAD251
:20087B00A5851181D01122C011E581F5112411F5819004261215EDAF82900427C00712150E
:20089B00EDAE82D0077D008F047F00EE4207ED4204E5112410F8A60708A6049004281215EC
:2008BB00EDAD827E00900429C006C0051215EDAB82D005D0067A00EE4203ED42028B05746D
:2008DB000F5AFEA81108A60508A606A81108860474600826FFE5112403F8A60408A607A80E
:2008FB001108740826FCE40836FFC3E49C74109F40030209B3C003C002901F3375F080C092
:20091B0006C005C003C0021213FAD002D003D005D006E4C39DFD74109EFEC006C005C0034E
:20093B00C002743AC0E07400C0E07440C0E0C005C006E5112403F88682088683121630E52E
:20095B008124FBF581D002D003D005D0067408C39DFCE49EFF1DBDFF011EED243AFB7D0002
:20097B007E40C007C004C003C002C003C005C006C004C007906000121630E58124FBF58172
:20099B00D002D003D004D007E5112408F8A60408A607D002D0038043C003C002743AC0E038
:2009BB007400C0E07440C0E07408C0E0E4C0E0E5112403F88682088683121630E58124FB09
:2009DB00F581D002D003A81108740826FEE40836FFE5112408F8A60608A607C003C002E57A
:2009FB00112408F8860608860774602FFFE511240AF8A60608A607AD407C00AA417B00E553
:200A1B0011240EF8EA4CF6EB4D08F6E511240EF8E5112403F9E6F708E609F7E5112403F808
:200A3B008682088683C003C002121B2EAC82AD83D002D0038C438D44754500E5112408F82B
:200A5B00E5112410F9E726FC09E70836FDC3E49C74109DD002D0034003020B7DC003C002C9
:200A7B00E5112408F8E4C396FC74100896FDE5112410F88682088683C005C0041214E7AA6E
:200A9B0082AB83C003C0021213FA75820A1213F1D002D003D004D0058C828D83C005C004DB
:200ABB00C0021214E7AB82AE83AFF0D0028B828E838FF0C003C0021213FA75820A1213F125
:200ADB00D002D003D004D005C005C004C003C002C043C044C045C004C005E511240AF88668
:200AFB0082088683121630E58124FBF581D002D003D004D005E511240EF8E511240CF9E682
:200B1B00C39CF708E69D09F7E511240CF88682088683C005C0041214E7AA82AB83C003C02F
:200B3B00021213FAD002D003D004D005EC2543FCED3544FDAF45C003C002C004C005C007AF
:200B5B00E511240CF8E6C0E008E6C0E0906000121630E58124FBF581D002D003D002D003BB
:200B7B00802DC003C002C043C044C045E511240EF8E6C0E008E6C0E0E511240AF8868208BC
:200B9B008683121630E58124FBF581D002D003AD43AE44AF458D828E838FF0121D56B52169
:200BBB00028003020C3F7E007F008E048F05E511240EF8C3EC96ED08965048E5112405F886
:200BDB00EE2543F6EF354408F608A645E5112405F886820886830886F0121D56FDBD610007
:200BFB00401AED24854015ED24E0FDE5112405F886820886830886F0ED121AB50EBE00AAB5
:200C1B000F80A7C003C002C043C044C045E511240EF886820886831206AD15811581158132
:200C3B00D002D003E5112403F8740826FEE40836FFEE2BFBEF3AFAFFC003C002C007900408
:200C5B00281215BE1581D0029004291215BE15817440C0E09004011215BE1581741FC0E035
:200C7B009004021215BE1581AD43AE44AF458D828E838FF012177D851181D011229004027D
:200C9B001215EDE58230E207C2A4120882D2A4227401C0E09005011215BE1581900503123B
:200CBB0015EDAF82BF13028017901F3875F0801213FA7410C0E09005011215BE158180D00B
:200CDB007402C0E09005011215BE15819005031215EDAF82BF1401227410C0E09005011233
:200CFB0015BE158180AA9005021215EDE58220E10B9005021215EDE58230E31B7410C0E0C4
:200D1B009005011215BE1581741FC0E09005021215BE1581020CAB22C011E581F511240422
:200D3B00F581AE82AF83C2A5900520C007C0061215ED9005211215ED9005241215EDAC823E
:200D5B007D00900525C005C0041215EDAB82D004D005D006D0077A00A81108EB4DF6EA4C82
:200D7B0008F6A81108860208860353030F8A048B0574502DFDE5112403F8A60408A605EEAF
:200D9B002AFCEF3BFDC3E49C74109D4003020E2A901F3A75F080C007C006C003C002121305
:200DBB00FAD002D003E4C39AFA74109BFBC003C002C043C044C045C002C003E5112403F8F9
:200DDB0086820886831216CAE58124FBF581D002D003D006D007EEC39AFCEF9BFDC006C04C
:200DFB0007EA2543FAEB3544FBAF45C007C006C002C003C007C004C0059040001216CAE529
:200E1B008124FBF581D006D007D007D0068025C007C006C043C044C045C006C007E5112462
:200E3B0003F886820886831216CAE58124FBF581D006D007A81108EE26FEEF0836FFFDC02D
:200E5B0007C006C0059005241215BE1581D006D007C0069005251215BE15817420C0E09045
:200E7B0005011215BE15819000001215EDE582600B901F1175F0801213FA80149004021260
:200E9B0015EDE58230E309901F2275F0801213FAD2A5851181D01122C011E581F5112406E5
:200EBB00F5819005261215EDAF82900527C0071215EDAE82D0077D008F047F00EE4207ED50
:200EDB004204900528C007C0041215EDAE82D0048E057E00900529C006C005C0041215ED1F
:200EFB00AB82D004D005D006D0077A00E5112403F8EB4EF6EA4D08F6E5112403F8860208BC
:200F1B00860353030F8A058B0674702EFEA81108A60508A6068F828C83C007C004C003C04A
:200F3B0002121B2EAD82AE83D002D003D004D0078D438E44754500EF2AFDEC3BFEC3E49DAE
:200F5B0074109E4003020FE5901F4975F080C007C004C003C0021213FAD002D003E4C39A29
:200F7B00FA74109BFBC003C002C043C044C045C002C003A811088682088683121630E58194
:200F9B0024FBF581D002D003D004D007EFC39AFDEC9BFE1ABAFF011BC007C004EA2543FABD
:200FBB00EB3544FBAF45C007C004C002C003C007C005C006907000121630E58124FBF5810E
:200FDB00D004D007D004D0078023C007C004C043C044C045C007C004A81108868208868301
:200FFB00121630E58124FBF581D004D007E5112403F8EF26FDEC0836FEFBC007C006C0053C
:20101B00C004C0039005281215BE1581D004D005D006C004C0059005291215BE1581744001
:20103B00C0E09005011215BE1581741FC0E09005021215BE1581D004D007AB43AD44AE4522
:20105B008B828D838EF0121D56B5215EE5112405F8E4F608F6E5112405F88602088603C33F
:20107B00EA9FEB9C503DE5112405F8E62543FA08E63544FBAE458A828B838EF0121D56FDEA
:20109B00BD61004011ED2485400CED24E08A828B838EF0121AB5E5112405F806B60002089D
:2010BB000680B28F828C83120D33AD43AE44AF458D828E838FF012177D851181D0112290A6
:2010DB0005021215EDE58230E207C2A4120EB3D2A4229003E81213C612007BC2A112058597
:2010FB00120687E5427005120C9880167401B542081210DA120D018009120C981210DA1271
:20111B000D0112156EAF82BF30004005EF24C65026BF61004005EF2485501CBF41004005AF
:20113B00EF24A55012BF2002800DBF2E028008BF3F028003BF3D1874EB25394012E53924AD
:20115B0023F8A60705398F82C0071213F1D007BF0823E539601FE5392423F876001539758C
:20117B008208C0071213F17582201213F17582081213F1D007BF0D0280030210FEE53970E5
:20119B00030210FEE5392423F87600901F5275F0801213FA90002375F0401213FA901F59CA
:2011BB0075F0801213FA7401B5390B743FB5230612008F0213A47403C0E0901F5E75F080AE
:2011DB001202AEAF821581EF6019758203120480E582600F7404C0E090000F120239158103
:2011FB000213A47404C0E0901F6275F0801202AEAF821581EF601C7405B53917AF27BF30D6
:20121B000050030213A4EF24C650030213A48F210213A47404C0E0901F6775F0801202AE84
:20123B00AF821581EF6019758204120480E582600F7404C0E090000512023915810213A4B4
:20125B007404C0E0901F6C75F0801202AEAF821581EF60161202F9E582600F7406C0E090E0
:20127B00000912023915810213A47405C0E0901F7175F0801202AEAF821581EF60197582A8
:20129B0005120480E582600F7404C0E090000112023915810213A47405C0E0901F7775F0D9
:2012BB00801202AEAF821581EF60257408B53920AF28BF540C7443B529077450B52A028055
:2012DB0041BF550C7444B529077450B52A0280327409B53902800302139B7442B5280280E9
:2012FB000302139B744FB52902800302139B7454B52A02800302139B7448B52B028003024B
:20131B00139BAF28BF422C7542027410C0E09004011215BE15817410C0E09005011215BE74
:20133B001581120687120CAB901F7D75F0801213FA8056BF54247401B54202801D75420194
:20135B007410C0E09004011215BE1581120CAB901F9775F0801213FA802F7455B5282AE5C7
:20137B004260267542007410C0E09005011215BE1581120687901FA875F0801213FA80091B
:20139B00901FB975F0801213FA7E007F00C3EE9416EF64809480500DEE2423F876000EBEBB
:0B13BB0000EB0F80E87539000210FE07
:201E28005254553D0049503D005355423D00474154453D004D41433D004D4F44453D000A8D
:201E48000D57697A4E657420416461707465723A0D0A0A00536574204D4F44453E202E20B3
:201E68002E202E202E204D4F44453D0054435000424F544800554450000D0A0053657420AE
:201E88005254552028302D39293E20202E205254553D000D0A5365742049503E202E202E5E
:201EA800202E202E202E2049503D000D0A536574205355424E45543E202E202E202E20536B
:201EC80055423D000D0A53657420474154453E202E202E202E202E20474154453D000D0A97
:201EE800536574204D41433E20202E202E202E202E204D41433D000A0D0A002E000920750C
:201F080064707478200D0A000053656E6420636F6D706C6574650D0A00000D0A53656E6407
:201F2800206661696C65640D0A000075647031007A0009206F766572666C6F77200D0A0035
:201F4800004F766572666C6F77000D0A434F4D3E000D0A0D0A0049503D005254553D005362
:201F680055423D004D41433D00474154453D004D4F44453D005544502F5443503A353030E9
:201F8800302F36303030204F50454E0D0A00005443503A36303030204F50454E0D0A00005B
:201FA8005544503A35303030204F50454E0D0A0000496E76616C69642C20747279203C3FBB
:061FC8003E0D0A0D0A00A7
:2013C600AE82AF83EE4F6012EE24FFFCEF34FFFDEC24FFFEED34FFFF80EA22758CFF758A13
:2013E600F6D28C308DFDC28CC28D2285829910990280FB22AD82AE83AFF08D828E838FF094
:20140600121D56FC600C8C990DBD00010E1099EA80FB22C011858111058105810581AF8200
:20142600E51124FBF88604088605088606EFC4540FFB53030F7A00EB24CEF582EA341FF572
:2014460083E4938C828D838EF0121AB5A8110874012CF6E43D08F608A6068F0353030F7F6E
:2014660000EB24CEF582EF341FF583E493FFA8110886820886830886F0EF121AB574022C18
:20148600FCE43DFD8C828D838EF0E4121AB5851181D01122C011858111058105810581AF88
:2014A60082A911097700E904F87600740229F8760089067D007C40C001C006C005C0048F9B
:2014C60082121419158115811581D00189077E007D408F828E838DF01213FA851181D01131
:2014E60022C011858111058105810581AE82AF83A81108760D087600087640A8110816B6DB
:20150600FF0208168E048F03C004C003740AC0E0E4C0E08C828B83121D72AF82158115813F
:20152600D003D0048F0574302DFDA8110886820886830886F0ED121AB5740AC0E0E4C0E0D4
:201546008C828B8312174CAC82AD83158115818C068D07EC4D70A4A8110886820886830815
:1515660086F0851181D0112210980280048599822275820022D7
:111FCE00303132333435363738394142434445460060
:20157B00AE82AF837D00BD10005017EF30E704D2A38002C2A3D2A1EE2EFEEF33FFC2A10DB9
:20159B0080E422AF827E00BE08005016EF30E704D2A38002C2A3D2A18F05ED2DFFC2A10ED8
:2015BB0080E522C011858111AE82AF83C2A07582F0C007C00612159ED006D0078E828F83D5
:2015DB0012157BE51124FDF8868212159ED2A0D01122AE82AF83C2A07D0075820FC007C02F
:2015FB0006C00512159ED005D006D0078E828F83C00512157BD0057F00BF08005012D2A145
:20161B008D06EE2EFEA2A2E4334EFDC2A10F80E9D2A08D8222C011858111C082C083E5810B
:20163B002404F581E5112405F8E4F608F6E5112405F88602088603E51124FCF8C3EA96EB96
:20165B0008965065E51124F9F8E5112405F9E726FA09E70836FB088607A81108E511240356
:20167B00F9E6F708E609F7E5112405F88604088606E5112403F8EC26FCEE0836FE8C828E6D
:20169B0083C007C003C0021215EDAE82D002D003D0078A828B838FF0EE121AB5E511240519
:2016BB00F806B6000208068084851181D01122C011858111C082C08305810581E511240397
:2016DB00F8E4F608F6E5112403F88602088603E51124FCF8C3EA96EB0896504FE51124F965
:2016FB00F8E5112403F9E726FA09E70836FB0886078A828B838FF0121D56FAA81108860697
:20171B00088607E5112403F88603088605EB2EFEED3FFFC0028E828F831215BE1581E51151
:11173B002403F806B600020806809A851181D011227E
:20174C00E58124FEF8E6F918E6F87A10E4FBFCE58225E0F582E58333F583EB33FBEC33FC99
:11176C00EB98F5F0EC994006FCABF0438201DADF2201
:20177D00C011858111C082C083C0F0E5812404F581A81108E6084670030218C2E5112406C7
:20179D00F8E4F608F6900001E0FAA3E0FF7D017E00EA4F6037C005C006A81108860508863E
:2017BD0006C3EA9DEF9ED006D0055020E5112406F8A60208A60774022AFBE43FFC8B058CC9
:2017DD00068B828C83E0FAA3E0FF80C5A811088603088604EB24FEFBEC34FFFCE51124040C
:2017FD00F874022BF6E43C08F6E5112404F88682088683EAF0EFA3F08D828E83EBF0ECA30A
:20181D00F08B828C83E0FDA3E0FEEAB50539EFB506358D828E83A3A3E0FEA3E0FFE51124A5
:20183D0004F88682088683EEF0EFA3F08B828C83E0FEA3E0FF8E828F83E0FEA3E0FF8B820B
:20185D008C83EEF0EFA3F0E5112406F8E608466054E5112406F88682088683E0FEA3E0FF6B
:20187D00EEB50341EFB5043D8B828C83E0FBA3E0FCE5112406F88682088683EBF0ECA3F07E
:20189D00E5112406F8740226FEE40836FFE5112404F88682088683E0FCA3E0FD8E828F83AB
:0B18BD00ECF0EDA3F0851181D01122AA
:2018C800C011858111AD82AE83AFF0ED4E60068D0E8E0F8F10E50E450F7008900000F5F06D
:2018E8000219CAAD0EAE0FAF108D828E838FF0121D566036AD0EAE0FAF108D828E838FF034
:20190800121D56FDC005E51124FBF886820886830886F0121D09AD82AE831581ED4E600A01
:20192800050EE4B50EBD050F80B9AD0EAE0FAF10AA0EAB0FAC108A828B838CF0121D5660FB
:2019480061AA0EAB0FAC108A828B838CF0121D56FAC007C006C005C002E51124FBF88682B2
:201968000886830886F0121D09AA82AB831581D005D006D007EA4B601FAA0EAB0FAC108ABA
:20198800828B838CF0E4121AB5050EB50E02050F8D828E838FF0802A050EE4B50E92050FD9
:2019A800808EE4F50EF50FF5108D828E838FF0121D5660088D828E838FF08006900000756B
:0519C800F000D0112227
:06003500E478FFF6D8FD9F
:2019CD00C011E581F5112406F581AD82AE83AFF07B007C008D828E838FF0121D56FABA202F
:2019ED00028003BA09070DBD00EA0E80E7A81108A60508A60608A6078D828E838FF0121DBF
:201A0D0056FFBF2D03D38001C39200BF2D028003BF2B09A8110806B600020806A81108E535
:201A2D00112404F9E6F708E609F708E609F7E5112404F886820886830886F0121D56FABAC8
:201A4D00300092014048EA24C692014041C020C003C00490000A121AD0AA82AF8315811540
:201A6D0081D020E5112404F886820886830886F0121D56FEA31818A68208A6837D00EE24FD
:201A8D00D0FEED34FFFDEE2AFBED3FFC80A0300009C3E49BFEE49CFF80048B068C078E8243
:081AAD008F83851181D0112205
:200013007900E94400601B7A00901FE1780375A004E493F2A308B8000205A0D9F4DAF2758D
:02003300A0FF2C
:1B1AB50020F71130F6138883A88220F509F6A8837583002280FEF280F5F02230
:201AD00074FE2581F8E68582F0A4C0E08582F018E6A4F582D0E025F0C58386F0A42583F5F1
:021AF00083224F
:201AF2009000017403F07400A3F0901FDFE493FE740193FF1EBEFF011FEE2403FEEF34009A
:201B1200FF900003EEF0EFA3F0900001E0FEA3E0FF8E828F83A3A3E4F0A3F022C011E581A8
:201B3200F5112408F581AE82AF83900001E0F5F0A3E045F0700BC007C006121AF2D006D0AF
:201B520007EE4F600E74022EFCE43FFDC3EC9EED9F5006900000021CCB74022EFDE43FFC99
:201B7200C3ED9404EC940050047D047C00900001E5112405F8E0F6A3E008F67A017B00E560
:201B9200112405F8E608467003021CC8C002C003E5112405F88682088683A91109E0F7A382
:201BB200E009F7A811088602088603E5112405F8E5112403F9E6F708E609F7E5112403F84C
:201BD200EAC396FAEB0896FB8A078B06C3EF9DEE9CD003D0025003021CA5C002C00374047F
:201BF2002DFAE43CFBC3EF9AEE9BD003D0024076E5112403F8ED26FEEC0836FFE5112407F1
:201C1200F8A60608A607E5112407F88682088683A91109E7F009E7A3F0E5112407F874027B
:201C320026FEE40836FFE5112405F88682088683A3A3E0FCA3E0FD8E828F83ECF0EDA3F0FD
:201C52008A828B83E5112407F8E6F008E6A3F0E5112405F88682088683E5112407F9E7F0C7
:201C720009E7A3F0801AE5112405F88682088683A3A3E0FEA3E0FF8A828B83EEF0EFA3F0E5
:201C9200E5112405F8740226FEE40836FF8E828F838026E5112405F8740226FEE40836FFC6
:1F1CB2008E028F038E828F83E5112405F8E0F6A3E008F6021B91900000851181D0112209
:201CD100AE82AF83C007C006121DF4E5828583F0D006D00745F07012BE300092004007EE69
:181CF10024C692005004C2008002D200A200E433FE7F008E828F83227B
:20003B007800E84400600A790175A000E4F309D8FC7802E84404600C7905900001E4F0A3B8
:04005B00D8FCD9FAFA
:201D0900C011858111AD82AE83AFF08D828E838FF0121D56FC6012E51124FDF8E6B5040291
:201D290080070DBD00E50E80E28D828E838FF0121D56FCE51124FDF8E6B504088D828E83FE
:0D1D49008FF0800690000075F000D0112290
:021FDF000004FC
:0D000600758145121E24E58260030200038F
:1C1D560020F71430F6148883A88220F507E6A88375830022E280F7E49322E0229C
:201D7200E58124FEF88601188600E84960367A01E825E0F8E933400EF9E58298E5839940E2
:201D9200030A80ECC3E913F9E813F8C3E58298F5F0E583994005F58385F082C3E913F9E811
:051DB20013F8DAE7223E
:201DB700C2D5E58330E70DD2D5E4C39582F582E49583F583E58124FEF8E630E70AB2D51873
:1D1DD700E4C396F6E40896F918E6F812175630D50BE4C39582F582E49583F58322F1
:201DF400AE82BE410092004007EE24A592005012BE610092004007EE248592005004C200E5
:101E14008002D200A200E433FE7F008E828F8322F0
:041E240075820022A1
:00000001FF
