:03000000020006F5
:08005F00E4F508F509020003B5
:0300030002028274
:20006700759850758920758DFDD29CD2AFD2ACD28E2285829910990280FB22AD82AE83AF19
:20008700F08D828E838FF012028FFC60188C820DBD00010EC007C006C005120079D005D04A
:2000A70006D00780DC2210980280FBAF998F82C007120079D0078F8222AE82AF83C2837DE0
:2000C700F07C00BC08005016ED30E704D2808002C280D2828D03EB2BFDC2820C80E57D003C
:2000E700BD10005017EF30E704D2808002C280D282EE2EFEEF33FFC2820D80E47F00BF081B
:20010700005018E51830E704D2808002C280D282E51825E0F518C2820F80E3D28322AE8282
:20012700AF83C2837D0F7C007B00BB08005016ED30E704D2808002C280D2828D02EA2AFD83
:20014700C2820B80E57D00BD10005017EF30E704D2808002C280D282EE2EFEEF33FFC28240
:200167000D80E47F00BF080050128C06EE2EFED282A281E4334EFCC2820F80E9D2838C82BC
:20018700228582189000011200C0850A189000021200C0850B189000031200C0850C189063
:2001A70000040200C08582189000051200C0850D189000061200C0850E189000071200C0C6
:2001C700850F189000080200C08582189000091200C085101890000A1200C0851118900031
:2001E7000B1200C085121890000C1200C085131890000D1200C085141890000E0200C08549
:20020700821890000F1200C08515189000101200C08516189000111200C08517189000122C
:200227000200C07518029004001200C0C2827518019005001200C0C282750A0A750BDC7529
:200247000CFE75827E120188C282900001120125C282900002120125C28290000312012553
:20026700C282900004120125C28222AE82AF83EE4F60071EBEFF011F80F5229003E81202DA
:0802870072C28212022A80FEFD
:06003500E478FFF6D8FD9F
:200013007900E94400601B7A009002AF780175A000E493F2A308B8000205A0D9F4DAF275E2
:02003300A0FF2C
:20003B007800E84400600A790175A000E4F309D8FC7800E84400600C7900900001E4F0A3C3
:04005B00D8FCD9FAFA
:0D0006007581181202ABE582600302000351
:1C028F0020F71430F6148883A88220F507E6A88375830022E280F7E49322E0227E
:0402AB007582002236
:00000001FF
