:03000000020006F5
:06005F00750830020003E9
:0300030002076A87
:20006500120C197E008E83120B70020B33120C19AF82850982850A83C007120C19AE82D060
:20008500077D008F047F00EE4207ED42048F828C83120B70020B33754200900000120BF515
:2000A5007542C3900016120BF5754207900017120BF57542D0900018120BF5754205900005
:2000C50019120BF575427E900001120BF575420A900002120BF57542DC900003120BF57506
:2000E50042FE900004120BF57542FF900005120BF57542FF900006120BF57542C09000074C
:20010500120BF5754200900008120BF5754200900009120BF575420890000A120BF57542E3
:20012500DC90000B120BF575422490000C120BF575424B90000D120BF575425E90000E1232
:200145000BF575427E90000F120BF575420A900010120BF57542D2900011120BF575420A44
:20016500900012120BF5754202900400120BF575420A90001A120BF575420A90001B120B61
:20018500F5754213900404120BF5754288900405020BF5754201900401120BF5900403120F
:2001A5000C19AF82BF2202800B754210900401120BF580DF9010ED75F080020B45AF829024
:2001C5000420C007120C19900421120C19D0078F4290040C120BF5850B4290040D120BF52D
:2001E500850C4290040E120BF5850D4290040F120BF5850F42900410120BF5850E429004F5
:2002050011120BF5900424120C19AE827F00900425C007C006120C19AD82D006D0077C0043
:20022500ED4207EC42068F048E0553050F8C028D0374402BFBE5102CF8E5113DF9C3E49846
:20024500741099506590110A75F080C007C006C005C004C003C002120B45D002D003D004C1
:20026500D005E4C39CFC74109DFD8C688D6985126A85136B85146C8A828B83C005C004129F
:200285000D9BD004D005E510C39CF568E5119DF569EC2512F56AED3513F56B85146C90407A
:2002A50000120D9BD006D007801E85106885116985126A85136B85146C8A828B83C007C08E
:2002C50006120D9BD006D007E5102FFFE5113EFE8E42900424C007C006120BF5D006D00783
:2002E5008F42900425120BF5754220900401120BF5900000120C19E582600990111775F02B
:2003050080020B45900402120C19E58230E30990112675F080020B452290113475F08012CA
:200325000B45751F00752000752100752200752300752400752500752600900426120C19BB
:20034500AF82900427C007120C19AE82D0077D008F047F00EE4207ED42048F1D8C1E9004C4
:2003650028120C19AD827E00900429C006C005120C19AB82D005D0067A00EE4203ED420237
:200385008B05740F5AFE8D2C8E2DAC2C7460252DFF8C2E8F2F7408252CFCE4352DFFC3E44F
:2003A5009C74109F400302042E90114975F080C006C005C003C002120B45D002D003D00547
:2003C500D006E4C39DFD74109EFE75611F7562007563408D5F8E60852E82852F83C006C031
:2003E50005C003C002120D3FD002D003D005D0067408C39DFCE49EFF1DBDFF011EED241F3F
:20040500FD8D617562007563408C5F8F60906000C007C004C003C002120D3FD002D003D050
:2004250004D0078C158F16802D75611F756200756340755F08756000852E82852F83C00325
:20044500C002120D3FD002D0037408252CFCE4352DFD8C158D16AC15AD1674602DFD8C175D
:200465008D18AD237C00AE247F00EE4CF519EF4DF51AAD257C00E5264CF51BEF4DF51C9010
:20048500116B75F080C003C002120B45D002D0037C007D00C3EC9404ED648094805047ECC2
:2004A500241FF987077E008F828E83C005C004C003C002120B70D002D003D004D005C3EC35
:2004C5009403ED64809480501675822EC005C004C003C002120B2AD002D003D004D0050C61
:2004E500BC00B10D80AE90117775F080C003C002120B45851982851A83120B709011867500
:20050500F080120B45851D82851E83120B70120B33851B2E851C2F852E82852F83120F5D55
:20052500AC82AD83D002D0038C278D28752900E51D2515FEE51E3516FFC3E49E74109F506E
:200545006C90119175F080C003C002120B45D002D003E4C39515FE74109516FF8E5F8F602E
:20056500852761852862852963851782851883C007C006C003C002120D3FD002D003D00620
:20058500D007E51BC39EF55FE51C9FF560EE2527F561EF3528F56285296385178285188353
:2005A500C003C002120D3FD002D0038020851B5F851C60852761852862852963851782853E
:2005C5001883C003C002120D3FD002D0039011B175F080C003C002120B45D002D003852784
:2005E500828528838529F01210CDB5080280030206B7E4F52AF52BAC2AAD2BC3EC951BED99
:20060500951C4003020689E52A2527F530E52B3528F5318529328530828531838532F01234
:2006250010CDFDBD6100402FED2485402AED24E08530828531838532F0120F068530828563
:2006450031838532F01210CDF582C003C002120B2AD002D0038022E52A2527FCE52B3528FD
:20066500FDAF298C828D838FF01210CDF582C003C002120B2AD002D003052AE4B52A020533
:200685002B0205FC851F8285200B85210C85220D85190E851A0F851B10851C1185271285EC
:2006A5002813852914C003C0021201C2D002D00380359011BC75F080C003C002120B4585D6
:2006C5001F8285200B85210C85220D7512BC75131175148085190E851A0F75101D751100F7
:2006E5001201C2D002D003C003C002120B339011DA75F080120B45D002D0037408252EFE72
:20070500E4352FFFEE2BFBEF3AFA8A42900428C003C002120BF5D002D0038B4290042912F6
:200725000BF5754240900401120BF57542FF900402120BF5AC27AD28AF298C828D838FF09B
:20074500020E15900402120C19E58230E20302031E22759850758920758DFDD29CD2AFD2A6
:1B076500ACD28E22229003E8120780120757C2A112009C12019812074880FB0D
:2010ED0055445020536F636B6574203020706F72742035303030206F70656E0A0009206FE3
:20110D00766572666C6F77200A0053656E6420636F6D706C6574650A000A53656E6420666C
:20112D0061696C65640A00554450205061636B65742052656365697665640A000A554450F4
:20114D0020525820486561646572204F766572666C6F772044657465637465640A005365D7
:20116D006E6465722049503A20000953656E64657220506F72743A20000952582053697A14
:20118D00653A20000A5544502052582044415441204F766572666C6F77204465746563749F
:2011AD0065640A00524553504F4E53453A2000496E636F727265637420666F726D61742014
:2011CD006F722077726F6E6720525455002D2D2D2D2D2D2D2D2D2D2D2D2D2D2D2D2D2D0A85
:0111ED000001
:20078000AE82AF83EE4F60071EBEFF011F80F522758CFF758AF6D28C308DFDC28CC28D22F5
:2007A000AE82AF838E048F05C3EC9410ED942750030208DB853336853437853538757710B2
:2007C0007578278C828D83C005C004120DECA882D004D0057430288536828537838538F08B
:2007E000120F0674012536F539E43537F53A85383B7577E87578038C828D83C005C00412E0
:200800000DEC75770A757800121080A882D004D005743028853982853A83853BF0120F0662
:2008200074022536F539E43537F53A85383B7577647578008C828D83C005C004120DEC75DE
:20084000770A757800121080A882D004D005743028853982853A83853BF0120F06740325F4
:2008600036F539E43537F53A85383B75770A7578008C828D83C005C004120DEC75770A759D
:200880007800121080A882D004D005743028853982853A83853BF0120F0674042536F53945
:2008A000E43537F53A85383B75770A7578008C828D83121080A882743028853982853A83A6
:2008C000853BF0120F0674052536F9E43537FAAB3889828A838BF0E4020F06C3EC94E8EDA1
:2008E000940350030209D185333985343A85353B7577E87578038C828D83C005C004120DCF
:20090000ECA882D004D005743028853982853A83853BF0120F0674012539F536E4353AF5AD
:2009200037853B387577647578008C828D83C005C004120DEC75770A757800121080A882EA
:20094000D004D0057430288536828537838538F0120F0674022539F536E4353AF537853B94
:200960003875770A7578008C828D83C005C004120DEC75770A757800121080A882D004D057
:20098000057430288536828537838538F0120F0674032539F536E4353AF537853B387577D3
:2009A0000A7578008C828D83121080A8827430288536828537838538F0120F067404253964
:2009C000F9E4353AFAAB3B89828A838BF0E4020F06C3EC9464ED94005003020A8A8533395B
:2009E00085343A85353B7577647578008C828D83C005C004120DECA882D004D00574302881
:200A0000853982853A83853BF0120F0674012539F536E4353AF537853B3875770A75780025
:200A20008C828D83C005C004120DEC75770A757800121080A882D004D005743028853682A3
:200A40008537838538F0120F0674022539F536E4353AF537853B3875770A7578008C828D8F
:200A600083121080A8827430288536828537838538F0120F0674032539F9E4353AFAAB3B0A
:200A800089828A838BF0E4020F06C3EC940AED9400407685333985343A85353B75770A7500
:200AA00078008C828D83C005C004120DECA882D004D005743028853982853A83853BF01229
:200AC0000F0674012539F9E4353AFAAB3B75770A7578008C828D83C003C002C00112108019
:200AE000AC82D001D002D00374302C89828A838BF0120F0674022539FBE4353AFCAD3B8B37
:200B0000828C838DF0E4020F06AB33AC34AD3574302E8B828C838DF0120F060BBB00010CC7
:200B20008B828C838DF0E4020F0685829910990280FB2275990A10990280FB2275990910B2
:200B4000990280FB22AD82AE83AFF08D828E838FF01210CDFC60188C820DBD00010EC007AE
:200B6000C006C005120B2AD005D006D00780DC22AE82AF83753C00753D00753E00753F0077
:200B800075400075410075333C7534007535408E828F831207A090003C75F040020B4510C5
:120BA000980280FBAF998F82C007120B2AD0078F8222BD
:200BB200AE82AF837D00BD10005017EF30E704D2A38002C2A3D2A1EE2EFEEF33FFC2A10D8C
:200BD20080E422AF827E00BE08005016EF30E704D2A38002C2A3D2A18F05ED2DFFC2A10EAB
:200BF20080E522AE82AF83C2A07582F0C007C006120BD5D006D0078E828F83120BB28542CD
:200C120082120BD5D2A022AE82AF83C2A07D0075820FC007C006C005120BD5D005D006D0B4
:200C3200078E828F83C005120BB2D0057F00BF08005012D2A18D06EE2EFEA2A2E4334EFDA2
:200C5200C2A10F80E9D2A08D822275437A75442E75457A75462E75477A75482E75497A7500
:200C72004A0090000F120C19E582F543900010120C19E582F545900011120C19E582F547B0
:200C9200900012120C19E582F54922754B7A754C2E754D7A754E2E754F7A75502E75517ADB
:200CB200755200900005120C19E582F54B900006120C19E582F54D900007120C19E582F548
:200CD2004F900008120C19E582F5512275537A75542E75557A75562E75577A75582E755990
:200CF2007A755A2E755B7A755C2E755D7A755E00900009120C19E582F55390000A120C19B3
:200D1200E582F55590000B120C19E582F55790000C120C19E582F55990000D120C19E582C8
:200D3200F55B90000E120C19E582F55D22858264858365E4F566F567AA66AB67C3EA955F6B
:200D5200EB95605043E5662561F9E5673562FAAB63A864AF65AD66AE67ED28F8EE3FFF8850
:200D7200828F83C003C002C001120C19AF82D001D002D00389828A838BF0EF120F06056695
:200D9200E4B566B4056780B02285826D85836E7C007D008C028D03C3EA9568EB95695039B3
:200DB200AA6DAB6E8C008D01E82AFAE93BFBEC256AF8ED356BF9AF6C888289838FF01210E1
:1A0DD200CDF5428A828B83C005C004120BF5D004D0050CBC00BD0D80BA22B7
:200DEC007A10E4FBFCE58225E0F582E58333F583EB33FBEC33FCEB9577F5F0EC957840063D
:090E0C00FCABF0438201DADD22A7
:200E1500AD82AE83ED4E700122E4F577F578900001E0F9A3E0FA757901757A00E94A602555
:200E35008D008E04C3E998EA9C501A89778A78740229FBE43AFC8B798C7A8B828C83E0F995
:200E5500A3E0FA80D7ED24FEFDEE34FFFE74022DFCE43EFF8C828F83E9F0EAA3F0857982C8
:200E7500857A83EDF0EEA3F08D828E83E0F8A3E0FBE9B50033EAB5032F88828B83A3A3E027
:200E9500FAA3E0FB8C828F83EAF0EBA3F08D828E83E0FAA3E0FB8A828B83E0FAA3E0FB8DD6
:200EB500828E83EAF0EBA3F0E57745786042857782857883E0FAA3E0FBEAB50533EBB506A4
:200ED5002F8D828E83E0FDA3E0FE857782857883EDF0EEA3F074022577FDE43578FE8C8248
:110EF5008F83E0FCA3E0FF8D828E83ECF0EFA3F022DC
:06003500E478FFF6D8FD9F
:200013007900E94400601B7A009011F0780375A004E493F2A308B8000205A0D9F4DAF2758C
:02003300A0FF2C
:1B0F060020F71130F6138883A88220F509F6A8837583002280FEF280F5F022EA
:200F21009000017403F07400A3F09011EEE493FE740193FF1EBEFF011FEE2403FEEF340075
:200F4100FF900003EEF0EFA3F0900001E0FEA3E0FF8E828F83A3A3E4F0A3F022AE82AF835A
:200F6100900001E0F5F0A3E045F0700BC007C006120F21D006D007EE4F600E74022EFCE43C
:200F81003FFDC3EC9EED9F50049000002274022EF56FE43FF570C3E56F9404E570940050BD
:200FA10006756F04757000900001E0FCA3E0FD7A017B00EC4D700302107C8C828D83E0F84A
:200FC100A3E0F9880689078C758D76EEC39575F571EF9576F572C3E571956FE57295705027
:200FE100030210657404256FFEE43570FFC3E5719EE5729F404EE56F2575FEE5703576FFBE
:201001008E738F74857382857483E8F0E9A3F074022573F8E43574F98C828D83A3A3E0FEB3
:20102100A3E0FF88828983EEF0EFA3F08A828B83E573F0E574A3F08C828D83E573F0E574AA
:20104100A3F080148C828D83A3A3E0FEA3E0FF8A828B83EEF0EFA3F074022CFEE43DFF8EDC
:1F106100828F832274022CFEE43DFF8E028F038E828F83E0FCA3E0FD020FB490000022E3
:20108000E577457860467A01E57725E0F577E578334012F578E5829577E583957840030AC5
:2010A00080E6C3E57813F578E57713F577C3E5829577F5F0E58395784005F58385F082C348
:0D10C000E57813F578E57713F577DAE1228E
:20003B007800E84400600A790175A000E4F309D8FC7802E84404600C7905900001E4F0A3B8
:04005B00D8FCD9FAFA
:0211EE000004FB
:0D00060075817A1210E9E5826003020003A3
:1C10CD0020F71430F6148883A88220F507E6A88375830022E280F7E49322E02232
:0410E90075820022EA
:00000001FF
