:03000000020006F5
:08005F00E4F508F509020003B5
:0300030002039F56
:20006700AE82AF83EE4F60071EBEFF011F80F522758CFF758AF6D28C308DFDC28CC28D2215
:2000870085829910990280FB22AD82AE83AFF08D828E838FF01203B5FC60188C820DBD00BD
:2000A700010EC007C006C005120087D005D006D00780DC2210980280FBAF998F82C00712E8
:2000C7000087D0078F8222AE82AF837D00BD10005017EF30E704D2808002C280D282EE2EE5
:2000E700FEEF33FFC2820D80E422AF827E00BE08005016EF30E704D2808002C280D2828F25
:2001070005ED2DFFC2820E80E522AE82AF83C2837582F0C007C0061200F1D006D0078E8206
:200127008F831200CE850A821200F1D28322AE82AF83C2837D0075820FC007C006C00512AD
:2001470000F1D005D006D0078E828F83C0051200CED0057F00BF08005012D282A281E43353
:20016700FEED4206C282EE2EFD0F80E9D2838D822285820A900001120111850B0A900002F8
:20018700120111850C0A900003120111850D0A900004020111750E7A750F2E75107A75116A
:2001A7002E75127A75132E75147A751500900001120135E582F50E900002120135E582F54D
:2001C70010900003120135E582F512900004120135E582F5142275167A75172E75187A7516
:2001E700192E751A7A751B2E751C7A751D0090000F120135E582F516900010120135E582A5
:20020700F518900011120135E582F51A900012120135E582F51C22751E7A751F2E75207A09
:2002270075212E75227A75232E75247A752500900005120135E582F51E900006120135E555
:2002470082F520900007120135E582F522900008120135E582F5242275267A75272E7528A5
:200267007A75292E752A7A752B2E752C7A752D2E752E7A752F2E75307A7531009000091200
:200287000135E582F52690000A120135E582F52890000B120135E582F52A90000C120135EC
:2002A700E582F52C90000D120135E582F52E90000E120135E582F5302285820A90000512F4
:2002C700011185320A90000612011185330A90000712011185340A90000802011185820A8D
:2002E70090000912011185350A90000A12011185360A90000B12011185370A90000C1201BF
:200307001185380A90000D12011185390A90000E02011185820A90000F120111853A0A9096
:200327000010120111853B0A900011120111853C0A900012020111E582FF7012853D0A902E
:200347000404120111853E0A900405020111BF0112853D0A900504120111853E0A9005052E
:2003670002011122750A80900000120111750AC3900016120111750B0A750CDC750DFE75A5
:20038700827E12017802019C759850758921758DFDD29CD2AFD2AC229003E8120067120319
:0E03A7008FC2829003E812006712036B80FE83
:06003500E478FFF6D8FD9F
:200013007900E94400601B7A009003D5780175A000E493F2A308B8000205A0D9F4DAF275BB
:02003300A0FF2C
:20003B007800E84400600A790175A000E4F309D8FC7800E84400600C7900900001E4F0A3C3
:04005B00D8FCD9FAFA
:0D00060075813E1203D1E582600302000304
:1C03B50020F71430F6148883A88220F507E6A88375830022E280F7E49322E02257
:0403D100758200220F
:00000001FF
