:03000000020006F5
:1C005F00752130752200752300753900753A00754200E4F543F544F545020003E8
:030003000210F0F8
:20007B00759850758920758DFDD29CD2AFD2ACD28EC29822901E4E75F080121401901E6389
:20009B0075F080121401E54260117401B542067E7B7F1E800A7E7F7F1E80047E847F1E7DD5
:2000BB00808E828F838DF0121401901E8875F080121401901E8B75F0801214019000217532
:2000DB00F040121401901EA275F08012140190000F1215F47E008E831214EE1214017582D7
:2000FB002E1213F89000101215F47E008E831214EE12140175822E1213F89000111215F417
:20011B007E008E831214EE12140175822E1213F89000121215F47E008E831214EE12140131
:20013B00901EBA75F0801214019000051215F47E008E831214EE12140175822E1213F890E4
:20015B0000061215F47E008E831214EE12140175822E1213F89000071215F47E008E831204
:20017B0014EE12140175822E1213F89000081215F47E008E831214EE121401901ED375F096
:20019B00801214019000011215F47E008E831214EE12140175822E1213F89000021215F438
:2001BB007E008E831214EE12140175822E1213F89000031215F47E008E831214EE121401A0
:2001DB0075822E1213F89000041215F47E008E831214EE121401901EED75F0801214019012
:2001FB0000091215F41214A190000A1215F41214A190000B1215F41214A190000C1215F449
:20021B001214A190000D1215F41214A190000E1215F41214A1901F0675F080021401C0117B
:20023B00858111C082C08305810581E5112403F8E4F608F6E51124FDF886027B00E51124E2
:20025B0003F8C3E69A08E664808BF063F08095F0503BE5112403F8E6243AF98703A8110878
:20027B008602088607E5112403F88605088606ED2AFAEE3FFF8A828F83C0031215C5158172
:20029B00E5112403F806B60002080680A7851181D01122C011858111C082C083C0F07C0088
:2002BB00E51124FDF8C3EC96502BEC2423F98703A81108EC26FAE40836FE0886078A828E82
:2002DB00838FF0121D5DFAEBB50202800575820080060C80CB758201851181D01122C0119B
:2002FB00E581F5112404F5817410B53902800675820002047AA911097700E904F87600745F
:20031B000229C000F87600D0007F007E05BE10004003020477EE2423FDC000A8058604D010
:20033B00007B008C828B83C007C006C005C001C000121CD8E5828583F0D000D001D005D08D
:20035B0006D00745F070030204698E04EC142423FBC000A8038603D0007A008B828A83C0A2
:20037B0007C006C005C004C001C000121CD8E5828583F0D000D001D004D005D006D00745EA
:20039B00F07003020469EC142423FCC000A8048604A704A8058605D000A6057C007D00C31D
:2003BB00EC9402ED64809480506AC000E5112404F8EFC454F0F6EC29F88602D000BA3000EF
:2003DB00401DEA24C64018C000EA24D0FAC000E5112404F88603D000EA2BFFD000802EEC34
:2003FB0029FBC000A8038603D000BB41004019EB24B9401474C92BFBC000E5112404F886CA
:20041B0002D000EB2AFF800575820080520CBC008E0D808B8E047D00EC24FCF582ED34FF6D
:20043B00F583C007C006C001C0007402C0E0E4C0E0121DBEAC8215811581D000D001D006C3
:20045B00D007EC243AC000F8A607D0008005758200800C8E0574022DFE0203287582018545
:20047B001181D01122C011858111058105810581AF827E007D00C3ED9539500DED2423F91E
:20049B008704BC2E010E0D80EDBE0302800675820002057FEF2423F98707BF2E06758200D6
:2004BB0002057F89077E007D40740AC0E0741FC0E07480C0E08F828E838DF01218CFAD8224
:2004DB00AE83AFF01581158115818D028E038F04ED4E7005F58202057F7F008A828B838CEA
:2004FB00F0C0071219D4AD82AE83D0078D048E03EC4B601BC0078C068B07C374FF9EE49FDE
:20051B00D007400BEF243AF98C05A7050F8012EC4B7009EF243AF876000F80057582008004
:20053B0043C007740AC0E0741FC0E07480C0E090000075F0001218CFA81108A68208A683A9
:20055B0008A6F0158115811581D007A811088602088603088604A81108E60846600302047F
:20057B00F6758201851181D01122E4C0E09000001215C5158174C3C0E09000161215C51544
:20059B00817407C0E09000171215C5158174D0C0E09000181215C515817405C0E0900019AB
:2005BB001215C51581753A7E753B0A753CC8753DFE7404C0E09000011202391581753AFF54
:2005DB00753BFF753CC0753D007404C0E09000051202391581753A00753B08753CDC753DF8
:2005FB0024753E4B753F5E7406C0E09000091202391581753A7E753B0A753CD2753D0A747C
:20061B0004C0E090000F12023915817402C0E09004001215C515817421C0E090050012157C
:20063B00C51581740AC0E090001A1215C51581740AC0E090001B1215C515817413C0E090F8
:20065B0004041215C515817488C0E09004051215C515817417C0E09005041215C515817484
:20067B0070C0E09005051215C51581227401C0E09004011215C515819004031215F4AF8202
:20069B00BF2201227410C0E09004011215C5158180DAC011E581F5112404F581AE82AF8369
:2006BB00C2A5900420C007C0061215F49004211215F4C03A90040C1215C51581C03B9004E1
:2006DB000D1215C51581C03C90040E1215C51581C03D90040F1215C51581C03E900410127A
:2006FB0015C51581C03F9004111215C515819004241215F4AC827D00900425C005C0041277
:20071B0015F4AB82D004D005D006D0077A00A81108EB4DF6EA4C08F6A811088602088603BB
:20073B0053030F8A048B0574402DFDE5112403F8A60408A605EE2AFCEF3BFDC3E49C7410C9
:20075B009D40030207EF901F0C75F080C007C006C003C002121401D002D003E4C39AFA7479
:20077B00109BFBC003C002E51124FBF8E6C0E008E6C0E008E6C0E0C002C003E5112403F8EA
:20079B0086820886831216D1E58124FBF581D002D003D006D007EEC39AFCEF9BFDC006C08B
:2007BB0007E51124FBF8EA26FAEB0836FB088607C007C006C002C003C007C004C005904015
:2007DB00001216D1E58124FBF581D006D007D007D006802FC007C006E51124FBF8E6C0E0E1
:2007FB0008E6C0E008E6C0E0C006C007E5112403F886820886831216D1E58124FBF581D043
:20081B0006D007A81108EE26FEEF0836FFFDC007C006C0059004241215C51581D006D007AB
:20083B00C0069004251215C515817420C0E09004011215C515819000001215F4E582600BD4
:20085B00901F1875F08012140180149004021215F4E58230E309901F2975F080121401D22C
:20087B00A5C2A6851181D01122C011E581F5112411F5819004261215F4AF82900427C007C6
:20089B001215F4AE82D0077D008F047F00EE4207ED4204E5112410F8A60708A604900428E5
:2008BB001215F4AD827E00900429C006C0051215F4AB82D005D0067A00EE4203ED42028BB1
:2008DB0005740F5AFEA81108A60508A606A81108860474600826FFE5112403F8A60408A644
:2008FB0007A81108740826FCE40836FFC3E49C74109F40030209B0C003C002901F3A75F01F
:20091B0080C006C005C003C002121401D002D003D005D006E4C39DFD74109EFEC006C005C9
:20093B00C003C002743AC0E07400C0E07440C0E0C005C006E5112403F88682088683121680
:20095B0037E58124FBF581D002D003D005D0067408C39DFCE49EFFED243AFB7D007E40C060
:20097B0007C004C003C002C003C005C006C004C007906000121637E58124FBF581D002D047
:20099B0003D004D007E5112408F8A60408A607D002D0038043C003C002743AC0E07400C0A6
:2009BB00E07440C0E07408C0E0E4C0E0E5112403F88682088683121637E58124FBF581D0F0
:2009DB0002D003A81108740826FEE40836FFE5112408F8A60608A607C003C002E511240883
:2009FB00F8860608860774602FFFE511240AF8A60608A607AD407C00AA417B00E511240E4D
:200A1B00F8EA4CF6EB4D08F6E511240EF8E5112403F9E6F708E609F7E5112403F88682083B
:200A3B008683C003C002121B35AC82AD83D002D0038C438D44754500E5112408F8E511241A
:200A5B0010F9E726FC09E70836FDC3E49C74109DD002D0034003020B7AC003C002E51124CC
:200A7B0008F8E4C396FC74100896FDE511240EF88682088683C005C0041214EEAA82AB83D3
:200A9B00C003C00212140175820A1213F8D002D003D004D0058C828D83C005C004C00212A8
:200ABB0014EEAB82AE83AFF0D0028B828E838FF0C003C00212140175820A1213F8D002D041
:200ADB0003D004D005C005C004C003C002C043C044C045C004C005E511240AF886820886FA
:200AFB0083121637E58124FBF581D002D003D004D005E511240EF8E511240CF9E6C39CF735
:200B1B0008E69D09F7E511240CF88682088683C005C0041214EEAA82AB83C003C002121456
:200B3B0001D002D003D004D005EC2543FCED3544FDAF45C003C002C004C005C007E51124B5
:200B5B000CF8E6C0E008E6C0E0906000121637E58124FBF581D002D003D002D003802DC061
:200B7B0003C002C043C044C045E511240EF8E6C0E008E6C0E0E511240AF88682088683120E
:200B9B001637E58124FBF581D002D003AD43AE44AF458D828E838FF0121D5DB521028003F1
:200BBB00020C3C7E007F008E048F05E511240EF8C3EC96ED08965048E5112405F8EE2543B8
:200BDB00F6EF354408F608A645E5112405F886820886830886F0121D5DFDBD6100401AED0F
:200BFB0024854015ED24E0FDE5112405F886820886830886F0ED121ABC0EBE00AA0F80A7BF
:200C1B00C003C002C043C044C045E511240EF886820886831206AD158115811581D002D0C6
:200C3B0003E5112403F8740826FEE40836FFEE2BFBEF3AFAFFC003C002C00790042812155B
:200C5B00C51581D0029004291215C515817440C0E09004011215C51581741FC0E0900402D9
:200C7B001215C51581AD43AE44AF458D828E838FF0121784851181D011229004021215F4EA
:200C9B00E58230E209C2A4D2A6120884D2A4227401C0E09005011215C515819005031215B7
:200CBB00F4AF82BF13028017901F3F75F0801214017410C0E09005011215C5158180D0748F
:200CDB0002C0E09005011215C515819005031215F4AF82BF1401227410C0E0900501121584
:200CFB00C5158180AA9005021215F4E58220E10B9005021215F4E58230E31B7410C0E09034
:200D1B0005011215C51581741FC0E09005021215C51581020CAA22C011E581F5112404F5B0
:200D3B0081AE82AF83C2A5900520C007C0061215F49005211215F49005241215F4AC827DA1
:200D5B0000900525C005C0041215F4AB82D004D005D006D0077A00A81108EB4DF6EA4C08F0
:200D7B00F6A81108860208860353030F8A048B0574502DFDE5112403F8A60408A605EE2A8D
:200D9B00FCEF3BFDC3E49C74109D4003020E29901F4175F080C007C006C003C00212140127
:200DBB00D002D003E4C39AFA74109BFBC003C002C043C044C045C002C003E5112403F8866D
:200DDB00820886831216D1E58124FBF581D002D003D006D007EEC39AFCEF9BFDC006C007C4
:200DFB00EA2543FAEB3544FBAF45C007C006C002C003C007C004C0059040001216D1E581A8
:200E1B0024FBF581D006D007D007D0068025C007C006C043C044C045C006C007E5112403E0
:200E3B00F886820886831216D1E58124FBF581D006D007A81108EE26FEEF0836FFFDC00722
:200E5B00C006C0059005241215C51581D006D007C0069005251215C515817420C0E0900539
:200E7B00011215C515819000001215F4E582600B901F1875F0801214018014900402121533
:200E9B00F4E58230E309901F2975F080121401D2A5C2A6851181D01122C011E581F5112482
:200EBB0006F5819005261215F4AF82900527C0071215F4AE82D0077D008F047F00EE420729
:200EDB00ED4204900528C007C0041215F4AE82D0048E057E00900529C006C005C004121518
:200EFB00F4AB82D004D005D006D0077A00E5112403F8EB4EF6EA4D08F6E5112403F88602D0
:200F1B0008860353030F8A058B0674702EFEA81108A60508A6068F828C83C007C004C00302
:200F3B00C002121B35AD82AE83D002D003D004D0078D438E44754500EF2AFDEC3BFEC3E484
:200F5B009D74109E4003020FE6901F5075F080C007C004C003C002121401D002D003E4C316
:200F7B009AFA74109BFBC003C002C043C044C045C002C003A811088682088683121637E574
:200F9B008124FBF581D002D003D004D007EFC39AFDEC9BFE1ABAFF011BC007C004EA254336
:200FBB00FAEB3544FBAF45C007C004C002C003C007C005C006907000121637E58124FBF58E
:200FDB0081D004D007D004D0078023C007C004C043C044C045C007C004A811088682088603
:200FFB0083121637E58124FBF581D004D007E5112403F8EF26FDEC0836FEFBC007C006C0B7
:20101B0005C004C0039005281215C51581D004D005D006C004C0059005291215C51581742E
:20103B0040C0E09005011215C51581741FC0E09005021215C51581D004D007AB43AD44AE19
:20105B00458B828D838EF0121D5DB5215EE5112405F8E4F608F6E5112405F88602088603B6
:20107B00C3EA9FEB9C503DE5112405F8E62543FA08E63544FBAE458A828B838EF0121D5D1D
:20109B00FDBD61004011ED2485400CED24E08A828B838EF0121ABCE5112405F806B60002A1
:2010BB00080680B28F828C83120D32AD43AE44AF458D828E838FF0121784851181D0112228
:2010DB009005021215F4E58230E209C2A4D2A6120EB4D2A4229003E81213CD12007BC2A11A
:2010FB00120585120687C2A6E5427005120C9580167401B542081210DB120D008009120C16
:20111B00951210DB120D00C2A6121575AF82BF30004005EF24C65026BF61004005EF24854E
:20113B00501CBF41004005EF24A55012BF2002800DBF2E028008BF3F028003BF3D1874EBEE
:20115B0025394012E5392423F8A60705398F82C0071213F8D007BF0823E539601FE53924E7
:20117B0023F876001539758208C0071213F87582201213F87582081213F8D007BF0D02801D
:20119B0003021103E5397003021103E5392423F87600901F5975F08012140190002375F075
:2011BB0040121401901F6075F0801214017401B5390B743FB5230612008F0213AB7403C0FB
:2011DB00E0901F6575F0801202AEAF821581EF6019758203120480E582600F7404C0E0901C
:2011FB00000F12023915810213AB7404C0E0901F6975F0801202AEAF821581EF601C7405A0
:20121B00B53917AF27BF300050030213ABEF24C650030213AB8F210213AB7404C0E0901FB3
:20123B006E75F0801202AEAF821581EF6019758204120480E582600F7404C0E09000051229
:20125B00023915810213AB7404C0E0901F7375F0801202AEAF821581EF60161202F9E58261
:20127B00600F7406C0E090000912023915810213AB7405C0E0901F7875F0801202AEAF8276
:20129B001581EF6019758205120480E582600F7404C0E090000112023915810213AB740508
:2012BB00C0E0901F7E75F0801202AEAF821581EF60257408B53920AF28BF540C7443B5294F
:2012DB00077450B52A028041BF550C7444B529077450B52A0280327409B53902800302136D
:2012FB00A27442B5280280030213A2744FB5290280030213A27454B52A0280030213A2742E
:20131B0048B52B0280030213A2AF28BF422C7542027410C0E09004011215C515817410C012
:20133B00E09005011215C51581120687120CAA901F8475F0801214018056BF54247401B5BD
:20135B004202801D7542017410C0E09004011215C51581120CAA901F9E75F08012140180FD
:20137B002F7455B5282AE54260267542007410C0E09005011215C51581120687901FAF7541
:20139B00F0801214018009901FC075F0801214017E007F00C3EE9416EF64809480500DEE0D
:1213BB002423F876000EBE00EB0F80E875390002110379
:201E2F005254553D0049503D005355423D00474154453D004D41433D004D4F44453D000A86
:201E4F000D57697A4E657420416461707465723A0D0A0A00536574204D4F44453E202E20AC
:201E6F002E202E202E204D4F44453D0054435000424F544800554450000D0A0053657420A7
:201E8F005254552028302D39293E20202E205254553D000D0A5365742049503E202E202E57
:201EAF00202E202E202E2049503D000D0A536574205355424E45543E202E202E202E205364
:201ECF0055423D000D0A53657420474154453E202E202E202E202E20474154453D000D0A90
:201EEF00536574204D41433E20202E202E202E202E204D41433D000A0D0A002E0009207505
:201F0F0064707478200D0A000053656E6420636F6D706C6574650D0A00000D0A53656E6400
:201F2F00206661696C65640D0A000075647031007A0009206F766572666C6F77200D0A002E
:201F4F00004F766572666C6F77000D0A434F4D3E000D0A0D0A0049503D005254553D00535B
:201F6F0055423D004D41433D00474154453D004D4F44453D005544502F5443503A353030E2
:201F8F00302F36303030204F50454E0D0A00005443503A36303030204F50454E0D0A000054
:201FAF005544503A35303030204F50454E0D0A0000496E76616C69642C20747279203C3FB4
:061FCF003E0D0A0D0A00A0
:2013CD00AE82AF83EE4F6012EE24FFFCEF34FFFDEC24FFFEED34FFFF80EA22758CFF758A0C
:2013ED00F6D28C308DFDC28CC28D2285829910990280FB22AD82AE83AFF08D828E838FF08D
:20140D00121D5DFC600C8C990DBD00010E1099EA80FB22C011858111058105810581AF82F2
:20142D00E51124FBF88604088605088606EFC4540FFB53030F7A00EB24D5F582EA341FF564
:20144D0083E4938C828D838EF0121ABCA8110874012CF6E43D08F608A6068F0353030F7F60
:20146D0000EB24D5F582EF341FF583E493FFA8110886820886830886F0EF121ABC74022C03
:20148D00FCE43DFD8C828D838EF0E4121ABC851181D01122C011858111058105810581AF7A
:2014AD0082A911097700E904F87600740229F8760089067D007C40C001C006C005C0048F94
:2014CD0082121420158115811581D00189077E007D408F828E838DF0121401851181D0111B
:2014ED0022C011858111058105810581AE82AF83A81108760D087600087640A8110816B6D4
:20150D00FF0208168E048F03C004C003740AC0E0E4C0E08C828B83121D79AF821581158131
:20152D00D003D0048F0574302DFDA8110886820886830886F0ED121ABC740AC0E0E4C0E0C6
:20154D008C828B83121753AC82AD83158115818C068D07EC4D70A4A8110886820886830807
:15156D0086F0851181D0112210980280048599822275820022D0
:111FD500303132333435363738394142434445460059
:20158200AE82AF837D00BD10005017EF30E704D2A38002C2A3D2A1EE2EFEEF33FFC2A10DB2
:2015A20080E422AF827E00BE08005016EF30E704D2A38002C2A3D2A18F05ED2DFFC2A10ED1
:2015C20080E522C011858111AE82AF83C2A07582F0C007C0061215A5D006D0078E828F83C7
:2015E200121582E51124FDF886821215A5D2A0D01122AE82AF83C2A07D0075820FC007C01A
:2016020006C0051215A5D005D006D0078E828F83C005121582D0057F00BF08005012D2A12F
:201622008D06EE2EFEA2A2E4334EFDC2A10F80E9D2A08D8222C011858111C082C083E58104
:201642002404F581E5112405F8E4F608F6E5112405F88602088603E51124FCF8C3EA96EB8F
:2016620008965065E51124F9F8E5112405F9E726FA09E70836FB088607A81108E51124034F
:20168200F9E6F708E609F7E5112405F88604088606E5112403F8EC26FCEE0836FE8C828E66
:2016A20083C007C003C0021215F4AE82D002D003D0078A828B838FF0EE121ABCE511240504
:2016C200F806B6000208068084851181D01122C011858111C082C08305810581E511240390
:2016E200F8E4F608F6E5112403F88602088603E51124FCF8C3EA96EB0896504FE51124F95E
:20170200F8E5112403F9E726FA09E70836FB0886078A828B838FF0121D5DFAA81108860688
:20172200088607E5112403F88603088605EB2EFEED3FFFC0028E828F831215C51581E51143
:111742002403F806B600020806809A851181D0112277
:20175300E58124FEF8E6F918E6F87A10E4FBFCE58225E0F582E58333F583EB33FBEC33FC92
:11177300EB98F5F0EC994006FCABF0438201DADF22FA
:20178400C011858111C082C083C0F0E5812404F581A81108E6084670030218C9E5112406B9
:2017A400F8E4F608F6900001E0FAA3E0FF7D017E00EA4F6037C005C006A811088605088637
:2017C40006C3EA9DEF9ED006D0055020E5112406F8A60208A60774022AFBE43FFC8B058CC2
:2017E400068B828C83E0FAA3E0FF80C5A811088603088604EB24FEFBEC34FFFCE511240405
:20180400F874022BF6E43C08F6E5112404F88682088683EAF0EFA3F08D828E83EBF0ECA302
:20182400F08B828C83E0FDA3E0FEEAB50539EFB506358D828E83A3A3E0FEA3E0FFE511249E
:2018440004F88682088683EEF0EFA3F08B828C83E0FEA3E0FF8E828F83E0FEA3E0FF8B8204
:201864008C83EEF0EFA3F0E5112406F8E608466054E5112406F88682088683E0FEA3E0FF64
:20188400EEB50341EFB5043D8B828C83E0FBA3E0FCE5112406F88682088683EBF0ECA3F077
:2018A400E5112406F8740226FEE40836FFE5112404F88682088683E0FCA3E0FD8E828F83A4
:0B18C400ECF0EDA3F0851181D01122A3
:2018CF00C011858111AD82AE83AFF0ED4E60068D0E8E0F8F10E50E450F7008900000F5F066
:2018EF000219D1AD0EAE0FAF108D828E838FF0121D5D6036AD0EAE0FAF108D828E838FF01F
:20190F00121D5DFDC005E51124FBF886820886830886F0121D10AD82AE831581ED4E600AEC
:20192F00050EE4B50EBD050F80B9AD0EAE0FAF10AA0EAB0FAC108A828B838CF0121D5D60ED
:20194F0061AA0EAB0FAC108A828B838CF0121D5DFAC007C006C005C002E51124FBF88682A4
:20196F000886830886F0121D10AA82AB831581D005D006D007EA4B601FAA0EAB0FAC108AAC
:20198F00828B838CF0E4121ABC050EB50E02050F8D828E838FF0802A050EE4B50E92050FCB
:2019AF00808EE4F50EF50FF5108D828E838FF0121D5D60088D828E838FF08006900000755D
:0519CF00F000D0112220
:06003500E478FFF6D8FD9F
:2019D400C011E581F5112406F581AD82AE83AFF07B007C008D828E838FF0121D5DFABA2021
:2019F400028003BA09070DBD00EA0E80E7A81108A60508A60608A6078D828E838FF0121DB8
:201A14005DFFBF2D03D38001C39200BF2D028003BF2B09A8110806B600020806A81108E527
:201A3400112404F9E6F708E609F708E609F7E5112404F886820886830886F0121D5DFABABA
:201A5400300092014048EA24C692014041C020C003C00490000A121AD7AA82AF8315811532
:201A740081D020E5112404F886820886830886F0121D5DFEA31818A68208A6837D00EE24EF
:201A9400D0FEED34FFFDEE2AFBED3FFC80A0300009C3E49BFEE49CFF80048B068C078E823C
:081AB4008F83851181D01122FE
:200013007900E94400601B7A00901FE8780375A004E493F2A308B8000205A0D9F4DAF27586
:02003300A0FF2C
:1B1ABC0020F71130F6138883A88220F509F6A8837583002280FEF280F5F02229
:201AD70074FE2581F8E68582F0A4C0E08582F018E6A4F582D0E025F0C58386F0A42583F5EA
:021AF700832248
:201AF9009000017403F07400A3F0901FE6E493FE740193FF1EBEFF011FEE2403FEEF34008C
:201B1900FF900003EEF0EFA3F0900001E0FEA3E0FF8E828F83A3A3E4F0A3F022C011E581A1
:201B3900F5112408F581AE82AF83900001E0F5F0A3E045F0700BC007C006121AF9D006D0A1
:201B590007EE4F600E74022EFCE43FFDC3EC9EED9F5006900000021CD274022EFDE43FFC8B
:201B7900C3ED9404EC940050047D047C00900001E5112405F8E0F6A3E008F67A017B00E559
:201B9900112405F8E608467003021CCFC002C003E5112405F88682088683A91109E0F7A374
:201BB900E009F7A811088602088603E5112405F8E5112403F9E6F708E609F7E5112403F845
:201BD900EAC396FAEB0896FB8A078B06C3EF9DEE9CD003D0025003021CACC002C003740471
:201BF9002DFAE43CFBC3EF9AEE9BD003D0024076E5112403F8ED26FEEC0836FFE5112407EA
:201C1900F8A60608A607E5112407F88682088683A91109E7F009E7A3F0E5112407F8740274
:201C390026FEE40836FFE5112405F88682088683A3A3E0FCA3E0FD8E828F83ECF0EDA3F0F6
:201C59008A828B83E5112407F8E6F008E6A3F0E5112405F88682088683E5112407F9E7F0C0
:201C790009E7A3F0801AE5112405F88682088683A3A3E0FEA3E0FF8A828B83EEF0EFA3F0DE
:201C9900E5112405F8740226FEE40836FF8E828F838026E5112405F8740226FEE40836FFBF
:1F1CB9008E028F038E828F83E5112405F8E0F6A3E008F6021B98900000851181D01122FB
:201CD800AE82AF83C007C006121DFBE5828583F0D006D00745F07012BE300092004007EE5B
:181CF80024C692005004C2008002D200A200E433FE7F008E828F832274
:20003B007800E84400600A790175A000E4F309D8FC7802E84404600C7905900001E4F0A3B8
:04005B00D8FCD9FAFA
:201D1000C011858111AD82AE83AFF08D828E838FF0121D5DFC6012E51124FDF8E6B5040283
:201D300080070DBD00E50E80E28D828E838FF0121D5DFCE51124FDF8E6B504088D828E83F0
:0D1D50008FF0800690000075F000D0112289
:021FE6000004F5
:0D000600758145121E2BE582600302000388
:1C1D5D0020F71430F6148883A88220F507E6A88375830022E280F7E49322E02295
:201D7900E58124FEF88601188600E84960367A01E825E0F8E933400EF9E58298E5839940DB
:201D9900030A80ECC3E913F9E813F8C3E58298F5F0E583994005F58385F082C3E913F9E80A
:051DB90013F8DAE72237
:201DBE00C2D5E58330E70DD2D5E4C39582F582E49583F583E58124FEF8E630E70AB2D5186C
:1D1DDE00E4C396F6E40896F918E6F812175D30D50BE4C39582F582E49583F58322E3
:201DFB00AE82BE410092004007EE24A592005012BE610092004007EE248592005004C200DE
:101E1B008002D200A200E433FE7F008E828F8322E9
:041E2B00758200229A
:00000001FF
