:03000000020006F5
:08005F00E4F508F509020003B5
:03000300020409EB
:20006700AE82AF83EE4F60071EBEFF011F80F522759850758920758DFDD29CD2AFD2ACD228
:200087008E2285829910990280FB22AD82AE83AFF08D828E838FF0120416FC60188C820D68
:2000A700BD00010EC007C006C005120089D005D006D00780DC2210980280FBAF998F82C042
:2000C70007120089D0078F8222AE82AF837D00BD10005017EF30E704D2808002C280D282E6
:2000E700EE2EFEEF33FFC2820D80E422AF827E00BE08005016EF30E704D2808002C280D21A
:20010700828F05ED2DFFC2820E80E522AE82AF83C2837582F0C007C0061200F3D006D00703
:200127008E828F831200D0850A821200F3D28322AE82AF83C2837D0075820FC007C006C0B0
:20014700051200F3D005D006D0078E828F83C0051200D0D0057F00BF08005012D282A2814F
:20016700E433FEED4206C282EE2EFD0F80E9D2838D822285820A900001120113850B0A90E1
:200187000002120113850C0A900003120113850D0A900004020113750E7A750F2E75107AE8
:2001A70075112E75127A75132E75147A751500900001120137E582F50E900002120137E53A
:2001C70082F510900003120137E582F512900004120137E582F5142275167A75172E75188A
:2001E7007A75192E751A7A751B2E751C7A751D0090000F120137E582F51690001012013719
:20020700E582F518900011120137E582F51A900012120137E582F51C22751E7A751F2E7538
:20022700207A75212E75227A75232E75247A752500900005120137E582F51E9000061201D3
:2002470037E582F520900007120137E582F522900008120137E582F5242275267A75272E22
:2002670075287A75292E752A7A752B2E752C7A752D2E752E7A752F2E75307A75310090007E
:2002870009120137E582F52690000A120137E582F52890000B120137E582F52A90000C1201
:2002A7000137E582F52C90000D120137E582F52E90000E120137E582F5302285820A9000CF
:2002C7000512011385320A90000612011385330A90000712011385340A90000802011385FA
:2002E700820A90000912011385350A90000A12011385360A90000B12011385370A90000C40
:2003070012011385380A90000D12011385390A90000E02011385820A90000F120113853A15
:200327000A900010120113853B0A900011120113853C0A900012020113E582FF7012853D28
:200347000A900404120113853E0A900405020113BF0112853D0A900504120113853E0A9098
:20036700050502011322750A80900000120113750AC3900016120113750A0A90001A12012B
:2003870013750A0A90001B120113750A02900400120113750A01900500120113753D137539
:2003A7003E88758200120340753D13753EEC758201120340750B0A750CDC750DFE75827E97
:2003C70012017A7532FF7533C07534007582FF1202C27535087536DC75372475384B753957
:2003E7007E7582001202E6753A0A753BC8753C0075827E12031C12019E1202201201DF0226
:0F0407000261C2829003E812006712036D80FE4B
:06003500E478FFF6D8FD9F
:200013007900E94400601B7A00900436780175A000E493F2A308B8000205A0D9F4DAF27559
:02003300A0FF2C
:20003B007800E84400600A790175A000E4F309D8FC7800E84400600C7900900001E4F0A3C3
:04005B00D8FCD9FAFA
:0D00060075813E120432E5826003020003A2
:1C04160020F71430F6148883A88220F507E6A88375830022E280F7E49322E022F5
:0404320075820022AD
:00000001FF
