:03000000020006F5
:0C005F00750830750900751F00020003D1
:03000300020E30BA
:20006B001216327E008E8312155102153FC020858120121632AF82E52024FCF8868208867A
:20008B0083C007121632AE82D0077D008F047F00EE4207ED42048F828C8312155112153FB3
:2000AB00D02022E4C0E0900000121603158174C3C0E090001612160315817407C0E0900065
:2000CB0017121603158174D0C0E090001812160315817405C0E09000191216031581747E7B
:2000EB00C0E09000011216031581740AC0E0900002121603158174DCC0E0900003121603E4
:20010B00158174FEC0E0900004121603158174FFC0E0900005121603158174FFC0E09000CB
:20012B0006121603158174C0C0E09000071216031581E4C0E09000081216031581E4C0E060
:20014B0090000912160315817408C0E090000A121603158174DCC0E090000B121603158177
:20016B007424C0E090000C1216031581744BC0E090000D1216031581745EC0E090000E1200
:20018B0016031581747EC0E090000F1216031581740AC0E0900010121603158174D2C0E04E
:2001AB009000111216031581740AC0E090001212160315817402C0E09004001216031581E6
:2001CB00740AC0E090001A1216031581740AC0E090001B12160315817413C0E09004041230
:2001EB00160315817488C0E09004051216031581227401C0E090040112160315819004032B
:20020B00121632AF82BF2202800E7410C0E0900401121603158180D9901B6C75F080020FF7
:20022B0046C02085812005810581AF82900420C00712163290042112163290040C1216037B
:20024B001581E52024FDF8E6C0E090040D1216031581E52024FCF8E6C0E090040E12160387
:20026B001581E52024FBF8E6C0E090040F1216031581E52024F9F8088607C00790041012AB
:20028B0016031581E52024F9F88607C0079004111216031581900424121632AE827F00907F
:2002AB000425C007C006121632AD82D006D0077C00ED4207EC42068F048E0553050F8C0246
:2002CB008D0374402BFBA82008A60208A603E52024F7F8E62CFA08E63DFBC3E49A74109BD6
:2002EB004003020382C007C006901B8B75F080C007C006C005C004120F46D004D005E4C3B4
:20030B009CFC74109DFDC005C004E52024F4F8E6C0E008E6C0E008E6C0E0C004C005A8208B
:20032B0008868208868312170FE58124FBF581D004D005D006D007E52024F7F8E6C39CFAB1
:20034B0008E69DFBE52024F4F8EC26FCED0836FD088607C007C006C004C005C007C002C0CD
:20036B000390400012170FE58124FBF581D006D007D006D0078035C007C006E52024F4F8BB
:20038B00E6C0E008E6C0E008E6C0E0E52024F7F8E6C0E008E6C0E0A8200886820886831289
:2003AB00170FE58124FBF581D006D007E52024F7F8E62FFF08E63EFEFDC007C006C005902F
:2003CB0004241216031581D00690042512160315817420C0E09004011216031581900000BF
:2003EB00121632E582600B901B9A75F080120F468014900402121632E58230E309901BABD8
:20040B0075F080120F46852081D02022C020E581F5202427F581901BBC75F080120F46E599
:20042B0020241BF97700E904F87600740229FFC000A8077600E520240BF8740329F6E5203D
:20044B00240BF886007600E5202408F8740429F6E5202408F886007600E5202407F87405E8
:20046B0029F6E5202407F886007600A8200808740629F6A820080886007600A8200874079E
:20048B0029F6A8200886007600D000900426C007C001C000121632AE82D000D001900427AE
:2004AB00C006C001C000121632AD82D000D001D006D007C000E5202403F8A6050876008E78
:2004CB00028A057E00E5202403F88602088603EE4202ED4203E5202419F8A60208A603D0FE
:2004EB0000900428C007C001C000121632AB82D000D0018B027B008B068A05900429C0061A
:20050B00C005C001C000121632AB82D000D001D005D006D0077A00EE4203ED42028B0474FF
:20052B000F5AFDC000E5202403F8A60408A605E5202403F8C001E5202405F9E6F708E60929
:20054B00F7D001E5202405F8860474600826FDE5202409F8A60408A605E5202405F87408F0
:20056B0026FCE40836FDD000C3E49C74109D400302064CC003C002901BD375F080C007C0F5
:20058B0003C002C001C000120F46D000D001D002D003D007C000E5202403F8E4C396FC74F5
:2005AB00100896FDD00089038B027B007E40C007C005C004C003C002C001C000C002C00388
:2005CB00C006C004C005C000E5202409F88682088683D000121675E58124FBF581D000D0B6
:2005EB0001D002D003D004D005D0077408C39CFBE49DFE1CBCFF011DEC29FC7D007A40C078
:20060B0007C006C003C002C001C000C004C005C002C003C006906000121675E58124FBF521
:20062B0081D000D001D002D003D006D007C000E520240FF8A60308A606D000D002D00380F9
:20064B005989067D007C40C007C003C002C001C000C006C005C0047408C0E0E4C0E0C000F2
:20066B00E5202409F88682088683D000121675E58124FBF581D000D001D002D003D007C0E7
:20068B0000E5202405F8740826FDE40836FEE520240FF8A60508A606D000C003C002C000C6
:2006AB00E520240FF8860508860674602EFEE5202411F8A60508A606E5202408F88600861A
:2006CB00048C038B047B00E5202407F8860086027E00E5202415F8EA4BF6EE4C08F6A8205D
:2006EB000808860086068E057E00A82008860086047B00E5202417F8EC4EF6EB4D08F6D0F3
:20070B0000901BF875F080C007C003C002C001C000120F46D000D001D002D003D007C00035
:20072B00E5202426F8E4F608F6D000D002D003C000E5202426F8C3E6940408E664809480EC
:20074B00D000506CC000E5202426F8E629F88606D0007D008E828D83C007C003C002C001EE
:20076B00C000121551D000D001D002D003D007C000E5202426F8C3E6940308E664809480EC
:20078B00D000501A75822EC007C003C002C001C000120F3DD000D001D002D003D007C000E7
:2007AB00E5202426F806B600020806D00002073AC003C002901C0575F080C007C003C002A1
:2007CB00C001C000120F46D000D001D002D003D007C000E5202415F88682088683D000C06A
:2007EB0007C003C002C001C000121551901C1575F080120F46D000D001D002D003D007C07F
:20080B0000E5202419F88682088683D000C007C003C002C001C00012155112153FD000D05F
:20082B0001D002D003D007C000E5202417F8C001E5202409F9E6F708E609F7D001E5202487
:20084B0009F88682088683D000C007C002C001C000121964AB82AC83D000D001D002D00764
:20086B00C000E5202423F8A60308A604087600E520240FF8C001E5202419F9E726FB09E76C
:20088B000836FCD001D000C3E49B74109CD002D003400302098A901C2175F080C007C00357
:2008AB00C002C001C000120F46D000D001D002D003D007C000E520240FF8E4C396FC7410B9
:2008CB000896FED000C007C006C004C003C002C001C0008500F0E5202423F8E6C0E008E61D
:2008EB00C0E008E6C0E0A8F0C004C006C000E5202411F88682088683D000121675E581249B
:20090B00FBF581D000D001D002D003D004D006D007C000E5202417F8C001E5202413F9E6C0
:20092B00C39CF708E69E09F7D001E5202423F8EC26FCEE0836FE088605D000C007C003C0D0
:20094B0002C001C000C004C006C0058500F0E5202413F8E6C0E008E6C0E0A8F0C000E520A0
:20096B002411F88682088683D000121675E58124FBF581D000D001D002D003D0078051C010
:20098B0007C003C002C001C0008500F0E5202423F8E6C0E008E6C0E008E6C0E0A8F08500C7
:2009AB00F0E5202417F8E6C0E008E6C0E0A8F0C000E5202411F88682088683D000121675E0
:2009CB00E58124FBF581D000D001D002D003D007901C4475F080C007C003C002C001C00052
:2009EB00120F46D000D001D002D003D007C000E5202423F886820886830886F0121B07FC9D
:200A0B00D000ECB508028003020B6E7C007E00C003C0028C038E05C000E5202417F8C3EB0B
:200A2B0096ED0896D000D002D0034003020B0EC000E5202423F8C001E520240CF9EC26F7BB
:200A4B00EE083609F708E609F7D001E520240CF886820886830886F0121B07FDD000BD61BD
:200A6B00004052ED2485404DED24E0FDC000E520240CF886820886830886F0ED12190DE53A
:200A8B0020240CF886820886830886F0121B07FDD0008D82C007C006C004C003C002C001C5
:200AAB00C000120F3DD000D001D002D003D004D006D0078046C003C002C000E5202423F8F7
:200ACB00EC26FAEE0836FB088605D0008A828B838DF0121B07FAF582C007C006C004C00325
:200AEB00C002C001C000120F3DD000D001D002D003D004D006D007D002D0030CBC00010E07
:200B0B00020A1AC003C002C000E520240BF886008606A8078605D00086048703C003C0027E
:200B2B00E5202423F8E6C0E008E6C0E008E6C0E0E5202417F8E6C0E008E6C0E0E52024153A
:200B4B00F8E6C0E008E6C0E0C006C005C0048B8212022CE58124F6F581D002D003D002D0A5
:200B6B0003806A901C5175F080C007C003C002C001C000120F46D000D001D002D003D0074A
:200B8B00C000E520240BF886008606A8078607D00086058704C003C0027451C0E0741CC0F0
:200BAB00E07480C0E0741DC0E0E4C0E0E5202415F8E6C0E008E6C0E0C006C007C0058C8257
:200BCB0012022CE58124F6F581D002D003C003C00212153F901C7075F080120F46D002D03A
:200BEB0003E5202409F8740826FEE40836FFEE2BFBEF3AFAFFC003C002C007900428121696
:200C0B00031581D00290042912160315817440C0E0900401121603158174FFC0E09004028D
:200C2B001216031581E5202423F886050886060886078D828E838FF01217C2852081D02050
:200C4B0022900402121632E58230E20302041722759850758920758DFDD29CD2AFD2ACD203
:200C6B008EC29822901C8775F080120F46901C9C75F080120F4690000F1216327E008E83C4
:200C8B0012155175822E120F3D9000101216327E008E8312155175822E120F3D9000111217
:200CAB0016327E008E8312155175822E120F3D9000121216327E008E83121551901CB4757F
:200CCB00F080120F46901CB775F080120F46AE087F008E828F83121551901CB475F080125D
:200CEB000F46901CCF75F080120F469000051216327E008E8312155175822E120F3D9000C4
:200D0B00061216327E008E8312155175822E120F3D9000071216327E008E831215517582EF
:200D2B002E120F3D9000081216327E008E83121551901CB475F080120F46901CE775F080FF
:200D4B00120F469000011216327E008E8312155175822E120F3D9000021216327E008E8331
:200D6B0012155175822E120F3D9000031216327E008E8312155175822E120F3D9000041250
:200D8B0016327E008E83121551901CB475F080120F46901CFF75F080120F46900009121695
:200DAB0032120FF275823A120F3D90000A121632120FF275823A120F3D90000B12163212B7
:200DCB000FF275823A120F3D90000C121632120FF275823A120F3D90000D121632120FF2D6
:200DEB0075823A120F3D90000E121632120FF2901D1775F080120F46901D1B75F080120F70
:200E0B0046901D3775F080120F46901D4B75F080120F46901D6475F080120F46901D7C7512
:200E2B00F080020F469003E8120F1D120C5BC2A11200AE1201FC120C4C1215B3AF82BF3018
:200E4B00004005EF24C65026BF61004005EF2485501CBF41004005EF24A55012BF200280CA
:200E6B000DBF2E028008BF3A028003BF3F1874EB251F4012E51F2409F8A607051F8F82C08F
:200E8B0007120F3DD007BF0823E51F601FE51F2409F87600151F758208C007120F3D7582B0
:200EAB0020120F3D758208120F3DD007BF0D87E51F7003020E41E51F2409F87600901D937B
:200ECB0075F080120F4690000975F040120F46901CB475F080120F467401B51F0A743FB5AF
:200EEB000905120C6F8009901D9A75F080120F467E007F00C3EE9416EF64809480500DEEA6
:120F0B002409F876000EBE00EB0F80E8751F00020E4126
:201B6C0055445020536F636B6574203020706F72742035303030206F70656E0D0A000009DB
:201B8C00206F766572666C6F77200D0A000053656E6420636F6D706C6574650D0A00000D47
:201BAC000A53656E64206661696C65640D0A0000554450205061636B657420526563656980
:201BCC007665640D0A00000D0A55445020525820486561646572204F766572666C6F7720DC
:201BEC0044657465637465640D0A000053656E6465722049503A2000000953656E646572C2
:201C0C0020506F72743A2000000952582053697A653A2000000D0A55445020525820444162
:201C2C005441204F766572666C6F772044657465637465640D0A00000D524553504F4E53FF
:201C4C00453A200000496E636F727265637420666F726D6174206F722077726F6E672052C7
:201C6C00545500000D2D2D2D2D2D2D2D2D2D2D2D2D2D2D2D2D2D2D0D0A00000A0D57697A10
:201C8C004E657420416461707465723A0D0A0A00202020495076342041646472657373202C
:201CAC00202E202E203A20000D0A002020205254552041646472657373202E202E202E20A0
:201CCC003A20002020205375626E6574204D61736B202E202E202E203A20002020204761B5
:201CEC0074657761792041646472657373202E203A20002020204D4143204164647265735C
:201D0C0073202E202E202E203A20000A0D0A00536574205254552028302D39293A2055536F
:201D2C00494E47205254553D0D0A005365742049503A205553494E472049503D0D0A005325
:201D4C006574205355424E45543A205553494E47205355423D0D0A00536574204741544502
:201D6C003A205553494E4720474154453D0D0A00536574204D41433A205553494E47204D78
:201D8C0041433D0D0A0A000D0A434F4D3E00496E76616C69642C20747279203C3F3E0D0ABF
:021DAC00000035
:200F1D00AE82AF83EE4F60071EBEFF011F80F522758CFF758AF6D28C308DFDC28CC28D2250
:200F3D0085829910990280FB22AD82AE83AFF08D828E838FF0121B07FC60180DBD00010E8D
:200F5D008C82C007C006C005120F3DD005D006D00780DC22C020858120058105810581AF6F
:200F7D0082E52024FBF88604088605088606EFC4540FFB53030F7A00EB24AEF582EA341DA6
:200F9D00F583E4938C828D838EF012190DA8200874012CF6E43D08F608A6068F0353030F40
:200FBD007F00EB24AEF582EF341DF583E493FFA8200886820886830886F0EF12190D74022F
:200FDD002CFCE43DFD8C828D838EF0E412190D852081D02022C02085812005810581058126
:200FFD00AF82A920097700E904F87600740229F8760089067D007C40C001C006C005C0041A
:20101D008F82120F71158115811581D00189077E007D408F828E838DF0120F46852081D0B6
:20103D002022C020E581F5202408F581AE82AF83A82008A60608A607A82008C3E69410089C
:20105D00E694275003021208E52024FBF88603088606088607C007C006C0037410C0E074AD
:20107D0027C0E0A820088682088683121791AC8215811581D003D006D00774302C8B828EA4
:20109D00838FF012190DE5202406F874012BF6E43E08F608A607C007C006C00374E8C0E01B
:2010BD007403C0E0A82008868208868312179115811581740AC0E0E4C0E0121B23AA8215FA
:2010DD00811581D003D006D00774302AFAE5202406F886820886830886F0EA12190DE520AF
:2010FD002406F874022BF6E43E08F608A607C007C006C0037464C0E0E4C0E0A82008868221
:20111D0008868312179115811581740AC0E0E4C0E0121B23AA8215811581D003D006D007F1
:20113D0074302AFAE5202406F886820886830886F0EA12190DE5202406F874032BF6E43E09
:20115D0008F608A607C007C006C003740AC0E0E4C0E0A8200886820886831217911581157F
:20117D0081740AC0E0E4C0E0121B23AA8215811581D003D006D00774302AFAE5202406F818
:20119D0086820886830886F0EA12190DE5202406F874042BF6E43E08F608A607C007C00657
:2011BD00C003740AC0E0E4C0E0A820088682088683121B23AA8215811581D003D006D0079C
:2011DD0074302AFAE5202406F886820886830886F0EA12190D74052BFBE43EFC8F058B82EC
:2011FD008C838DF0E412190D021539A82008C3E694E808E694035003021363E52024FBF879
:20121D008607088604088606C007C006C00474E8C0E07403C0E0A820088682088683121788
:20123D0091AA8215811581D004D006D00774302A8F828C838EF012190DE5202403F87401EA
:20125D002FF6E43C08F608A606C007C006C0047464C0E0E4C0E0A82008868208868312171B
:20127D009115811581740AC0E0E4C0E0121B23AA8215811581D004D006D00774302AFAE51C
:20129D00202403F886820886830886F0EA12190DE5202403F874022FF6E43C08F608A606A8
:2012BD00C007C006C004740AC0E0E4C0E0A82008868208868312179115811581740AC0E031
:2012DD00E4C0E0121B23AA8215811581D004D006D00774302AFAE5202403F886820886833F
:2012FD000886F0EA12190DE5202403F874032FF6E43C08F608A606C007C006C004740AC010
:20131D00E0E4C0E0A820088682088683121B23AA8215811581D004D006D00774302AFAE58D
:20133D00202403F886820886830886F0EA12190D74042FFBE43CFC8E058B828C838DF0E4CA
:20135D0012190D021539A82008C3E6946408E694005003021466E52024FBF88607088604EB
:20137D00088606C007C006C0047464C0E0E4C0E0A820088682088683121791AA82158115F5
:20139D0081D004D006D00774302A8F828C838EF012190DE5202403F874012FF6E43C08F6AE
:2013BD0008A606C007C006C004740AC0E0E4C0E0A820088682088683121791158115817426
:2013DD000AC0E0E4C0E0121B23AA8215811581D004D006D00774302AFAE5202403F88682A5
:2013FD000886830886F0EA12190DE5202403F874022FF6E43C08F608A606C007C006C0043D
:20141D00740AC0E0E4C0E0A820088682088683121B23AA8215811581D004D006D007743057
:20143D002AFAE5202403F886820886830886F0EA12190D74032FFBE43CFC8E058B828C8322
:20145D008DF0E412190D021539A82008C3E6940A08E694005003021511E52024FBF88607C9
:20147D00088604088606C007C006C004740AC0E0E4C0E0A820088682088683121791AA8267
:20149D0015811581D004D006D00774302A8F828C838EF012190DE5202403F874012FF6E43C
:2014BD003C08F608A606C007C006C004740AC0E0E4C0E0A820088682088683121B23AA82C9
:2014DD0015811581D004D006D00774302AFAE5202403F886820886830886F0EA12190D7429
:2014FD00022FFBE43CFC8E058B828C838DF0E412190D8028E52024FBF886030886040886D2
:20151D000574302E8B828C838DF012190D0BBB00010C8B828C838DF0E412190D852081D088
:20153D00202275990A10990280FB2275990910990280FB22C020E581F5202406F581AE8262
:20155D00AF83A920097700E904F87600740229F87600740329F87600740429F876007405F5
:20157D0029F8760089057C007B40C001C005C004C0038E828F8312103F158115811581D0D0
:20159D000189077E007D408F828E838DF0120F46852081D0202210980280048599822275BF
:0315BD0082002287
:111DAE00303132333435363738394142434445460082
:2015C000AE82AF837D00BD10005017EF30E704D2A38002C2A3D2A1EE2EFEEF33FFC2A10D74
:2015E00080E422AF827E00BE08005016EF30E704D2A38002C2A3D2A18F05ED2DFFC2A10E93
:2016000080E522C020858120AE82AF83C2A07582F0C007C0061215E3D006D0078E828F832C
:201620001215C0E52024FDF886821215E3D2A0D02022AE82AF83C2A07D0075820FC007C041
:2016400006C0051215E3D005D006D0078E828F83C0051215C0D0057F00BF08005012D2A175
:201660008D06EE2EFEA2A2E4334EFDC2A10F80E9D2A08D8222C020858120C082C083E581A8
:201680002404F581E5202405F8E4F608F6E5202405F88602088603E52024FCF8C3EA96EB24
:2016A00008965065E52024F9F8E5202405F9E726FA09E70836FB088607A82008E5202403D5
:2016C000F9E6F708E609F7E5202405F88604088606E5202403F8EC26FCEE0836FE8C828E0A
:2016E00083C007C003C002121632AE82D002D003D0078A828B838FF0EE12190DE520240528
:20170000F806B6000208068084852081D02022C020858120C082C08305810581E520240306
:20172000F8E4F608F6E5202403F88602088603E52024FCF8C3EA96EB0896504FE52024F9F2
:20174000F8E5202403F9E726FA09E70836FB0886078A828B838FF0121B07FAA82008860684
:20176000088607E5202403F88603088605EB2EFEED3FFFC0028E828F831216031581E520A8
:111780002403F806B600020806809A852081D020221B
:20179100E58124FEF8E6F918E6F87A10E4FBFCE58225E0F582E58333F583EB33FBEC33FC54
:1117B100EB98F5F0EC994006FCABF0438201DADF22BC
:2017C200C020858120C082C083C0F0E5812404F581A82008E608467003021907E520240600
:2017E200F8E4F608F6900001E0FAA3E0FF7D017E00EA4F6037C005C006A8200886050886EA
:2018020006C3EA9DEF9ED006D0055020E5202406F8A60208A60774022AFBE43FFC8B058C74
:20182200068B828C83E0FAA3E0FF80C5A820088603088604EB24FEFBEC34FFFCE5202404A8
:20184200F874022BF6E43C08F6E5202404F88682088683EAF0EFA3F08D828E83EBF0ECA3B5
:20186200F08B828C83E0FDA3E0FEEAB50539EFB506358D828E83A3A3E0FEA3E0FFE5202451
:2018820004F88682088683EEF0EFA3F08B828C83E0FEA3E0FF8E828F83E0FEA3E0FF8B82C6
:2018A2008C83EEF0EFA3F0E5202406F8E608466054E5202406F88682088683E0FEA3E0FF08
:2018C200EEB50341EFB5043D8B828C83E0FBA3E0FCE5202406F88682088683EBF0ECA3F02A
:2018E200E5202406F8740226FEE40836FFE5202404F88682088683E0FCA3E0FD8E828F8348
:0B190200ECF0EDA3F0852081D0202246
:06003500E478FFF6D8FD9F
:200013007900E94400601B7A00901DC1780375A004E493F2A308B8000205A0D9F4DAF275AF
:02003300A0FF2C
:1B190D0020F71130F6138883A88220F509F6A8837583002280FEF280F5F022D9
:201928009000017403F07400A3F0901DBFE493FE740193FF1EBEFF011FEE2403FEEF340087
:20194800FF900003EEF0EFA3F0900001E0FEA3E0FF8E828F83A3A3E4F0A3F022C020E58165
:20196800F5202408F581AE82AF83900001E0F5F0A3E045F0700BC007C006121928D006D037
:2019880007EE4F600E74022EFCE43FFDC3EC9EED9F5006900000021B0174022EFDE43FFC30
:2019A800C3ED9404EC940050047D047C00900001E5202405F8E0F6A3E008F67A017B00E51D
:2019C800202405F8E608467003021AFEC002C003E5202405F88682088683A92009E0F7A3ED
:2019E800E009F7A820088602088603E5202405F8E5202403F9E6F708E609F7E5202403F8DC
:201A0800EAC396FAEB0896FB8A078B06C3EF9DEE9CD003D0025003021ADBC002C003740416
:201A28002DFAE43CFBC3EF9AEE9BD003D0024076E5202403F8ED26FEEC0836FFE52024079E
:201A4800F8A60608A607E5202407F88682088683A92009E7F009E7A3F0E5202407F874021A
:201A680026FEE40836FFE5202405F88682088683A3A3E0FCA3E0FD8E828F83ECF0EDA3F0BA
:201A88008A828B83E5202407F8E6F008E6A3F0E5202405F88682088683E5202407F9E7F066
:201AA80009E7A3F0801AE5202405F88682088683A3A3E0FEA3E0FF8A828B83EEF0EFA3F0A2
:201AC800E5202405F8740226FEE40836FF8E828F838026E5202405F8740226FEE40836FF74
:1F1AE8008E028F038E828F83E5202405F8E0F6A3E008F60219C7900000852081D0202274
:20003B007800E84400600A790175A000E4F309D8FC7802E84404600C7905900001E4F0A3B8
:04005B00D8FCD9FAFA
:021DBF0000041E
:0D000600758120121B68E582600302000373
:1C1B070020F71430F6148883A88220F507E6A88375830022E280F7E49322E022ED
:201B2300E58124FEF88601188600E84960367A01E825E0F8E933400EF9E58298E583994033
:201B4300030A80ECC3E913F9E813F8C3E58298F5F0E583994005F58385F082C3E913F9E862
:051B630013F8DAE7228F
:041B68007582002260
:00000001FF
