:03000000020006F5
:1C005F00752130752200752300753900753A00754200E4F543F544F545020003E8
:03000300020FC425
:20007B00901D1D75F0801212C3901D3275F0801212C3E54260117401B542067E4A7F1D8036
:20009B000A7E4E7F1D80047E537F1D7D808E828F838DF01212C3901D5775F0801212C390FF
:2000BB001D5A75F0801212C390002175F0401212C3901D7175F0801212C390000F1214C333
:2000DB007E008E831213B01212C375822E1212BA9000101214C37E008E831213B01212C3E3
:2000FB0075822E1212BA9000111214C37E008E831213B01212C375822E1212BA9000121256
:20011B0014C37E008E831213B01212C3901D8975F0801212C39000051214C37E008E831281
:20013B0013B01212C375822E1212BA9000061214C37E008E831213B01212C375822E1212E4
:20015B00BA9000071214C37E008E831213B01212C375822E1212BA9000081214C37E008E6F
:20017B00831213B01212C3901DA275F0801212C39000011214C37E008E831213B01212C345
:20019B0075822E1212BA9000021214C37E008E831213B01212C375822E1212BA90000312D3
:2001BB0014C37E008E831213B01212C375822E1212BA9000041214C37E008E831213B0120C
:2001DB0012C3901DBC75F0801212C39000091214C312136390000A1214C312136390000B4A
:2001FB001214C312136390000C1214C312136390000D1214C312136390000E1214C31213AC
:20021B0063901DD575F0800212C3C011858111C082C08305810581E5112403F8E4F608F6BC
:20023B00E51124FDF886027B00E5112403F8C3E69A08E664808BF063F08095F0503BE51113
:20025B002403F8E6243AF98703A811088602088607E5112403F88605088606ED2AFAEE3F4D
:20027B00FF8A828F83C0031214941581E5112403F806B60002080680A7851181D01122C051
:20029B0011858111C082C083C0F07C00E51124FDF8C3EC96502BEC2423F98703A81108EC38
:2002BB0026FAE40836FE0886078A828E838FF0121C2CFAEBB50202800575820080060C802C
:2002DB00CB758201851181D01122C011E581F5112404F5817410B539028006758200020454
:2002FB0066A911097700E904F87600740229C000F87600D0007F007E05BE10004003020432
:20031B0063EE2423FDC000A8058604D0007B008C828B83C007C006C005C001C000121BA728
:20033B00E5828583F0D000D001D005D006D00745F070030204558E04EC142423FBC000A8E1
:20035B00038603D0007A008B828A83C007C006C005C004C001C000121BA7E5828583F0D0F8
:20037B0000D001D004D005D006D00745F07003020455EC142423FCC000A8048604A704A8AC
:20039B00058605D000A6057C007D00C3EC9402ED64809480506AC000E5112404F8EFC4547D
:2003BB00F0F6EC29F88602D000BA3000401DEA24C64018C000EA24D0FAC000E5112404F8F6
:2003DB008603D000EA2BFFD000802EEC29FBC000A8038603D000BB41004019EB24B94014D2
:2003FB0074C92BFBC000E5112404F88602D000EB2AFF800575820080520CBC008E0D808B81
:20041B008E047D00EC24FCF582ED34FFF583C007C006C001C0007402C0E0E4C0E0121C8D34
:20043B00AC8215811581D000D001D006D007EC243AC000F8A607D0008005758200800C8EE4
:20045B000574022DFE020314758201851181D01122C011858111058105810581AF827E0087
:20047B007D00C3ED9539500DED2423F98704BC2E010E0D80EDBE0302800675820002056B2C
:20049B00EF2423F98707BF2E0675820002056B89077E007D4074D9C0E0741DC0E07480C08B
:2004BB00E08F828E838DF012179EAD82AE83AFF01581158115818D028E038F04ED4E7005B7
:2004DB00F58202056B7F008A828B838CF0C0071218A3AD82AE83D0078D048E03EC4B601B64
:2004FB00C0078C068B07C374FF9EE49FD007400BEF243AF98C05A7050F8012EC4B7009EFBA
:20051B00243AF876000F80057582008043C00774D9C0E0741DC0E07480C0E090000075F038
:20053B000012179EA81108A68208A68308A6F0158115811581D007A81108860208860308A6
:20055B008604A81108E6084660030204E2758201851181D01122E4C0E090000012149415C1
:20057B00817403C0E090001612149415817407C0E0900017121494158174D0C0E090001834
:20059B0012149415817405C0E09000191214941581753A7E753B0A753CC8753DFE7404C096
:2005BB00E09000011202251581753AFF753BFF753CC0753D007404C0E09000051202251565
:2005DB0081753A00753B08753CDC753D24753E4B753F5E7406C0E0900009120225158175AE
:2005FB003A7E753B0A753CD2753D0A7404C0E090000F12022515817402C0E09004001214D9
:20061B009415817421C0E0900500121494158174AAC0E090001A121494158174AAC0E09075
:20063B00001B12149415817413C0E090040412149415817488C0E09004051214941581742C
:20065B0017C0E090050412149415817470C0E09005051214941581227401C0E09004011293
:20067B00149415819004031214C3AF82BF2201227410C0E0900401121494158180DAC01138
:20069B00E581F5112404F581AE82AF83C2A5900420C007C0061214C39004211214C3C03AAA
:2006BB0090040C1214941581C03B90040D1214941581C03C90040E1214941581C03D9004C4
:2006DB000F1214941581C03E9004101214941581C03F90041112149415819004241214C319
:2006FB00AC827D00900425C005C0041214C3AB82D004D005D006D0077A00A81108EB4DF61D
:20071B00EA4C08F6A81108860208860353030F8A048B0574402DFDE5112403F8A60408A6E2
:20073B0005EE2AFCEF3BFDC3E49C74109D506EE4C39AFA74109BFBC007C006C003C002C015
:20075B0043C044C045C002C003E5112403F886820886831215A0E58124FBF581D002D00318
:20077B00D006D007EEC39AFCEF9BFDC006C007EA2543FAEB3544FBAF45C007C006C002C0A8
:20079B0003C007C004C0059040001215A0E58124FBF581D006D007D007D0068025C007C0D3
:2007BB0006C043C044C045C006C007E5112403F886820886831215A0E58124FBF581D006B9
:2007DB00D007A81108EE26FEEF0836FFFDC007C006C0059004241214941581D006D007C064
:2007FB000690042512149415817420C0E09004011214941581D2A5851181D01122C011E56F
:20081B0081F5112408F5819004261214C39004271214C39004281214C3AE827F009004293C
:20083B00C007C0061214C3AD82D006D0077C00EF4205EE42048D06740F5CFFA81108A60687
:20085B0008A607A8110886020886038A0674602BFFE5112403F8A60608A60774082AFEE462
:20087B003BFFC3E49E74109F4003020911C005C004A81108E4C396FE74100896FFC007C02F
:20089B0006C005C004743AC0E07400C0E07440C0E0C006C007E5112403F88682088683122B
:2008BB001506E58124FBF581D004D005D006D0077408C39EFBE49FFAEE243AFD7E007F40D6
:2008DB00C005C004C003C002C005C006C007C003C002906000121506E58124FBF581D0022E
:2008FB00D003D004D005E5112405F8A60308A602D004D0058047C005C004C003C002743AC5
:20091B00C0E07400C0E07440C0E07408C0E0E4C0E0E5112403F88682088683121506E58153
:20093B0024FBF581D002D003D004D00574082AFAE43BFBE5112405F8A60208A603C005C00A
:20095B0004E5112405F8860608860774602FFFAB407A00AC417D00E5112407F8EC4AF6ED3D
:20097B004B08F6E5112407F8E5112403F9E6F708E609F7E5112403F88682088683C007C064
:20099B0006121A04AC82AD83D006D0078C438D44754500E5112405F8E5112407F9E726FC67
:2009BB0009E70836FDC3E49C74109DD004D0055074C005C004E5112405F8E4C396FA7410C5
:2009DB000896FBC005C004C003C002C043C044C045C002C0038E828F83121506E58124FBF0
:2009FB00F581D002D003D004D005E5112407F8E6C39AFF08E69BFEEA2543FAEB3544FBADDE
:200A1B0045C005C004C002C003C005C007C006906000121506E58124FBF581D004D005D085
:200A3B0004D0058027C005C004C043C044C045E5112407F8E6C0E008E6C0E08E828F831225
:200A5B001506E58124FBF581D004D005E5112403F8740826FEE40836FFEE2DFDEF3CFCFFA8
:200A7B00C005C004C0079004281214941581D00490042912149415817440C0E09004011223
:200A9B0014941581AD43AE44AF458D828E838FF0121C2CB521537E007F008E048F05E511EC
:200ABB002407F8C3EC96ED08965031EE2543FBEF3544FCAD458B828C838DF0121C2CFABA59
:200ADB0061004011EA2485400CEA24E08B828C838DF012198B0EBE00C10F80BEE511240732
:200AFB00F88682088683120699AD43AE44AF458D828E838FF0121653851181D0112290047B
:200B1B00021214C3E58230E217C2A4D2A6120818C2A6D2A4741FC0E0900402121494158138
:200B3B00227401C0E090050112149415819005031214C3AF82BF13028017901DDB75F080F3
:200B5B001212C37410C0E0900501121494158180D07402C0E09005011214941581900503A5
:200B7B001214C3AF82BF1401227410C0E0900501121494158180AA9005021214C3E58230FF
:200B9B00E1277408C0E09005011214941581741FC0E090050212149415817410C0E090055D
:200BBB00011214941581020B3C9000001214C3E58260277408C0E0900501121494158174A3
:200BDB001FC0E090050212149415817410C0E09005011214941581020B3C22C011E581F5B3
:200BFB00112404F581AE82AF83C2A5900520C007C0061214C39005211214C39005241214B9
:200C1B00C3AC827D00900525C005C0041214C3AB82D004D005D006D0077A00A81108EB4D29
:200C3B00F6EA4C08F6A81108860208860353030F8A048B0574502DFDE5112403F8A604085D
:200C5B00A605EE2AFCEF3BFDC3E49C74109D506EE4C39AFA74109BFBC007C006C003C0020A
:200C7B00C043C044C045C002C003E5112403F886820886831215A0E58124FBF581D002D036
:200C9B0003D006D007EEC39AFCEF9BFDC006C007EA2543FAEB3544FBAF45C007C006C00240
:200CBB00C003C007C004C0059040001215A0E58124FBF581D006D007D007D0068025C007AE
:200CDB00C006C043C044C045C006C007E5112403F886820886831215A0E58124FBF581D0DA
:200CFB0006D007A81108EE26FEEF0836FFFDC007C006C0059005241214941581D006D007F8
:200D1B00C00690052512149415817420C0E09005011214941581D2A5851181D01122C0116C
:200D3B00E581F5112406F5819005261214C3AF82900527C0071214C3AE82D0077D008F0434
:200D5B007F00EE4207ED4204900528C007C0041214C3AE82D0048E057E00900529C006C005
:200D7B0005C0041214C3AB82D004D005D006D0077A00E5112403F8EB4EF6EA4D08F6E5113A
:200D9B002403F8860208860353030F8A058B0674702EFEA81108A60508A6068F828C83C06B
:200DBB0007C004C003C002121A04AD82AE83D002D003D004D0078D438E44754500EF2AFD76
:200DDB00EC3BFEC3E49D74109E506CE4C39AFA74109BFBC007C004C003C002C043C044C085
:200DFB0045C002C003A811088682088683121506E58124FBF581D002D003D004D007EFC30A
:200E1B009AFDEC9BFEC007C004EA2543FAEB3544FBAF45C007C004C002C003C007C005C015
:200E3B0006907000121506E58124FBF581D004D007D004D0078023C007C004C043C044C01E
:200E5B0045C007C004A811088682088683121506E58124FBF581D004D007E5112403F8EFF6
:200E7B0026FDEC0836FEFBC007C006C005C004C0039005281214941581D004D005D006C0EC
:200E9B0004C00590052912149415817440C0E09005011214941581D004D007AB43AD44AEEE
:200EBB00458B828D838EF0121C2CB52160E5112405F8E4F608F6E5112405F8860208860388
:200EDB00C3EA9FEB9C503DE5112405F8E62543FA08E63544FBAE458A828B838EF0121C2CF1
:200EFB00FDBD61004011ED2485400CED24E08A828B838EF012198BE5112405F806B6000275
:200F1B00080680B28F828C83120BF6C2A6AD43AE44AF458D828E838FF0121653851181D004
:200F3B0011229005021214C3E58230E0387401C0E090050212149415819005021214C3E5D3
:200F5B008230E218C2A4D2A6120D39C2A6D2A47404C0E0900502121494158122901DDD7596
:200F7B00F0800212C39005021214C3E58230E324901DE475F0801212C37410C0E0900501DA
:200F9B0012149415817408C0E09005021214941581020B3C22759850758920758DFDD29C90
:200FBB00D2ACD2AFD28EC298229003E812129F120FB0C2A1120571120673C2A6E5427005B2
:200FDB00120B1980167401B54208120F3D120B928009120B19120F3D120B92121437AF824F
:200FFB00BF30004005EF24C65026BF61004005EF2485501CBF41004005EF24A55012BF20AC
:20101B0002800DBF2E028008BF3F028003BF3D1874EB25394012E5392423F8A60705398F32
:20103B0082C0071212BAD007BF0823E539601FE5392423F876001539758208C0071212BA4B
:20105B007582201212BA7582081212BAD007BF0D028003020FD7E5397003020FD7E53924D8
:20107B0023F87600901DF075F0801212C390002375F0401212C3901DF775F0801212C37438
:20109B0001B5390B743FB5230612007B02127D7403C0E0901DFC75F08012029AAF82158172
:2010BB00EF601975820312046CE582600F7404C0E090000F120225158102127D7404C0E02C
:2010DB00901E0075F08012029AAF821581EF601C7405B53917AF27BF3000500302127DEF6C
:2010FB0024C6500302127D8F2102127D7404C0E0901E0575F08012029AAF821581EF601939
:20111B0075820412046CE582600F7404C0E0900005120225158102127D7404C0E0901E0A84
:20113B0075F08012029AAF821581EF60161202E5E582600F7406C0E0900009120225158184
:20115B0002127D7405C0E0901E0F75F08012029AAF821581EF601975820512046CE5826006
:20117B000F7404C0E0900001120225158102127D7405C0E0901E1575F08012029AAF821587
:20119B0081EF60257408B53920AF28BF540C7443B529077450B52A028041BF550C7444B530
:2011BB0029077450B52A0280327409B5390280030212747442B528028003021274744FB5FD
:2011DB00290280030212747454B52A0280030212747448B52B028003021274AF28BF422C5D
:2011FB007542027410C0E090040112149415817410C0E09005011214941581120673120B60
:20121B003C901E1B75F0801212C38056BF54247401B54202801D7542017410C0E090040159
:20123B001214941581120B3C901E3575F0801212C3802F7455B5282AE542602675420074E4
:20125B0010C0E09005011214941581120673901E4675F0801212C38009901E5775F080120D
:20127B0012C37E007F00C3EE9416EF64809480500DEE2423F876000EBE00EB0F80E8753963
:04129B0000020FD767
:201CFE005254553D0049503D005355423D00474154453D004D41433D004D4F44453D000AB9
:201D1E000D57697A4E657420416461707465723A0D0A0A00536574204D4F44453E202E20DE
:201D3E002E202E202E204D4F44453D0054435000424F544800554450000D0A0053657420D9
:201D5E005254552028302D39293E20202E205254553D000D0A5365742049503E202E202E89
:201D7E00202E202E202E2049503D000D0A536574205355424E45543E202E202E202E205396
:201D9E0055423D000D0A53657420474154453E202E202E202E202E20474154453D000D0AC2
:201DBE00536574204D41433E20202E202E202E202E204D41433D000A0D0A002E007A004E0D
:201DDE004F4E450D0A0074696D656F757472780D0A000D0A434F4D3E000D0A0D0A004950E9
:201DFE003D005254553D005355423D004D41433D00474154453D004D4F44453D0055445072
:201E1E002F5443503A353030302F36303030204F50454E0D0A00005443503A36303030202A
:201E3E004F50454E0D0A00005544503A35303030204F50454E0D0A0000496E76616C696423
:0E1E5E002C20747279203C3F3E0D0A0D0A00C4
:20129F00AE82AF83EE4F6012EE24FFFCEF34FFFDEC24FFFEED34FFFF80EA228582991099F1
:2012BF000280FB22AD82AE83AFF08D828E838FF0121C2CFC600C8C990DBD00010E1099EA7F
:2012DF0080FB22C011858111058105810581AF82E51124FBF88604088605088606EFC454E2
:2012FF000FFB53030F7A00EB246CF582EA341EF583E4938C828D838EF012198BA811087442
:20131F00012CF6E43D08F608A6068F0353030F7F00EB246CF582EF341EF583E493FFA81168
:20133F000886820886830886F0EF12198B74022CFCE43DFD8C828D838EF0E412198B8511C2
:20135F0081D01122C011858111058105810581AF82A911097700E904F87600740229F8769D
:20137F000089067D007C40C001C006C005C0048F821212E2158115811581D00189077E00BE
:20139F007D408F828E838DF01212C3851181D01122C011858111058105810581AE82AF83F5
:2013BF00A81108760D087600087640A8110816B6FF0208168E048F03C004C003740AC0E019
:2013DF00E4C0E08C828B83121C48AF8215811581D003D0048F0574302DFDA81108868208A1
:2013FF0086830886F0ED12198B740AC0E0E4C0E08C828B83121622AC82AD83158115818C86
:20141F00068D07EC4D70A4A8110886820886830886F0851181D01122109802800485998286
:05143F0022758200226D
:111E6C003031323334353637383941424344454600C3
:20144400E5827F00BF0802801120E704C2A38002D2A3D2A1C2A1330F80EA22E5837F00BF97
:201464000802801120E704C2A38002D2A3D2A1C2A1330F80EAE5827F00BF0802801120E79D
:2014840004C2A38002D2A3D2A1C2A1330F80EA22C011858111AE82AF83C2A07582F0C007EA
:2014A400C006121444D006D0078E828F8312145FE51124FDF88682121444D2A0D01122AE00
:2014C40082AF83C2A07D0075820FC007C006C005121444D005D006D0078E828F83C0051238
:2014E400145FD0057F00BF08005012D2A18D06EE2EFEA2A2E4334EFDC2A10F80E9D2A08D58
:201504008222C011858111C082C083E5812404F581E5112405F8E4F608F6E5112405F88626
:2015240002088603E51124FCF8C3EA96EB08965065E51124F9F8E5112405F9E726FA09E76B
:201544000836FB088607A81108E5112403F9E6F708E609F7E5112405F88604088606E511EC
:201564002403F8EC26FCEE0836FE8C828E83C007C003C0021214C3AE82D002D003D0078A86
:20158400828B838FF0EE12198BE5112405F806B6000208068084851181D01122C0118581BC
:2015A40011C082C08305810581E5112403F8E4F608F6E5112403F88602088603E51124FC54
:2015C400F8C3EA96EB0896504FE51124F9F8E5112403F9E726FA09E70836FB0886078A82B2
:2015E4008B838FF0121C2CFAA811088606088607E5112403F88603088605EB2EFEED3FFFB1
:1E160400C0028E828F831214941581E5112403F806B600020806809A851181D011227F
:20162200E58124FEF8E6F918E6F87A10E4FBFCE58225E0F582E58333F583EB33FBEC33FCC4
:11164200EB98F5F0EC994006FCABF0438201DADF222C
:20165300C011858111C082C083C0F0E5812404F581A81108E608467003021798E51124061D
:20167300F8E4F608F6900001E0FAA3E0FF7D017E00EA4F6037C005C006A811088605088669
:2016930006C3EA9DEF9ED006D0055020E5112406F8A60208A60774022AFBE43FFC8B058CF4
:2016B300068B828C83E0FAA3E0FF80C5A811088603088604EB24FEFBEC34FFFCE511240437
:2016D300F874022BF6E43C08F6E5112404F88682088683EAF0EFA3F08D828E83EBF0ECA335
:2016F300F08B828C83E0FDA3E0FEEAB50539EFB506358D828E83A3A3E0FEA3E0FFE51124D1
:2017130004F88682088683EEF0EFA3F08B828C83E0FEA3E0FF8E828F83E0FEA3E0FF8B8236
:201733008C83EEF0EFA3F0E5112406F8E608466054E5112406F88682088683E0FEA3E0FF96
:20175300EEB50341EFB5043D8B828C83E0FBA3E0FCE5112406F88682088683EBF0ECA3F0A9
:20177300E5112406F8740226FEE40836FFE5112404F88682088683E0FCA3E0FD8E828F83D6
:0B179300ECF0EDA3F0851181D01122D5
:20179E00C011858111AD82AE83AFF0ED4E60068D0E8E0F8F10E50E450F7008900000F5F098
:2017BE000218A0AD0EAE0FAF108D828E838FF0121C2C6036AD0EAE0FAF108D828E838FF0B5
:2017DE00121C2CFDC005E51124FBF886820886830886F0121BDFAD82AE831581ED4E600A84
:2017FE00050EE4B50EBD050F80B9AD0EAE0FAF10AA0EAB0FAC108A828B838CF0121C2C6052
:20181E0061AA0EAB0FAC108A828B838CF0121C2CFAC007C006C005C002E51124FBF8868208
:20183E000886830886F0121BDFAA82AB831581D005D006D007EA4B601FAA0EAB0FAC108A11
:20185E00828B838CF0E412198B050EB50E02050F8D828E838FF0802A050EE4B50E92050F2F
:20187E00808EE4F50EF50FF5108D828E838FF0121C2C60088D828E838FF0800690000075C1
:05189E00F000D0112252
:06003500E478FFF6D8FD9F
:2018A300C011E581F5112406F581AD82AE83AFF07B007C008D828E838FF0121C2CFABA2085
:2018C300028003BA09070DBD00EA0E80E7A81108A60508A60608A6078D828E838FF0121CEB
:2018E3002CFFBF2D03D38001C39200BF2D028003BF2B09A8110806B600020806A81108E58B
:20190300112404F9E6F708E609F708E609F7E5112404F886820886830886F0121C2CFABA1E
:20192300300092014048EA24C692014041C020C003C00490000A1219A6AA82AF8315811596
:2019430081D020E5112404F886820886830886F0121C2CFEA31818A68208A6837D00EE2453
:20196300D0FEED34FFFDEE2AFBED3FFC80A0300009C3E49BFEE49CFF80048B068C078E826E
:081983008F83851181D0112230
:200013007900E94400601B7A00901E7F780375A004E493F2A308B8000205A0D9F4DAF275F0
:02003300A0FF2C
:1B198B0020F71130F6138883A88220F509F6A8837583002280FEF280F5F0225B
:2019A60074FE2581F8E68582F0A4C0E08582F018E6A4F582D0E025F0C58386F0A42583F51C
:0219C60083227A
:2019C8009000017403F07400A3F0901E7DE493FE740193FF1EBEFF011FEE2403FEEF340028
:2019E800FF900003EEF0EFA3F0900001E0FEA3E0FF8E828F83A3A3E4F0A3F022C011E581D4
:201A0800F5112408F581AE82AF83900001E0F5F0A3E045F0700BC007C0061219C8D006D005
:201A280007EE4F600E74022EFCE43FFDC3EC9EED9F5006900000021BA174022EFDE43FFCEF
:201A4800C3ED9404EC940050047D047C00900001E5112405F8E0F6A3E008F67A017B00E58B
:201A6800112405F8E608467003021B9EC002C003E5112405F88682088683A91109E0F7A3D8
:201A8800E009F7A811088602088603E5112405F8E5112403F9E6F708E609F7E5112403F877
:201AA800EAC396FAEB0896FB8A078B06C3EF9DEE9CD003D0025003021B7BC002C0037404D5
:201AC8002DFAE43CFBC3EF9AEE9BD003D0024076E5112403F8ED26FEEC0836FFE51124071C
:201AE800F8A60608A607E5112407F88682088683A91109E7F009E7A3F0E5112407F87402A7
:201B080026FEE40836FFE5112405F88682088683A3A3E0FCA3E0FD8E828F83ECF0EDA3F028
:201B28008A828B83E5112407F8E6F008E6A3F0E5112405F88682088683E5112407F9E7F0F2
:201B480009E7A3F0801AE5112405F88682088683A3A3E0FEA3E0FF8A828B83EEF0EFA3F010
:201B6800E5112405F8740226FEE40836FF8E828F838026E5112405F8740226FEE40836FFF1
:1F1B88008E028F038E828F83E5112405F8E0F6A3E008F6021A67900000851181D011225F
:201BA700AE82AF83C007C006121CCAE5828583F0D006D00745F07012BE300092004007EEBF
:181BC70024C692005004C2008002D200A200E433FE7F008E828F8322A6
:20003B007800E84400600A790175A000E4F309D8FC7802E84404600C7905900001E4F0A3B8
:04005B00D8FCD9FAFA
:201BDF00C011858111AD82AE83AFF08D828E838FF0121C2CFC6012E51124FDF8E6B50402E8
:201BFF0080070DBD00E50E80E28D828E838FF0121C2CFCE51124FDF8E6B504088D828E8355
:0D1C1F008FF0800690000075F000D01122BB
:021E7D0000045F
:0D000600758145121CFAE5826003020003BB
:1C1C2C0020F71430F6148883A88220F507E6A88375830022E280F7E49322E022C7
:201C4800E58124FEF88601188600E84960367A01E825E0F8E933400EF9E58298E58399400D
:201C6800030A80ECC3E913F9E813F8C3E58298F5F0E583994005F58385F082C3E913F9E83C
:051C880013F8DAE72269
:201C8D00C2D5E58330E70DD2D5E4C39582F582E49583F583E58124FEF8E630E70AB2D5189E
:1D1CAD00E4C396F6E40896F918E6F812162C30D50BE4C39582F582E49583F5832247
:201CCA00AE82BE410092004007EE24A592005012BE610092004007EE248592005004C20010
:101CEA008002D200A200E433FE7F008E828F83221C
:041CFA0075820022CD
:00000001FF
