:03000000020006F5
:1C005F00752130752200752300753900753A00754200E4F543F544F545020003E8
:030003000210F0F8
:20007B00759850758920758DFDD29CD2AFD2ACD28EC29822901E4C75F0801213FF901E6190
:20009B0075F0801213FFE54260117401B542067E797F1E800A7E7D7F1E80047E827F1E7DDE
:2000BB00808E828F838DF01213FF901E8675F0801213FF901E8975F0801213FF900021753F
:2000DB00F0401213FF901EA075F0801213FF90000F1215F27E008E831214EC1213FF7582E6
:2000FB002E1213F69000101215F27E008E831214EC1213FF75822E1213F69000111215F224
:20011B007E008E831214EC1213FF75822E1213F69000121215F27E008E831214EC1213FF3F
:20013B00901EB875F0801213FF9000051215F27E008E831214EC1213FF75822E1213F690F2
:20015B0000061215F27E008E831214EC1213FF75822E1213F69000071215F27E008E83120F
:20017B0014EC1213FF75822E1213F69000081215F27E008E831214EC1213FF901ED175F0A6
:20019B00801213FF9000011215F27E008E831214EC1213FF75822E1213F69000021215F246
:2001BB007E008E831214EC1213FF75822E1213F69000031215F27E008E831214EC1213FFAE
:2001DB0075822E1213F69000041215F27E008E831214EC1213FF901EEB75F0801213FF9020
:2001FB0000091215F212149F90000A1215F212149F90000B1215F212149F90000C1215F257
:20021B0012149F90000D1215F212149F90000E1215F212149F901F0475F0800213FFC0118A
:20023B00858111C082C08305810581E5112403F8E4F608F6E51124FDF886027B00E51124E2
:20025B0003F8C3E69A08E664808BF063F08095F0503BE5112403F8E6243AF98703A8110878
:20027B008602088607E5112403F88605088606ED2AFAEE3FFF8A828F83C0031215C3158174
:20029B00E5112403F806B60002080680A7851181D01122C011858111C082C083C0F07C0088
:2002BB00E51124FDF8C3EC96502BEC2423F98703A81108EC26FAE40836FE0886078A828E82
:2002DB00838FF0121D5BFAEBB50202800575820080060C80CB758201851181D01122C0119D
:2002FB00E581F5112404F5817410B53902800675820002047AA911097700E904F87600745F
:20031B000229C000F87600D0007F007E05BE10004003020477EE2423FDC000A8058604D010
:20033B00007B008C828B83C007C006C005C001C000121CD6E5828583F0D000D001D005D08F
:20035B0006D00745F070030204698E04EC142423FBC000A8038603D0007A008B828A83C0A2
:20037B0007C006C005C004C001C000121CD6E5828583F0D000D001D004D005D006D00745EC
:20039B00F07003020469EC142423FCC000A8048604A704A8058605D000A6057C007D00C31D
:2003BB00EC9402ED64809480506AC000E5112404F8EFC454F0F6EC29F88602D000BA3000EF
:2003DB00401DEA24C64018C000EA24D0FAC000E5112404F88603D000EA2BFFD000802EEC34
:2003FB0029FBC000A8038603D000BB41004019EB24B9401474C92BFBC000E5112404F886CA
:20041B0002D000EB2AFF800575820080520CBC008E0D808B8E047D00EC24FCF582ED34FF6D
:20043B00F583C007C006C001C0007402C0E0E4C0E0121DBCAC8215811581D000D001D006C5
:20045B00D007EC243AC000F8A607D0008005758200800C8E0574022DFE0203287582018545
:20047B001181D01122C011858111058105810581AF827E007D00C3ED9539500DED2423F91E
:20049B008704BC2E010E0D80EDBE0302800675820002057FEF2423F98707BF2E06758200D6
:2004BB0002057F89077E007D407408C0E0741FC0E07480C0E08F828E838DF01218CDAD8228
:2004DB00AE83AFF01581158115818D028E038F04ED4E7005F58202057F7F008A828B838CEA
:2004FB00F0C0071219D2AD82AE83D0078D048E03EC4B601BC0078C068B07C374FF9EE49FE0
:20051B00D007400BEF243AF98C05A7050F8012EC4B7009EF243AF876000F80057582008004
:20053B0043C0077408C0E0741FC0E07480C0E090000075F0001218CDA81108A68208A683AD
:20055B0008A6F0158115811581D007A811088602088603088604A81108E60846600302047F
:20057B00F6758201851181D01122E4C0E09000001215C3158174C3C0E09000161215C31548
:20059B00817407C0E09000171215C3158174D0C0E09000181215C315817405C0E0900019AF
:2005BB001215C31581753A7E753B0A753CC8753DFE7404C0E09000011202391581753AFF56
:2005DB00753BFF753CC0753D007404C0E09000051202391581753A00753B08753CDC753DF8
:2005FB0024753E4B753F5E7406C0E09000091202391581753A7E753B0A753CD2753D0A747C
:20061B0004C0E090000F12023915817402C0E09004001215C315817421C0E090050012157E
:20063B00C31581740AC0E090001A1215C31581740AC0E090001B1215C315817413C0E090FE
:20065B0004041215C315817488C0E09004051215C315817417C0E09005041215C31581748A
:20067B0070C0E09005051215C31581227401C0E09004011215C315819004031215F2AF8208
:20069B00BF2201227410C0E09004011215C3158180DAC011E581F5112404F581AE82AF836B
:2006BB00C2A5900420C007C0061215F29004211215F2C03A90040C1215C31581C03B9004E7
:2006DB000D1215C31581C03C90040E1215C31581C03D90040F1215C31581C03E9004101280
:2006FB0015C31581C03F9004111215C315819004241215F2AC827D00900425C005C004127D
:20071B0015F2AB82D004D005D006D0077A00A81108EB4DF6EA4C08F6A811088602088603BD
:20073B0053030F8A048B0574402DFDE5112403F8A60408A605EE2AFCEF3BFDC3E49C7410C9
:20075B009D40030207EF901F0A75F080C007C006C003C0021213FFD002D003E4C39AFA747E
:20077B00109BFBC003C002E51124FBF8E6C0E008E6C0E008E6C0E0C002C003E5112403F8EA
:20079B0086820886831216CFE58124FBF581D002D003D006D007EEC39AFCEF9BFDC006C08D
:2007BB0007E51124FBF8EA26FAEB0836FB088607C007C006C002C003C007C004C005904015
:2007DB00001216CFE58124FBF581D006D007D007D006802FC007C006E51124FBF8E6C0E0E3
:2007FB0008E6C0E008E6C0E0C006C007E5112403F886820886831216CFE58124FBF581D045
:20081B0006D007A81108EE26FEEF0836FFFDC007C006C0059004241215C31581D006D007AD
:20083B00C0069004251215C315817420C0E09004011215C315819000001215F2E582600BDA
:20085B00901F1675F0801213FF80149004021215F2E58230E309901F2775F0801213FFD238
:20087B00A5851181D01122C011E581F5112411F5819004261215F2AF82900427C007121509
:20089B00F2AE82D0077D008F047F00EE4207ED4204E5112410F8A60708A6049004281215E7
:2008BB00F2AD827E00900429C006C0051215F2AB82D005D0067A00EE4203ED42028B057463
:2008DB000F5AFEA81108A60508A606A81108860474600826FFE5112403F8A60408A607A80E
:2008FB001108740826FCE40836FFC3E49C74109F40030209AEC003C002901F3875F080C092
:20091B0006C005C003C0021213FFD002D003D005D006E4C39DFD74109EFEC006C005C00349
:20093B00C002743AC0E07400C0E07440C0E0C005C006E5112403F88682088683121635E529
:20095B008124FBF581D002D003D005D0067408C39DFCE49EFFED243AFB7D007E40C007C0B5
:20097B0004C003C002C003C005C006C004C007906000121635E58124FBF581D002D003D03D
:20099B0004D007E5112408F8A60408A607D002D0038043C003C002743AC0E07400C0E07425
:2009BB0040C0E07408C0E0E4C0E0E5112403F88682088683121635E58124FBF581D002D074
:2009DB0003A81108740826FEE40836FFE5112408F8A60608A607C003C002E5112408F886D7
:2009FB000608860774602FFFE511240AF8A60608A607AD407C00AA417B00E511240EF8EAE9
:200A1B004CF6EB4D08F6E511240EF8E5112403F9E6F708E609F7E5112403F8868208868314
:200A3B00C003C002121B33AC82AD83D002D0038C438D44754500E5112408F8E5112410F91C
:200A5B00E726FC09E70836FDC3E49C74109DD002D0034003020B78C003C002E5112408F8D7
:200A7B00E4C396FC74100896FDE511240EF88682088683C005C0041214ECAA82AB83C00312
:200A9B00C0021213FF75820A1213F6D002D003D004D0058C828D83C005C004C0021214EC70
:200ABB00AB82AE83AFF0D0028B828E838FF0C003C0021213FF75820A1213F6D002D003D075
:200ADB0004D005C005C004C003C002C043C044C045C004C005E511240AF886820886831238
:200AFB001635E58124FBF581D002D003D004D005E511240EF8E511240CF9E6C39CF708E6DE
:200B1B009D09F7E511240CF88682088683C005C0041214ECAA82AB83C003C0021213FFD078
:200B3B0002D003D004D005EC2543FCED3544FDAF45C003C002C004C005C007E511240CF882
:200B5B00E6C0E008E6C0E0906000121635E58124FBF581D002D003D002D003802DC003C0A4
:200B7B0002C043C044C045E511240EF8E6C0E008E6C0E0E511240AF8868208868312163586
:200B9B00E58124FBF581D002D003AD43AE44AF458D828E838FF0121D5BB521028003020C32
:200BBB003A7E007F008E048F05E511240EF8C3EC96ED08965048E5112405F8EE2543F6EFE3
:200BDB00354408F608A645E5112405F886820886830886F0121D5BFDBD6100401AED24854D
:200BFB004015ED24E0FDE5112405F886820886830886F0ED121ABA0EBE00AA0F80A7C003A7
:200C1B00C002C043C044C045E511240EF886820886831206AD158115811581D002D003E5A1
:200C3B00112403F8740826FEE40836FFEE2BFBEF3AFAFFC003C002C0079004281215C3156B
:200C5B0081D0029004291215C315817440C0E09004011215C31581741FC0E0900402121590
:200C7B00C31581AD43AE44AF458D828E838FF0121782851181D011229004021215F2E582B0
:200C9B0030E20BC2A4D2A6120882C2A6D2A4227401C0E09005011215C315819005031215B8
:200CBB00F2AF82BF13028017901F3D75F0801213FF7410C0E09005011215C3158180D07498
:200CDB0002C0E09005011215C315819005031215F2AF82BF1401227410C0E0900501121588
:200CFB00C3158180AA9005021215F2E58220E10B9005021215F2E58230E31B7410C0E0903A
:200D1B0005011215C31581741FC0E09005021215C31581020CAA22C011E581F5112404F5B4
:200D3B0081AE82AF83C2A5900520C007C0061215F29005211215F29005241215F2AC827DA7
:200D5B0000900525C005C0041215F2AB82D004D005D006D0077A00A81108EB4DF6EA4C08F2
:200D7B00F6A81108860208860353030F8A048B0574502DFDE5112403F8A60408A605EE2A8D
:200D9B00FCEF3BFDC3E49C74109D4003020E29901F3F75F080C007C006C003C0021213FF2C
:200DBB00D002D003E4C39AFA74109BFBC003C002C043C044C045C002C003E5112403F8866D
:200DDB00820886831216CFE58124FBF581D002D003D006D007EEC39AFCEF9BFDC006C007C6
:200DFB00EA2543FAEB3544FBAF45C007C006C002C003C007C004C0059040001216CFE581AA
:200E1B0024FBF581D006D007D007D0068025C007C006C043C044C045C006C007E5112403E0
:200E3B00F886820886831216CFE58124FBF581D006D007A81108EE26FEEF0836FFFDC00724
:200E5B00C006C0059005241215C31581D006D007C0069005251215C315817420C0E090053D
:200E7B00011215C315819000001215F2E582600B901F1675F0801213FF801490040212153C
:200E9B00F2E58230E309901F2775F0801213FFD2A5851181D01122C011E581F5112406F5F6
:200EBB00819005261215F2AF82900527C0071215F2AE82D0077D008F047F00EE4207ED42F9
:200EDB0004900528C007C0041215F2AE82D0048E057E00900529C006C005C0041215F2ABAC
:200EFB0082D004D005D006D0077A00E5112403F8EB4EF6EA4D08F6E5112403F886020886E1
:200F1B000353030F8A058B0674702EFEA81108A60508A6068F828C83C007C004C003C002CE
:200F3B00121B33AD82AE83D002D003D004D0078D438E44754500EF2AFDEC3BFEC3E49D7437
:200F5B00109E4003020FE4901F4E75F080C007C004C003C0021213FFD002D003E4C39AFA9A
:200F7B0074109BFBC003C002C043C044C045C002C003A811088682088683121635E5812465
:200F9B00FBF581D002D003D004D007EFC39AFDEC9BFE1ABAFF011BC007C004EA2543FAEBF6
:200FBB003544FBAF45C007C004C002C003C007C005C006907000121635E58124FBF581D024
:200FDB0004D007D004D0078023C007C004C043C044C045C007C004A81108868208868312BF
:200FFB001635E58124FBF581D004D007E5112403F8EF26FDEC0836FEFBC007C006C005C089
:20101B0004C0039005281215C31581D004D005D006C004C0059005291215C315817440C0F7
:20103B00E09005011215C31581741FC0E09005021215C31581D004D007AB43AD44AE458B4D
:20105B00828D838EF0121D5BB5215EE5112405F8E4F608F6E5112405F88602088603C3EADB
:20107B009FEB9C503DE5112405F8E62543FA08E63544FBAE458A828B838EF0121D5BFDBD12
:20109B0061004011ED2485400CED24E08A828B838EF0121ABAE5112405F806B6000208064F
:2010BB0080B28F828C83120D32AD43AE44AF458D828E838FF0121782851181D011229005A3
:2010DB00021215F2E58230E20BC2A4D2A6120EB2C2A6D2A4229003E81213CB12007BC2A14B
:2010FB00120585120687C2A6E5427005120C9380167401B542081210D9120D008009120C1A
:20111B00931210D9120D00121573AF82BF30004005EF24C65026BF61004005EF2485501C50
:20113B00BF41004005EF24A55012BF2002800DBF2E028008BF3F028003BF3D1874EB2539FC
:20115B004012E5392423F8A60705398F82C0071213F6D007BF0823E539601FE5392423F82C
:20117B0076001539758208C0071213F67582201213F67582081213F6D007BF0D0280030239
:20119B001103E5397003021103E5392423F87600901F5775F0801213FF90002375F040122D
:2011BB0013FF901F5E75F0801213FF7401B5390B743FB5230612008F0213A97403C0E090E7
:2011DB001F6375F0801202AEAF821581EF6019758203120480E582600F7404C0E090000F7F
:2011FB0012023915810213A97404C0E0901F6775F0801202AEAF821581EF601C7405B539C5
:20121B0017AF27BF300050030213A9EF24C650030213A98F210213A97404C0E0901F6C75C6
:20123B00F0801202AEAF821581EF6019758204120480E582600F7404C0E0900005120239D1
:20125B0015810213A97404C0E0901F7175F0801202AEAF821581EF60161202F9E582600F31
:20127B007406C0E090000912023915810213A97405C0E0901F7675F0801202AEAF82158153
:20129B00EF6019758205120480E582600F7404C0E090000112023915810213A97405C0E000
:2012BB00901F7C75F0801202AEAF821581EF60257408B53920AF28BF540C7443B529077476
:2012DB0050B52A028041BF550C7444B529077450B52A0280327409B5390280030213A074D4
:2012FB0042B5280280030213A0744FB5290280030213A07454B52A0280030213A07448B54D
:20131B002B0280030213A0AF28BF422C7542027410C0E09004011215C315817410C0E090A3
:20133B0005011215C31581120687120CAA901F8275F0801213FF8056BF54247401B54202F0
:20135B00801D7542017410C0E09004011215C31581120CAA901F9C75F0801213FF802F74A5
:20137B0055B5282AE54260267542007410C0E09005011215C31581120687901FAD75F08078
:20139B001213FF8009901FBE75F0801213FF7E007F00C3EE9416EF64809480500DEE24233E
:1013BB00F876000EBE00EB0F80E8753900021103C2
:201E2D005254553D0049503D005355423D00474154453D004D41433D004D4F44453D000A88
:201E4D000D57697A4E657420416461707465723A0D0A0A00536574204D4F44453E202E20AE
:201E6D002E202E202E204D4F44453D0054435000424F544800554450000D0A0053657420A9
:201E8D005254552028302D39293E20202E205254553D000D0A5365742049503E202E202E59
:201EAD00202E202E202E2049503D000D0A536574205355424E45543E202E202E202E205366
:201ECD0055423D000D0A53657420474154453E202E202E202E202E20474154453D000D0A92
:201EED00536574204D41433E20202E202E202E202E204D41433D000A0D0A002E0009207507
:201F0D0064707478200D0A000053656E6420636F6D706C6574650D0A00000D0A53656E6402
:201F2D00206661696C65640D0A000075647031007A0009206F766572666C6F77200D0A0030
:201F4D00004F766572666C6F77000D0A434F4D3E000D0A0D0A0049503D005254553D00535D
:201F6D0055423D004D41433D00474154453D004D4F44453D005544502F5443503A353030E4
:201F8D00302F36303030204F50454E0D0A00005443503A36303030204F50454E0D0A000056
:201FAD005544503A35303030204F50454E0D0A0000496E76616C69642C20747279203C3FB6
:061FCD003E0D0A0D0A00A2
:2013CB00AE82AF83EE4F6012EE24FFFCEF34FFFDEC24FFFEED34FFFF80EA22758CFF758A0E
:2013EB00F6D28C308DFDC28CC28D2285829910990280FB22AD82AE83AFF08D828E838FF08F
:20140B00121D5BFC600C8C990DBD00010E1099EA80FB22C011858111058105810581AF82F6
:20142B00E51124FBF88604088605088606EFC4540FFB53030F7A00EB24D3F582EA341FF568
:20144B0083E4938C828D838EF0121ABAA8110874012CF6E43D08F608A6068F0353030F7F64
:20146B0000EB24D3F582EF341FF583E493FFA8110886820886830886F0EF121ABA74022C09
:20148B00FCE43DFD8C828D838EF0E4121ABA851181D01122C011858111058105810581AF7E
:2014AB0082A911097700E904F87600740229F8760089067D007C40C001C006C005C0048F96
:2014CB008212141E158115811581D00189077E007D408F828E838DF01213FF851181D01122
:2014EB0022C011858111058105810581AE82AF83A81108760D087600087640A8110816B6D6
:20150B00FF0208168E048F03C004C003740AC0E0E4C0E08C828B83121D77AF821581158135
:20152B00D003D0048F0574302DFDA8110886820886830886F0ED121ABA740AC0E0E4C0E0CA
:20154B008C828B83121751AC82AD83158115818C068D07EC4D70A4A811088682088683080B
:15156B0086F0851181D0112210980280048599822275820022D2
:111FD30030313233343536373839414243444546005B
:20158000AE82AF837D00BD10005017EF30E704D2A38002C2A3D2A1EE2EFEEF33FFC2A10DB4
:2015A00080E422AF827E00BE08005016EF30E704D2A38002C2A3D2A18F05ED2DFFC2A10ED3
:2015C00080E522C011858111AE82AF83C2A07582F0C007C0061215A3D006D0078E828F83CB
:2015E000121580E51124FDF886821215A3D2A0D01122AE82AF83C2A07D0075820FC007C020
:2016000006C0051215A3D005D006D0078E828F83C005121580D0057F00BF08005012D2A135
:201620008D06EE2EFEA2A2E4334EFDC2A10F80E9D2A08D8222C011858111C082C083E58106
:201640002404F581E5112405F8E4F608F6E5112405F88602088603E51124FCF8C3EA96EB91
:2016600008965065E51124F9F8E5112405F9E726FA09E70836FB088607A81108E511240351
:20168000F9E6F708E609F7E5112405F88604088606E5112403F8EC26FCEE0836FE8C828E68
:2016A00083C007C003C0021215F2AE82D002D003D0078A828B838FF0EE121ABAE51124050A
:2016C000F806B6000208068084851181D01122C011858111C082C08305810581E511240392
:2016E000F8E4F608F6E5112403F88602088603E51124FCF8C3EA96EB0896504FE51124F960
:20170000F8E5112403F9E726FA09E70836FB0886078A828B838FF0121D5BFAA8110886068C
:20172000088607E5112403F88603088605EB2EFEED3FFFC0028E828F831215C31581E51147
:111740002403F806B600020806809A851181D0112279
:20175100E58124FEF8E6F918E6F87A10E4FBFCE58225E0F582E58333F583EB33FBEC33FC94
:11177100EB98F5F0EC994006FCABF0438201DADF22FC
:20178200C011858111C082C083C0F0E5812404F581A81108E6084670030218C7E5112406BD
:2017A200F8E4F608F6900001E0FAA3E0FF7D017E00EA4F6037C005C006A811088605088639
:2017C20006C3EA9DEF9ED006D0055020E5112406F8A60208A60774022AFBE43FFC8B058CC4
:2017E200068B828C83E0FAA3E0FF80C5A811088603088604EB24FEFBEC34FFFCE511240407
:20180200F874022BF6E43C08F6E5112404F88682088683EAF0EFA3F08D828E83EBF0ECA304
:20182200F08B828C83E0FDA3E0FEEAB50539EFB506358D828E83A3A3E0FEA3E0FFE51124A0
:2018420004F88682088683EEF0EFA3F08B828C83E0FEA3E0FF8E828F83E0FEA3E0FF8B8206
:201862008C83EEF0EFA3F0E5112406F8E608466054E5112406F88682088683E0FEA3E0FF66
:20188200EEB50341EFB5043D8B828C83E0FBA3E0FCE5112406F88682088683EBF0ECA3F079
:2018A200E5112406F8740226FEE40836FFE5112404F88682088683E0FCA3E0FD8E828F83A6
:0B18C200ECF0EDA3F0851181D01122A5
:2018CD00C011858111AD82AE83AFF0ED4E60068D0E8E0F8F10E50E450F7008900000F5F068
:2018ED000219CFAD0EAE0FAF108D828E838FF0121D5B6036AD0EAE0FAF108D828E838FF025
:20190D00121D5BFDC005E51124FBF886820886830886F0121D0EAD82AE831581ED4E600AF2
:20192D00050EE4B50EBD050F80B9AD0EAE0FAF10AA0EAB0FAC108A828B838CF0121D5B60F1
:20194D0061AA0EAB0FAC108A828B838CF0121D5BFAC007C006C005C002E51124FBF88682A8
:20196D000886830886F0121D0EAA82AB831581D005D006D007EA4B601FAA0EAB0FAC108AB0
:20198D00828B838CF0E4121ABA050EB50E02050F8D828E838FF0802A050EE4B50E92050FCF
:2019AD00808EE4F50EF50FF5108D828E838FF0121D5B60088D828E838FF080069000007561
:0519CD00F000D0112222
:06003500E478FFF6D8FD9F
:2019D200C011E581F5112406F581AD82AE83AFF07B007C008D828E838FF0121D5BFABA2025
:2019F200028003BA09070DBD00EA0E80E7A81108A60508A60608A6078D828E838FF0121DBA
:201A12005BFFBF2D03D38001C39200BF2D028003BF2B09A8110806B600020806A81108E52B
:201A3200112404F9E6F708E609F708E609F7E5112404F886820886830886F0121D5BFABABE
:201A5200300092014048EA24C692014041C020C003C00490000A121AD5AA82AF8315811536
:201A720081D020E5112404F886820886830886F0121D5BFEA31818A68208A6837D00EE24F3
:201A9200D0FEED34FFFDEE2AFBED3FFC80A0300009C3E49BFEE49CFF80048B068C078E823E
:081AB2008F83851181D0112200
:200013007900E94400601B7A00901FE6780375A004E493F2A308B8000205A0D9F4DAF27588
:02003300A0FF2C
:1B1ABA0020F71130F6138883A88220F509F6A8837583002280FEF280F5F0222B
:201AD50074FE2581F8E68582F0A4C0E08582F018E6A4F582D0E025F0C58386F0A42583F5EC
:021AF50083224A
:201AF7009000017403F07400A3F0901FE4E493FE740193FF1EBEFF011FEE2403FEEF340090
:201B1700FF900003EEF0EFA3F0900001E0FEA3E0FF8E828F83A3A3E4F0A3F022C011E581A3
:201B3700F5112408F581AE82AF83900001E0F5F0A3E045F0700BC007C006121AF7D006D0A5
:201B570007EE4F600E74022EFCE43FFDC3EC9EED9F5006900000021CD074022EFDE43FFC8F
:201B7700C3ED9404EC940050047D047C00900001E5112405F8E0F6A3E008F67A017B00E55B
:201B9700112405F8E608467003021CCDC002C003E5112405F88682088683A91109E0F7A378
:201BB700E009F7A811088602088603E5112405F8E5112403F9E6F708E609F7E5112403F847
:201BD700EAC396FAEB0896FB8A078B06C3EF9DEE9CD003D0025003021CAAC002C003740475
:201BF7002DFAE43CFBC3EF9AEE9BD003D0024076E5112403F8ED26FEEC0836FFE5112407EC
:201C1700F8A60608A607E5112407F88682088683A91109E7F009E7A3F0E5112407F8740276
:201C370026FEE40836FFE5112405F88682088683A3A3E0FCA3E0FD8E828F83ECF0EDA3F0F8
:201C57008A828B83E5112407F8E6F008E6A3F0E5112405F88682088683E5112407F9E7F0C2
:201C770009E7A3F0801AE5112405F88682088683A3A3E0FEA3E0FF8A828B83EEF0EFA3F0E0
:201C9700E5112405F8740226FEE40836FF8E828F838026E5112405F8740226FEE40836FFC1
:1F1CB7008E028F038E828F83E5112405F8E0F6A3E008F6021B96900000851181D01122FF
:201CD600AE82AF83C007C006121DF9E5828583F0D006D00745F07012BE300092004007EE5F
:181CF60024C692005004C2008002D200A200E433FE7F008E828F832276
:20003B007800E84400600A790175A000E4F309D8FC7802E84404600C7905900001E4F0A3B8
:04005B00D8FCD9FAFA
:201D0E00C011858111AD82AE83AFF08D828E838FF0121D5BFC6012E51124FDF8E6B5040287
:201D2E0080070DBD00E50E80E28D828E838FF0121D5BFCE51124FDF8E6B504088D828E83F4
:0D1D4E008FF0800690000075F000D011228B
:021FE4000004F7
:0D000600758145121E29E58260030200038A
:1C1D5B0020F71430F6148883A88220F507E6A88375830022E280F7E49322E02297
:201D7700E58124FEF88601188600E84960367A01E825E0F8E933400EF9E58298E5839940DD
:201D9700030A80ECC3E913F9E813F8C3E58298F5F0E583994005F58385F082C3E913F9E80C
:051DB70013F8DAE72239
:201DBC00C2D5E58330E70DD2D5E4C39582F582E49583F583E58124FEF8E630E70AB2D5186E
:1D1DDC00E4C396F6E40896F918E6F812175B30D50BE4C39582F582E49583F58322E7
:201DF900AE82BE410092004007EE24A592005012BE610092004007EE248592005004C200E0
:101E19008002D200A200E433FE7F008E828F8322EB
:041E2900758200229C
:00000001FF
