:03000000020006F5
:03005F0002000399
:03000300020436BE
:200062007500009000001200007500C39000161200007500079000171200007500D090006D
:200082001812000075000590001912000075000A7500DC7500FE75827E1200007500FF754C
:2000A20000C07500007582FF1200007500087500DC75002475004B75005E758200120000FE
:2000C20075000A7500D275000A75827E12000075000290040012000075000A90001A1200FA
:2000E2000075000A90001B1200007500137500887582001200007500137500EC7582010251
:200102000000750800E508702F750001900401120000900403120000AF82BF2202800B75FA
:20012200001090040112000080DB90047175F08012000075080180CD2290048E75F08012A9
:200142000000750F0075100075110075120075130075140075150075160075170075180048
:20016200751900751A00900426120000900427120000900428120000AE827F00900429C0CD
:2001820007C006120000AD82D006D0077C00ED4207EC42068F048E0553050F8C098D0AAA59
:2001A20009AB0A8A0474602BFD74082AFAE43BFBC3E49A74109B506A9004A375F080C0073E
:2001C200C006C005C004120000D004D005E4C39509FA7410950AFB75000F75010075024005
:2001E2008A008B018C828D83C003C002120000D002D003D006D0077408C39AF500E49BF59E
:20020200011ABAFF011BEA240FFA8A00750100750240906000C007C006120000D006D007E2
:20022200801E75000F7501007502407500087501008C828D83C007C006120000D006D00710
:20024200AD137C00AA147B00EA4CF50BEB4DF50CAB157A00AC167D00EC4AF50DED4BF50ECC
:200262009004C575F080C007C006120000D006D0077A007B00C3EA9404EB64809480504F36
:20028200EA2417F9EA240FF88605A70586057C008D828C83C007C006C003C002120000D0D9
:2002A20002D003D006D007C3EA9403EB64809480501675822EC007C006C003C002120000E4
:2002C200D002D003D006D0070ABA00A90B80A6C007C0061200009004D175F08012000085AC
:2002E2000B82850C831200001200009004DF75F080120000850D82850E831200001200007F
:20030200D006D007E50D2FFFE50E3EFE74082FFFE43EFE9004EB75F080C007C00612000012
:20032200D006D0078F828E83C007C00612000012000075000A9000051200009004FB75F021
:200342008012000090000512000090050475F0801200007500277501049004261200009060
:20036200051775F080120000750029750104900428120000D0068E0590052C75F080C005AE
:20038200120000D0057E008D828E8312000090053375F080120000D0077E008F828E83127C
:2003A200000012000090053A75F0801200009004281200007E008E83120000900429120025
:2003C200007E008E8312000090054D75F08012000075002975010490042812000075004006
:2003E20090040112000090056075F08012000075002775010490042612000090056D75F01F
:2004020080120000900402020000900402120000E58230E20C750001900402120000020162
:200422003B22759850758920758DFDD29CD2AFD2ACD28E227500FE90042812000075000D31
:20044200900429120000120424C2A11200627500FE90040512000090040512000090042835
:0B04620012000090042912000080E34B
:2004710055445020536F636B6574203020706F72742035303030206F70656E0A005544501A
:20049100205061636B65742052656365697665640A000A554450205258204865616465725C
:2004B100204F766572666C6F772044657465637465640A0053656E6465722049503A2000F7
:2004D10053656E64657220506F72743A2000446174612053697A653A2000436F6D70757484
:2004F100656420727872643A20007375626E65743A20007278207265672073697A65207347
:20051100746172743A007278726420706F696E7465722073746172743A2000757070657220
:200531003A006C6F7765723A00646972656374207278726420726561643A200072787264DC
:2005510020706F696E74657220656E643A20007278207265672073697A653A00496E7465CB
:0C0571007272757074207265673A200089
:06003500E478FFF6D8FD9F
:200013007900E94400601B7A0090057D780175A000E493F2A308B8000205A0D9F4DAF27511
:02003300A0FF2C
:20003B007800E84400600A790175A000E4F309D8FC7800E84400600C7900900001E4F0A3C3
:04005B00D8FCD9FAFA
:0D00060075811A12046DE58260030200038B
:04046D007582002272
:00000001FF
