:03000000020006F5
:03005F0002000399
:0300030002039A5B
:20006200AE82AF83EE4F60071EBEFF011F80F522758CFF758AF6D28C308DFDC28CC28D221A
:2000820085829910990280FB22AD82AE83AFF08D828E838FF01203B0FC60188C820DBD00C7
:2000A200010EC007C006C005120082D005D006D00780DC2210980280FBAF998F82C00712F2
:2000C2000082D0078F8222AE82AF837D00BD10005017EF30E704D2808002C280D282EE2EEF
:2000E200FEEF33FFC2820D80E422AF827E00BE08005016EF30E704D2808002C280D2828F2A
:2001020005ED2DFFC2820E80E522AE82AF83C2837582F0C007C0061200ECD006D0078E8210
:200122008F831200C98508821200ECD28322AE82AF83C2837D0075820FC007C006C00512BE
:2001420000ECD005D006D0078E828F83C0051200C9D0057F00BF08005012D282A281E43362
:20016200FEED4206C282EE2EFD0F80E9D2838D822285820890000112010C85090890000208
:2001820012010C850A0890000312010C850B0890000402010C750C7A750D2E750E7A750F8E
:2001A2002E75107A75112E75127A751300900001120130E582F50C900002120130E582F566
:2001C2000E900003120130E582F510900004120130E582F5122275147A75152E75167A7531
:2001E200172E75187A75192E751A7A751B0090000F120130E582F514900010120130E582C0
:20020200F516900011120130E582F518900012120130E582F51A22751C7A751D2E751E7A24
:20022200751F2E75207A75212E75227A752300900005120130E582F51C900006120130E570
:2002420082F51E900007120130E582F520900008120130E582F5222275247A75252E7526C0
:200262007A75272E75287A75292E752A7A752B2E752C7A752D2E752E7A752F009000091217
:200282000130E582F52490000A120130E582F52690000B120130E582F52890000C1201300B
:2002A200E582F52A90000D120130E582F52C90000E120130E582F52E22858208900005120B
:2002C200010C85300890000612010C85310890000712010C85320890000802010C858208B4
:2002E20090000912010C85330890000A12010C85340890000B12010C85350890000C1201DF
:200302000C85360890000D12010C85370890000E02010C85820890000F12010C85380890BD
:20032200001012010C85390890001112010C853A0890001202010CE582FF7012853B08904E
:20034200040412010C853C0890040502010CBF0112853B0890050412010C853C089005054E
:2003620002010C2275088090000012010C7508C390001612010C75090A750ADC750BFE75C3
:20038200827E120173020197759850758921758DFDD29CD2AFD2AC229003E812006212032D
:0E03A2008AC2829003E812006212036680FE97
:06003500E478FFF6D8FD9F
:200013007900E94400601B7A009003D0780175A000E493F2A308B8000205A0D9F4DAF275C0
:02003300A0FF2C
:20003B007800E84400600A790175A000E4F309D8FC7800E84400600C7900900001E4F0A3C3
:04005B00D8FCD9FAFA
:0D00060075813C1203CCE58260030200030B
:1C03B00020F71430F6148883A88220F507E6A88375830022E280F7E49322E0225C
:0403CC007582002214
:00000001FF
