:03000000020006F5
:03005F0002000399
:030003000204F301
:200062001209A27E008E831208F90208BC1209A2AF82850882850983C0071209A2AE82D0C7
:20008200077D008F047F00EE4207ED42048F828C831208F90208BC75350090000012097E92
:2000A2007535C390001612097E75350790001712097E7535D090001812097E7535059000A7
:2000C2001912097E75360A7537DC7538FE75827E1209E5755DFF755EC0755F007582FF12CF
:2000E2000B2D7560087561DC75622475634B75645E758200120B5175650A7566D275670A06
:2001020075827E120B8775350290040012097E75350A90001A12097E75350A90001B12097A
:200122007E756813756988758200120BAB7568137569EC758201020BAB750A00E50A702FB3
:2001420075350190040112097E9004031209A2AF82BF2202800B75351090040112097E8069
:20016200DB900F3575F0801208CE750A0180CD22900F5275F0801208CE900F6675F0801258
:2001820008CE751500751600751700751800751900751A00751B00751C009004261209A2A4
:2001A200AF82900427C0071209A2AE82D0077D008F047F00EE4207ED42048F138C149004F7
:2001C200281209A2AD827E00900429C006C0051209A2AB82D005D0067A00EE4203ED4202D0
:2001E2008B05740F5AFE8D228E23AC2274602523FF8C248F2574082522FCE43523FFC3E444
:200202009C74109F400302028B900F7B75F080C006C005C003C0021208CED002D003D005DA
:20022200D006E4C39DFD74109EFE756C15756D00756E408D6A8E6B852482852583C006C0BC
:2002420005C003C002120BD8D002D003D005D0067408C39DFCE49EFF1DBDFF011EED241556
:20026200FD8D6C756D00756E408C6A8F6B906000C007C004C003C002120BD8D002D003D027
:2002820004D0078C0B8F0C802D756C15756D00756E40756A08756B00852482852583C003C5
:2002A200C002120BD8D002D00374082522FCE43523FD8C0B8D0CAC0BAD0C74602DFD8C0DB1
:2002C2008D0EAD197C00AE1A7F00EE4CF50FEF4DF510AD1B7C00E51C4CF511EF4DF512900F
:2002E2000F9D75F080C003C0021208CED002D0037C007D00C3EC9404ED648094805047ECB1
:200302002415F987077E008F828E83C005C004C003C0021208F9D002D003D004D005C3EC5D
:200322009403ED64809480501675822EC005C004C003C0021208B3D002D003D004D0050C7F
:20034200BC00B10D80AE900FA975F080C003C0021208CE850F828510831208F9900FB8754C
:20036200F0801208CE8513828514831208F91208BC900FC375F0801208CE8511248512255F
:20038200852482852583120DA5AC82AD83D002D0038C1D8D1E751F00E513250BFEE5143500
:2003A2000CFFC3E49E74109F506C900FCA75F080C003C0021208CED002D003E4C3950BFE67
:2003C2007410950CFF8E6A8F6B851D6C851E6D851F6E850D82850E83C007C006C003C00299
:2003E200120BD8D002D003D006D007E511C39EF56AE5129FF56BEE251DF56CEF351EF56DD3
:20040200851F6E850D82850E83C003C002120BD8D002D003802085116A85126B851D6C854A
:200422001E6D851F6E850D82850E83C003C002120BD8D002D003E4F520F521AC20AD21C368
:20044200EC9511ED9512502CE520251DFCE521351EFDAF1F8C828D838FF0120F15F582C087
:2004620003C0021208B3D002D0030520E4B520CB052180C7C003C0021208BC900F5275F07C
:20048200801208CED002D00374082524FEE43525FFEE2BFBEF3AFA8A35900428C003C00216
:2004A20012097ED002D0038B3590042912097E75354090040112097E7535FF900402120974
:2004C2007EAC1DAD1EAF1F8C828D838FF0020C5D9004021209A2E58230E203020172227557
:2004E2009850758920758DFDD29CD2AFD2ACD28E229003E81205091204E1C2A11200991254
:07050200013B1204D280FB53
:200F350055445020536F636B6574203020706F72742035303030206F70656E0A002D2D2DAD
:200F55002D2D2D2D2D2D2D2D2D2D2D2D2D2D2D0A00554450205061636B65742052656365CF
:200F7500697665640A000A55445020525820486561646572204F766572666C6F7720446547
:200F95007465637465640A0053656E6465722049503A20000953656E64657220506F727416
:200FB5003A20000952582053697A653A2000444154413A20000A55445020525820444154D0
:150FD50041204F766572666C6F772044657465637465640A0006
:20050900AE82AF83EE4F60071EBEFF011F80F522758CFF758AF6D28C308DFDC28CC28D226E
:20052900AE82AF838E048F05C3EC9410ED9427500302066485262985272A85282B757B10EE
:20054900757C278C828D83C005C004120C34A882D004D005743028852982852A83852BF0E0
:20056900120D4E74012529F52CE4352AF52D852B2E757BE8757C038C828D83C005C0041259
:200589000C34757B0A757C00120EC8A882D004D005743028852C82852D83852EF0120D4E28
:2005A90074022529F52CE4352AF52D852B2E757B64757C008C828D83C005C004120C347557
:2005C9007B0A757C00120EC8A882D004D005743028852C82852D83852EF0120D4E74032501
:2005E90029F52CE4352AF52D852B2E757B0A757C008C828D83C005C004120C34757B0A7512
:200609007C00120EC8A882D004D005743028852C82852D83852EF0120D4E74042529F52C6F
:20062900E4352AF52D852B2E757B0A757C008C828D83120EC8A882743028852C82852D831F
:20064900852EF0120D4E74052529F9E4352AFAAB2B89828A838BF0E4020D4EC3EC94E8EDC2
:200669009403500302075A85262C85272D85282E757BE8757C038C828D83C005C004120C08
:2006890034A882D004D005743028852C82852D83852EF0120D4E7401252CF529E4352DF5E7
:2006A9002A852E2B757B64757C008C828D83C005C004120C34757B0A757C00120EC8A882EE
:2006C900D004D005743028852982852A83852BF0120D4E7402252CF529E4352DF52A852E30
:2006E9002B757B0A757C008C828D83C005C004120C34757B0A757C00120EC8A882D004D041
:2007090005743028852982852A83852BF0120D4E7403252CF529E4352DF52A852E2B757B77
:200729000A757C008C828D83120EC8A882743028852982852A83852BF0120D4E7404252C81
:20074900F9E4352DFAAB2E89828A838BF0E4020D4EC3EC9464ED9400500302081385262C3B
:2007690085272D85282E757B64757C008C828D83C005C004120C34A882D004D005743028DF
:20078900852C82852D83852EF0120D4E7401252CF529E4352DF52A852E2B757B0A757C00C6
:2007A9008C828D83C005C004120C34757B0A757C00120EC8A882D004D00574302885298295
:2007C900852A83852BF0120D4E7402252CF529E4352DF52A852E2B757B0A757C008C828D23
:2007E90083120EC8A882743028852982852A83852BF0120D4E7403252CF9E4352DFAAB2E46
:2008090089828A838BF0E4020D4EC3EC940AED9400407685262C85272D85282E757B0A757D
:200829007C008C828D83C005C004120C34A882D004D005743028852C82852D83852EF0127E
:200849000D4E7401252CF9E4352DFAAB2E757B0A757C008C828D83C003C002C001120EC825
:20086900AC82D001D002D00374302C89828A838BF0120D4E7402252CFBE4352DFCAD2E8B91
:20088900828C838DF0E4020D4EAB26AC27AD2874302E8B828C838DF0120D4E0BBB00010CDC
:2008A9008B828C838DF0E4020D4E85829910990280FB2275990A10990280FB2275990910E6
:2008C900990280FB22AD82AE83AFF08D828E838FF0120F15FC60188C820DBD00010EC007E1
:2008E900C006C0051208B3D005D006D00780DC22AE82AF83752F007530007531007532009F
:2009090075330075340075262F7527007528408E828F8312052990002F75F0400208CE108C
:12092900980280FBAF998F82C0071208B3D0078F8222B0
:20093B00AE82AF837D00BD10005017EF30E704D2A38002C2A3D2A1EE2EFEEF33FFC2A10D05
:20095B0080E422AF827E00BE08005016EF30E704D2A38002C2A3D2A18F05ED2DFFC2A10E24
:20097B0080E522AE82AF83C2A07582F0C007C00612095ED006D0078E828F8312093B853545
:20099B008212095ED2A022AE82AF83C2A07D0075820FC007C006C00512095ED005D006D020
:2009BB00078E828F83C00512093BD0057F00BF08005012D2A18D06EE2EFEA2A2E4334EFD95
:2009DB00C2A10F80E9D2A08D822285823590000112097E85363590000212097E853735907C
:2009FB00000312097E85383590000402097E75397A753A2E753B7A753C2E753D7A753E2E16
:200A1B00753F7A7540009000011209A2E582F5399000021209A2E582F53B9000031209A2BF
:200A3B00E582F53D9000041209A2E582F53F2275417A75422E75437A75442E75457A7546D7
:200A5B002E75477A75480090000F1209A2E582F5419000101209A2E582F5439000111209A9
:200A7B00A2E582F5459000121209A2E582F5472275497A754A2E754B7A754C2E754D7A75F5
:200A9B004E2E754F7A7550009000051209A2E582F5499000061209A2E582F54B9000071222
:200ABB0009A2E582F54D9000081209A2E582F54F2275517A75522E75537A75542E75557AF3
:200ADB0075562E75577A75582E75597A755A2E755B7A755C009000091209A2E582F55190CE
:200AFB00000A1209A2E582F55390000B1209A2E582F55590000C1209A2E582F55790000DB3
:200B1B001209A2E582F55990000E1209A2E582F55B2285823590000512097E855D35900003
:200B3B000612097E855E3590000712097E855F3590000802097E85823590000912097E8586
:200B5B00603590000A12097E85613590000B12097E85623590000C12097E85633590000D58
:200B7B0012097E85643590000E02097E85823590000F12097E85653590001012097E8566C5
:200B9B003590001112097E85673590001202097EE582FF701285683590040412097E856956
:200BBB003590040502097EBF011285683590050412097E85693590050502097E2285826FBF
:200BDB00858370E4F571F572AA71AB72C3EA956AEB956B5043E571256CF9E572356DFAABF1
:200BFB006EA86FAF70AD71AE72ED28F8EE3FFF88828F83C003C002C0011209A2AF82D0019E
:190C1B00D002D00389828A838BF0EF120D4E0571E4B571B4057280B0222F
:200C34007A10E4FBFCE58225E0F582E58333F583EB33FBEC33FCEB957BF5F0EC957C4006EE
:090C5400FCABF0438201DADD2261
:200C5D00AD82AE83ED4E700122E4F57BF57C900001E0F9A3E0FA757D01757E00E94A6025FF
:200C7D008D008E04C3E998EA9C501A897B8A7C740229FBE43AFC8B7D8C7E8B828C83E0F93F
:200C9D00A3E0FA80D7ED24FEFDEE34FFFE74022DFCE43EFF8C828F83E9F0EAA3F0857D827E
:200CBD00857E83EDF0EEA3F08D828E83E0F8A3E0FBE9B50033EAB5032F88828B83A3A3E0DD
:200CDD00FAA3E0FB8C828F83EAF0EBA3F08D828E83E0FAA3E0FB8A828B83E0FAA3E0FB8D90
:200CFD00828E83EAF0EBA3F0E57B457C6042857B82857C83E0FAA3E0FBEAB50533EBB5064E
:200D1D002F8D828E83E0FDA3E0FE857B82857C83EDF0EEA3F07402257BFDE4357CFE8C82F1
:110D3D008F83E0FCA3E0FF8D828E83ECF0EFA3F02295
:06003500E478FFF6D8FD9F
:200013007900E94400601B7A00900FEC780375A004E493F2A308B8000205A0D9F4DAF27592
:02003300A0FF2C
:1B0D4E0020F71130F6138883A88220F509F6A8837583002280FEF280F5F022A4
:200D69009000017403F07400A3F0900FEAE493FE740193FF1EBEFF011FEE2403FEEF340035
:200D8900FF900003EEF0EFA3F0900001E0FEA3E0FF8E828F83A3A3E4F0A3F022AE82AF8314
:200DA900900001E0F5F0A3E045F0700BC007C006120D69D006D007EE4F600E74022EFCE4B0
:200DC9003FFDC3EC9EED9F50049000002274022EF573E43FF574C3E5739404E57494005067
:200DE90006757304757400900001E0FCA3E0FD7A017B00EC4D7003020EC48C828D83E0F8B6
:200E0900A3E0F9880689078C798D7AEEC39579F575EF957AF576C3E5759573E576957450B8
:200E290003020EAD74042573FEE43574FFC3E5759EE5769F404EE5732579FEE574357AFF11
:200E49008E778F78857782857883E8F0E9A3F074022577F8E43578F98C828D83A3A3E0FE55
:200E6900A3E0FF88828983EEF0EFA3F08A828B83E577F0E578A3F08C828D83E577F0E57854
:200E8900A3F080148C828D83A3A3E0FEA3E0FF8A828B83EEF0EFA3F074022CFEE43DFF8E96
:1F0EA900828F832274022CFEE43DFF8E028F038E828F83E0FCA3E0FD020DFC9000002257
:200EC800E57B457C60467A01E57B25E0F57BE57C334012F57CE582957BE583957C40030A5F
:200EE80080E6C3E57C13F57CE57B13F57BC3E582957BF5F0E583957C4005F58385F082C3EA
:0D0F0800E57C13F57CE57B13F57BDAE12237
:20003B007800E84400600A790175A000E4F309D8FC7802E84404600C7905900001E4F0A3B8
:04005B00D8FCD9FAFA
:020FEA00000401
:0D00060075817E120F31E582600302000358
:1C0F150020F71430F6148883A88220F507E6A88375830022E280F7E49322E022EB
:040F310075820022A3
:00000001FF
