:03000000020006F5
:1C005F00752130752200752300753900753A00754200E4F543F544F545020003E8
:0300030002107D6B
:20007B00759850758920758DFDD29CD2AFD2ACD28EC29822901D8975F08012133C901D9EDB
:20009B0075F08012133CE54260117401B542067EB67F1D800A7EBA7F1D80047EBF7F1D7DED
:2000BB00808E828F838DF012133C901DC375F08012133C901DC675F08012133C9000217510
:2000DB00F04012133C901DDD75F08012133C90000F12152F7E008E8312142912133C758279
:2000FB002E12133390001012152F7E008E8312142912133C75822E12133390001112152FB6
:20011B007E008E8312142912133C75822E12133390001212152F7E008E8312142912133CD1
:20013B00901DF575F08012133C90000512152F7E008E8312142912133C75822E1213339085
:20015B00000612152F7E008E8312142912133C75822E12133390000712152F7E008E8312DE
:20017B00142912133C75822E12133390000812152F7E008E8312142912133C901E0E75F0FB
:20019B008012133C90000112152F7E008E8312142912133C75822E12133390000212152FD8
:2001BB007E008E8312142912133C75822E12133390000312152F7E008E8312142912133C40
:2001DB0075822E12133390000412152F7E008E8312142912133C901E2875F08012133C90B2
:2001FB00000912152F1213DC90000A12152F1213DC90000B12152F1213DC90000C12152FAF
:20021B001213DC90000D12152F1213DC90000E12152F1213DC901E4175F08002133CC011E3
:20023B00858111C082C08305810581E5112403F8E4F608F6E51124FDF886027B00E51124E2
:20025B0003F8C3E69A08E664808BF063F08095F0503BE5112403F8E6243AF98703A8110878
:20027B008602088607E5112403F88605088606ED2AFAEE3FFF8A828F83C003121500158137
:20029B00E5112403F806B60002080680A7851181D01122C011858111C082C083C0F07C0088
:2002BB00E51124FDF8C3EC96502BEC2423F98703A81108EC26FAE40836FE0886078A828E82
:2002DB00838FF0121C98FAEBB50202800575820080060C80CB758201851181D01122C01161
:2002FB00E581F5112404F5817410B53902800675820002047AA911097700E904F87600745F
:20031B000229C000F87600D0007F007E05BE10004003020477EE2423FDC000A8058604D010
:20033B00007B008C828B83C007C006C005C001C000121C13E5828583F0D000D001D005D052
:20035B0006D00745F070030204698E04EC142423FBC000A8038603D0007A008B828A83C0A2
:20037B0007C006C005C004C001C000121C13E5828583F0D000D001D004D005D006D00745AF
:20039B00F07003020469EC142423FCC000A8048604A704A8058605D000A6057C007D00C31D
:2003BB00EC9402ED64809480506AC000E5112404F8EFC454F0F6EC29F88602D000BA3000EF
:2003DB00401DEA24C64018C000EA24D0FAC000E5112404F88603D000EA2BFFD000802EEC34
:2003FB0029FBC000A8038603D000BB41004019EB24B9401474C92BFBC000E5112404F886CA
:20041B0002D000EB2AFF800575820080520CBC008E0D808B8E047D00EC24FCF582ED34FF6D
:20043B00F583C007C006C001C0007402C0E0E4C0E0121CF9AC8215811581D000D001D00689
:20045B00D007EC243AC000F8A607D0008005758200800C8E0574022DFE0203287582018545
:20047B001181D01122C011858111058105810581AF827E007D00C3ED9539500DED2423F91E
:20049B008704BC2E010E0D80EDBE0302800675820002057FEF2423F98707BF2E06758200D6
:2004BB0002057F89077E007D407445C0E0741EC0E07480C0E08F828E838DF012180AAD82AF
:2004DB00AE83AFF01581158115818D028E038F04ED4E7005F58202057F7F008A828B838CEA
:2004FB00F0C00712190FAD82AE83D0078D048E03EC4B601BC0078C068B07C374FF9EE49FA3
:20051B00D007400BEF243AF98C05A7050F8012EC4B7009EF243AF876000F80057582008004
:20053B0043C0077445C0E0741EC0E07480C0E090000075F00012180AA81108A68208A68334
:20055B0008A6F0158115811581D007A811088602088603088604A81108E60846600302047F
:20057B00F6758201851181D01122E4C0E0900000121500158174C3C0E090001612150015CE
:20059B00817407C0E0900017121500158174D0C0E090001812150015817405C0E090001935
:2005BB001215001581753A7E753B0A753CC8753DFE7404C0E09000011202391581753AFF19
:2005DB00753BFF753CC0753D007404C0E09000051202391581753A00753B08753CDC753DF8
:2005FB0024753E4B753F5E7406C0E09000091202391581753A7E753B0A753CD2753D0A747C
:20061B0004C0E090000F12023915817402C0E090040012150015817421C0E0900500121541
:20063B00001581740AC0E090001A1215001581740AC0E090001B12150015817413C0E09047
:20065B00040412150015817488C0E090040512150015817417C0E0900504121500158174D3
:20067B0070C0E09005051215001581227401C0E0900401121500158190040312152FAF8251
:20069B00BF2202800E7410C0E0900401121500158180D9901E4775F08002133CC011E5819D
:2006BB00F5112404F581AE82AF83900420C007C00612152F90042112152FC03A90040C12CB
:2006DB0015001581C03B90040D1215001581C03C90040E1215001581C03D90040F121500D9
:2006FB001581C03E9004101215001581C03F900411121500158190042412152FAC827D00D0
:20071B00900425C005C00412152FAB82D004D005D006D0077A00A81108EB4DF6EA4C08F606
:20073B00A81108860208860353030F8A048B0574402DFDE5112403F8A60408A605EE2AFCDD
:20075B00EF3BFDC3E49C74109D40030207F7901E6675F080C007C006C003C00212133CD074
:20077B0002D003E4C39AFA74109BFBC003C002E51124FBF8E6C0E008E6C0E008E6C0E0C040
:20079B0002C003E5112403F8868208868312160CE58124FBF581D002D003D006D007EEC319
:2007BB009AFCEF9BFDC006C007E51124FBF8EA26FAEB0836FB088607C007C006C002C00392
:2007DB00C007C004C00590400012160CE58124FBF581D006D007D007D006802FC007C00619
:2007FB00E51124FBF8E6C0E008E6C0E008E6C0E0C006C007E5112403F8868208868312164C
:20081B000CE58124FBF581D006D007A81108EE26FEEF0836FFFDC007C006C00590042412F1
:20083B0015001581D006D007C00690042512150015817420C0E090040112150015819000F3
:20085B000012152FE582600B901E7575F08012133C801490040212152FE58230E309901E3B
:20087B008675F08012133C851181D01122C011E581F511240FF58190042612152FAF8290C0
:20089B000427C00712152FAE82D0077D008F047F00EE4207ED4204E511240EF8A60708A67A
:2008BB000490042812152FAD827E00900429C006C00512152FAB82D005D0067A00EE420337
:2008DB00ED42028B05740F5AFEA81108A60508A606A81108860474600826FFE5112403F8E0
:2008FB00A60408A607A81108740826FCE40836FFC3E49C74109F40030209B9C003C002907C
:20091B001E9775F080C006C005C003C00212133CD002D003D005D006E4C39DFD74109EFE00
:20093B00C006C005C003C002743AC0E07400C0E07440C0E0C005C006E5112403F886820826
:20095B008683121572E58124FBF581D002D003D005D0067408C39DFCE49EFF1DBDFF011E3E
:20097B00ED243AFB7D007E40C007C004C003C002C003C005C006C004C00790600012157269
:20099B00E58124FBF581D002D003D004D007E5112408F8A60408A607D002D0038043C0034D
:2009BB00C002743AC0E07400C0E07440C0E07408C0E0E4C0E0E5112403F8868208868312C4
:2009DB001572E58124FBF581D002D003A81108740826FEE40836FFE5112408F8A60608A6DF
:2009FB0007C003C002E5112408F8860608860774602FFFAD407C00AA417B00E511240CF826
:200A1B00EA4CF6EB4D08F6E511240CF8E5112403F9E6F708E609F7E5112403F886820886AF
:200A3B0083C007C006C003C002121A70AC82AD83D002D003D006D0078C438D44754500E57B
:200A5B00112408F8E511240EF9E726FC09E70836FDC3E49C74109DD002D0034003020B1F79
:200A7B00C003C002901E9775F080C007C006C003C00212133CD002D003D006D007E51124CD
:200A9B0008F8E4C396FC74100896FDC007C006C005C004C003C002C043C044C045C004C0B8
:200ABB00058E828F83121572E58124FBF581D002D003D004D005D006D007E511240CF8E562
:200ADB0011240AF9E6C39CF708E69D09F7EC2543FCED3544FBAD45C003C002C004C003C08D
:200AFB0005E511240AF8E6C0E008E6C0E08E828F83121572E58124FBF581D002D003D00279
:200B1B00D0038027C003C002C043C044C045E511240CF8E6C0E008E6C0E08E828F83121534
:200B3B0072E58124FBF581D002D003AD43AE44AF458D828E838FF0121C98B52102800302F0
:200B5B000BDB7E007F008E048F05E511240CF8C3EC96ED08965048E5112405F8EE2543F688
:200B7B00EF354408F608A645E5112405F886820886830886F0121C98FDBD6100401AED2407
:200B9B00854015ED24E0FDE5112405F886820886830886F0ED1219F70EBE00AA0F80A7C049
:200BBB0003C002C043C044C045E511240CF886820886831206B7158115811581D002D003DC
:200BDB00E5112403F8740826FEE40836FFEE2BFBEF3AFAFFC003C002C007900428121500BF
:200BFB001581D00290042912150015817440C0E09004011215001581741FC0E09004021277
:200C1B0015001581AD43AE44AF458D828E838FF01216BF851181D0112290040212152FE5C7
:200C3B008230E203020888227401C0E0900501121500158190050312152FAF82BF13028073
:200C5B0017901EA075F08012133C7410C0E0900501121500158180D07402C0E09005011249
:200C7B001500158190050312152FAF82BF1401227410C0E0900501121500158180AA900563
:200C9B000212152FE58220E10B90050212152FE58230E31B7410C0E0900501121500158175
:200CBB00741FC0E09005021215001581020C4322C011E581F5112404F581AE82AF8390054D
:200CDB0020C007C00612152F90052112152F90052412152FAC827D00900525C005C00412DB
:200CFB00152FAB82D004D005D006D0077A00A81108EB4DF6EA4C08F6A8110886020886039B
:200D1B0053030F8A048B0574502DFDE5112403F8A60408A605EE2AFCEF3BFDC3E49C7410D3
:200D3B009D4003020DC0901E6675F080C007C006C003C00212133CD002D003E4C39AFA7429
:200D5B00109BFBC003C002C043C044C045C002C003E5112403F8868208868312160CE581F4
:200D7B0024FBF581D002D003D006D007EEC39AFCEF9BFDC006C007EA2543FAEB3544FBAFBC
:200D9B0045C007C006C002C003C007C004C00590400012160CE58124FBF581D006D007D015
:200DBB0007D0068025C007C006C043C044C045C006C007E5112403F8868208868312160C0E
:200DDB00E58124FBF581D006D007A81108EE26FEEF0836FFFDC007C006C005900524121522
:200DFB00001581D006D007C00690052512150015817420C0E0900501121500158190000041
:200E1B0012152FE582600B901E7575F08012133C801490040212152FE58230E309901E86EF
:200E3B0075F08012133C851181D01122C011E581F5112406F58190052612152FAF82900583
:200E5B0027C00712152FAE82D0077D008F047F00EE4207ED4204900528C007C00412152F95
:200E7B00AE82D0048E057E00900529C006C005C00412152FAB82D004D005D006D0077A00E2
:200E9B00E5112403F8EB4EF6EA4D08F6E5112403F8860208860353030F8A058B0674702EF9
:200EBB00FEA81108A60508A6068F828C83C007C004C003C002121A70AD82AE83D002D00328
:200EDB00D004D0078D438E44754500EF2AFDEC3BFEC3E49D74109E4003020F79901E9775C8
:200EFB00F080C007C004C003C00212133CD002D003E4C39AFA74109BFBC003C002C043C0B4
:200F1B0044C045C002C003A811088682088683121572E58124FBF581D002D003D004D0072A
:200F3B00EFC39AFDEC9BFE1ABAFF011BC007C004EA2543FAEB3544FBAF45C007C004C00262
:200F5B00C003C007C005C006907000121572E58124FBF581D004D007D004D0078023C0070D
:200F7B00C004C043C044C045C007C004A811088682088683121572E58124FBF581D004D0E9
:200F9B0007E5112403F8EF26FDEC0836FEFBC007C006C005C004C003900528121500158192
:200FBB00D004D005D006C004C00590052912150015817440C0E09005011215001581741F59
:200FDB00C0E09005021215001581D004D007AB43AD44AE458B828D838EF0121C98B5215EF0
:200FFB00E5112405F8E4F608F6E5112405F88602088603C3EA9FEB9C503DE5112405F8E65A
:20101B002543FA08E63544FBAE458A828B838EF0121C98FDBD61004011ED2485400CED2441
:20103B00E08A828B838EF01219F7E5112405F806B60002080680B28F828C83120CCBAD43ED
:20105B00AE44AF458D828E838FF01216BF851181D0112290050212152FE58230E203020E76
:20107B0047229003E812130812007BC2A1120585120687E5427005120C34800B7401B54234
:20109B000612106E120C991214B0AF82BF30004005EF24C65026BF61004005EF2485501CF5
:2010BB00BF41004005EF24A55012BF2002800DBF2E028008BF3F028003BF3D1874EB25397D
:2010DB004012E5392423F8A60705398F82C007121333D007BF0823E539601FE5392423F870
:2010FB0076001539758208C007121333758220121333758208121333D007BF0D0280030203
:20111B00108EE539700302108EE5392423F87600901EA275F08012133C90002375F0401212
:20113B00133C901EA975F08012133C7401B5390B743FB5230612008F0212E67403C0E09067
:20115B001EAE75F0801202AEAF821581EF6019758203120480E582600F7404C0E090000FB5
:20117B0012023915810212E67404C0E0901EB275F0801202AEAF821581EF601C7405B539BF
:20119B0017AF27BF300050030212E6EF24C650030212E68F210212E67404C0E0901EB77549
:2011BB00F0801202AEAF821581EF6019758204120480E582600F7404C0E090000512023952
:2011DB0015810212E67404C0E0901EBC75F0801202AEAF821581EF60161202F9E582600F2C
:2011FB007406C0E090000912023915810212E67405C0E0901EC175F0801202AEAF8215814E
:20121B00EF6019758205120480E582600F7404C0E090000112023915810212E67405C0E044
:20123B00901EC775F0801202AEAF821581EF60257408B53920AF28BF540C7443B5290774AC
:20125B0050B52A028028BF550C7444B529077450B52A0280197409B539687442B528637462
:20127B004FB5295E7454B52A597448B52B54AF28BF420B754202120687120C43804DBF545C
:20129B00247401B54202801D7542017410C0E09004011215001581120C43901ECD75F08015
:2012BB0012133C80267455B52821E542601D7542007410C0E09005011215001581120687D4
:2012DB008009901EEC75F08012133C7E007F00C3EE9416EF64809480500DEE2423F876004B
:0D12FB000EBE00EB0F80E875390002108E6A
:201D6A005254553D0049503D005355423D00474154453D004D41433D004D4F44453D000A4C
:201D8A000D57697A4E657420416461707465723A0D0A0A00536574204D4F44453E202E2072
:201DAA002E202E202E204D4F44453D0054435000424F544800554450000D0A00536574206D
:201DCA005254552028302D39293E20202E205254553D000D0A5365742049503E202E202E1D
:201DEA00202E202E202E2049503D000D0A536574205355424E45543E202E202E202E20532A
:201E0A0055423D000D0A53657420474154453E202E202E202E202E20474154453D000D0A55
:201E2A00536574204D41433E20202E202E202E202E204D41433D000A0D0A002E005544507F
:201E4A0020536F636B6574203020706F72742035303030206F70656E0D0A000009206F76DE
:201E6A006572666C6F77200D0A000053656E6420636F6D706C6574650D0A00000D0A5365A9
:201E8A006E64206661696C65640D0A00004F766572666C6F77007A000D0A434F4D3E000DBB
:201EAA000A0D0A0049503D005254553D005355423D004D41433D00474154453D004D4F4476
:201ECA00453D0054435020536F636B6574203120706F72742036303030206F70656E0D0A01
:171EEA000000496E76616C69642C20747279203C3F3E0D0A0D0A0068
:20130800AE82AF83EE4F6012EE24FFFCEF34FFFDEC24FFFEED34FFFF80EA22758CFF758AD1
:20132800F6D28C308DFDC28CC28D2285829910990280FB22AD82AE83AFF08D828E838FF052
:20134800121C98FC600C8C990DBD00010E1099EA80FB22C011858111058105810581AF827E
:20136800E51124FBF88604088605088606EFC4540FFB53030F7A00EB2401F582EA341FF5FE
:2013880083E4938C828D838EF01219F7A8110874012CF6E43D08F608A6068F0353030F7FEC
:2013A80000EB2401F582EF341FF583E493FFA8110886820886830886F0EF1219F774022C63
:2013C800FCE43DFD8C828D838EF0E41219F7851181D01122C011858111058105810581AF06
:2013E80082A911097700E904F87600740229F8760089067D007C40C001C006C005C0048F5A
:201408008212135B158115811581D00189077E007D408F828E838DF012133C851181D0116C
:2014280022C011858111058105810581AE82AF83A81108760D087600087640A8110816B699
:20144800FF0208168E048F03C004C003740AC0E0E4C0E08C828B83121CB4AF8215811581BD
:20146800D003D0048F0574302DFDA8110886820886830886F0ED1219F7740AC0E0E4C0E052
:201488008C828B8312168EAC82AD83158115818C068D07EC4D70A4A8110886820886830893
:1514A80086F0851181D011221098028004859982227582002296
:111F010030313233343536373839414243444546002D
:2014BD00AE82AF837D00BD10005017EF30E704D2A38002C2A3D2A1EE2EFEEF33FFC2A10D78
:2014DD0080E422AF827E00BE08005016EF30E704D2A38002C2A3D2A18F05ED2DFFC2A10E97
:2014FD0080E522C011858111AE82AF83C2A07582F0C007C0061214E0D006D0078E828F8353
:20151D001214BDE51124FDF886821214E0D2A0D01122AE82AF83C2A07D0075820FC007C06B
:20153D0006C0051214E0D005D006D0078E828F83C0051214BDD0057F00BF08005012D2A181
:20155D008D06EE2EFEA2A2E4334EFDC2A10F80E9D2A08D8222C011858111C082C083E581CA
:20157D002404F581E5112405F8E4F608F6E5112405F88602088603E51124FCF8C3EA96EB55
:20159D0008965065E51124F9F8E5112405F9E726FA09E70836FB088607A81108E511240315
:2015BD00F9E6F708E609F7E5112405F88604088606E5112403F8EC26FCEE0836FE8C828E2C
:2015DD0083C007C003C00212152FAE82D002D003D0078A828B838FF0EE1219F7E511240555
:2015FD00F806B6000208068084851181D01122C011858111C082C08305810581E511240356
:20161D00F8E4F608F6E5112403F88602088603E51124FCF8C3EA96EB0896504FE51124F923
:20163D00F8E5112403F9E726FA09E70836FB0886078A828B838FF0121C98FAA81108860614
:20165D00088607E5112403F88603088605EB2EFEED3FFFC0028E828F831215001581E511CE
:11167D002403F806B600020806809A851181D011223D
:20168E00E58124FEF8E6F918E6F87A10E4FBFCE58225E0F582E58333F583EB33FBEC33FC58
:1116AE00EB98F5F0EC994006FCABF0438201DADF22C0
:2016BF00C011858111C082C083C0F0E5812404F581A81108E608467003021804E511240644
:2016DF00F8E4F608F6900001E0FAA3E0FF7D017E00EA4F6037C005C006A8110886050886FD
:2016FF0006C3EA9DEF9ED006D0055020E5112406F8A60208A60774022AFBE43FFC8B058C88
:20171F00068B828C83E0FAA3E0FF80C5A811088603088604EB24FEFBEC34FFFCE5112404CA
:20173F00F874022BF6E43C08F6E5112404F88682088683EAF0EFA3F08D828E83EBF0ECA3C8
:20175F00F08B828C83E0FDA3E0FEEAB50539EFB506358D828E83A3A3E0FEA3E0FFE5112464
:20177F0004F88682088683EEF0EFA3F08B828C83E0FEA3E0FF8E828F83E0FEA3E0FF8B82CA
:20179F008C83EEF0EFA3F0E5112406F8E608466054E5112406F88682088683E0FEA3E0FF2A
:2017BF00EEB50341EFB5043D8B828C83E0FBA3E0FCE5112406F88682088683EBF0ECA3F03D
:2017DF00E5112406F8740226FEE40836FFE5112404F88682088683E0FCA3E0FD8E828F836A
:0B17FF00ECF0EDA3F0851181D0112269
:20180A00C011858111AD82AE83AFF0ED4E60068D0E8E0F8F10E50E450F7008900000F5F02B
:20182A0002190CAD0EAE0FAF108D828E838FF0121C986036AD0EAE0FAF108D828E838FF06F
:20184A00121C98FDC005E51124FBF886820886830886F0121C4BAD82AE831581ED4E600A3E
:20186A00050EE4B50EBD050F80B9AD0EAE0FAF10AA0EAB0FAC108A828B838CF0121C986079
:20188A0061AA0EAB0FAC108A828B838CF0121C98FAC007C006C005C002E51124FBF8868230
:2018AA000886830886F0121C4BAA82AB831581D005D006D007EA4B601FAA0EAB0FAC108A38
:2018CA00828B838CF0E41219F7050EB50E02050F8D828E838FF0802A050EE4B50E92050F57
:2018EA00808EE4F50EF50FF5108D828E838FF0121C9860088D828E838FF0800690000075E9
:05190A00F000D01122E5
:06003500E478FFF6D8FD9F
:20190F00C011E581F5112406F581AD82AE83AFF07B007C008D828E838FF0121C98FABA20AC
:20192F00028003BA09070DBD00EA0E80E7A81108A60508A60608A6078D828E838FF0121C7E
:20194F0098FFBF2D03D38001C39200BF2D028003BF2B09A8110806B600020806A81108E5B2
:20196F00112404F9E6F708E609F708E609F7E5112404F886820886830886F0121C98FABA46
:20198F00300092014048EA24C692014041C020C003C00490000A121A12AA82AF83158115BD
:2019AF0081D020E5112404F886820886830886F0121C98FEA31818A68208A6837D00EE247B
:2019CF00D0FEED34FFFDEE2AFBED3FFC80A0300009C3E49BFEE49CFF80048B068C078E8202
:0819EF008F83851181D01122C4
:200013007900E94400601B7A00901F14780375A004E493F2A308B8000205A0D9F4DAF2755A
:02003300A0FF2C
:1B19F70020F71130F6138883A88220F509F6A8837583002280FEF280F5F022EF
:201A120074FE2581F8E68582F0A4C0E08582F018E6A4F582D0E025F0C58386F0A42583F5AF
:021A320083220D
:201A34009000017403F07400A3F0901F12E493FE740193FF1EBEFF011FEE2403FEEF340025
:201A5400FF900003EEF0EFA3F0900001E0FEA3E0FF8E828F83A3A3E4F0A3F022C011E58167
:201A7400F5112408F581AE82AF83900001E0F5F0A3E045F0700BC007C006121A34D006D02C
:201A940007EE4F600E74022EFCE43FFDC3EC9EED9F5006900000021C0D74022EFDE43FFC16
:201AB400C3ED9404EC940050047D047C00900001E5112405F8E0F6A3E008F67A017B00E51F
:201AD400112405F8E608467003021C0AC002C003E5112405F88682088683A91109E0F7A3FF
:201AF400E009F7A811088602088603E5112405F8E5112403F9E6F708E609F7E5112403F80B
:201B1400EAC396FAEB0896FB8A078B06C3EF9DEE9CD003D0025003021BE7C002C0037404FC
:201B34002DFAE43CFBC3EF9AEE9BD003D0024076E5112403F8ED26FEEC0836FFE5112407AF
:201B5400F8A60608A607E5112407F88682088683A91109E7F009E7A3F0E5112407F874023A
:201B740026FEE40836FFE5112405F88682088683A3A3E0FCA3E0FD8E828F83ECF0EDA3F0BC
:201B94008A828B83E5112407F8E6F008E6A3F0E5112405F88682088683E5112407F9E7F086
:201BB40009E7A3F0801AE5112405F88682088683A3A3E0FEA3E0FF8A828B83EEF0EFA3F0A4
:201BD400E5112405F8740226FEE40836FF8E828F838026E5112405F8740226FEE40836FF85
:1F1BF4008E028F038E828F83E5112405F8E0F6A3E008F6021AD3900000851181D0112287
:201C1300AE82AF83C007C006121D36E5828583F0D006D00745F07012BE300092004007EEE5
:181C330024C692005004C2008002D200A200E433FE7F008E828F832239
:20003B007800E84400600A790175A000E4F309D8FC7802E84404600C7905900001E4F0A3B8
:04005B00D8FCD9FAFA
:201C4B00C011858111AD82AE83AFF08D828E838FF0121C98FC6012E51124FDF8E6B504020F
:201C6B0080070DBD00E50E80E28D828E838FF0121C98FCE51124FDF8E6B504088D828E837C
:0D1C8B008FF0800690000075F000D011224F
:021F12000004C9
:0D000600758145121D66E58260030200034E
:1C1C980020F71430F6148883A88220F507E6A88375830022E280F7E49322E0225B
:201CB400E58124FEF88601188600E84960367A01E825E0F8E933400EF9E58298E5839940A1
:201CD400030A80ECC3E913F9E813F8C3E58298F5F0E583994005F58385F082C3E913F9E8D0
:051CF40013F8DAE722FD
:201CF900C2D5E58330E70DD2D5E4C39582F582E49583F583E58124FEF8E630E70AB2D51832
:1D1D1900E4C396F6E40896F918E6F812169830D50BE4C39582F582E49583F583226E
:201D3600AE82BE410092004007EE24A592005012BE610092004007EE248592005004C200A3
:101D56008002D200A200E433FE7F008E828F8322AF
:041D66007582002260
:00000001FF
