:03000000020006F5
:03005F0002000399
:0300030002046D87
:200062001209107E008E8312086702082A120910AF82850882850983C007120910AE82D0A1
:20008200077D008F047F00EE4207ED42048F828C8312086702082A752C009000001208EC52
:2000A200752CC39000161208EC752C079000171208EC752CD09000181208EC752C05900084
:2000C200191208EC752D0A752EDC752FFE75827E1209537554FF7555C07556007582FF122A
:2000E2000A9B7557087558DC755924755A4B755B5E758200120ABF755C0A755DD2755E0A74
:2001020075827E120AF5752C029004001208EC752C0A90001A1208EC752C0A90001B12084F
:20012200EC755F13756088758200120B19755F137560EC758201020B19750A00E50A702F8D
:20014200752C019004011208EC900403120910AF82BF2202800B752C109004011208EC8033
:20016200DB900C5375F08012083C750A0180CD22900C7075F08012083C75110075120075C0
:200182001300751400751500751600751700751800751900751A00751B00751C009004269B
:2001A200120910900427120910900428120910AE827F00900429C007C006120910AD82D022
:2001C20006D0077C00ED4207EC42068F048E0553050F8C0B8D0CAA0BAB0C8A0474602BFDA7
:2001E20074082AFAE43BFBC3E49A74109B506A900C8575F080C007C006C005C00412083CB7
:20020200D004D005E4C3950BFA7410950CFB7563117564007565408A618B628C828D83C040
:2002220003C002120B46D002D003D006D0077408C39AF561E49BF5621ABAFF011BEA24112F
:20024200FA8A63756400756540906000C007C006120B46D006D007801E7563117564007560
:2002620065407561087562008C828D83C007C006120B46D006D007AD157C00AA167B00EA04
:200282004CF50DEB4DF50EAB177A00AC187D00EC4AF50FED4BF510900CA775F080C007C030
:2002A2000612083CD006D0077A007B00C3EA9404EB64809480504FEA2419F9EA2411F886BA
:2002C20005A70586057C008D828C83C007C006C003C002120867D002D003D006D007C3EAB4
:2002E2009403EB64809480501675822EC007C006C003C002120821D002D003D006D0070A4E
:20030200BA00A90B80A6C007C006120833900CB375F08012083C850D82850E831208671226
:200322000833900CC175F08012083C850F8285108312086712082AD006D007E50F2FFFE541
:20034200103EFE74082FFFE43EFE900CCD75F080C007C00612083CD006D0078F828E83C0C5
:2003620007C00612086712082A752C0A9000051208EC900CDD75F08012083C900005120048
:2003820062900CE675F08012083C75082775090490042612006F900CF975F08012083C7596
:2003A200082975090490042812006FD0068E05900D0E75F080C00512083CD0057E008D82D5
:2003C2008E83120867900D1575F08012083CD0077E008F828E8312086712082A900D1C7532
:2003E200F08012083C9004281209107E008E831208679004291209107E008E8312086790B6
:200402000D2F75F08012083C75082975090490042812006F752C409004011208EC900D42A3
:2004220075F08012083C75082775090490042612006F900D4F75F08012083C90040202005F
:2004420062900402120910E58230E20C752C019004021208EC02017222759850758920752D
:150462008DFDD29CD2AFD2ACD28E229003E8120477C2A180FE23
:200C530055445020536F636B6574203020706F72742035303030206F70656E0A0055445030
:200C7300205061636B65742052656365697665640A000A5544502052582048656164657272
:200C9300204F766572666C6F772044657465637465640A0053656E6465722049503A20000D
:200CB30053656E64657220506F72743A2000446174612053697A653A2000436F6D7075749A
:200CD300656420727872643A20007375626E65743A20007278207265672073697A6520735D
:200CF300746172743A007278726420706F696E7465722073746172743A2000757070657237
:200D13003A006C6F7765723A00646972656374207278726420726561643A200072787264F2
:200D330020706F696E74657220656E643A20007278207265672073697A653A00496E7465E1
:0C0D53007272757074207265673A20009F
:20047700AE82AF83EE4F60071EBEFF011F80F522758CFF758AF6D28C308DFDC28CC28D2201
:20049700AE82AF838E048F05C3EC9410ED942750030205D2851D20851E21851F22756A105B
:2004B700756B278C828D83C005C004120BA2A882D004D0057430288520828521838522F032
:2004D700120BCB74012520F523E43521F524852225756AE8756B038C828D83C005C00412C9
:2004F7000BA2756A0A756B00120BE6A882D004D0057430288523828524838525F0120BCBF5
:2005170074022520F523E43521F524852225756A64756B008C828D83C005C004120BA275D4
:200537006A0A756B00120BE6A882D004D0057430288523828524838525F0120BCB7403253A
:2005570020F523E43521F524852225756A0A756B008C828D83C005C004120BA2756A0A75A0
:200577006B00120BE6A882D004D0057430288523828524838525F0120BCB74042520F523AA
:20059700E43521F524852225756A0A756B008C828D83120BE6A882743028852382852483EF
:2005B7008525F0120BCB74052520F9E43521FAAB2289828A838BF0E4020BCBC3EC94E8ED83
:2005D700940350030206C8851D23851E24851F25756AE8756B038C828D83C005C004120B87
:2005F700A2A882D004D0057430288523828524838525F0120BCB74012523F520E43524F5C7
:2006170021852522756A64756B008C828D83C005C004120BA2756A0A756B00120BE6A88257
:20063700D004D0057430288520828521838522F0120BCB74022523F520E43524F52185258F
:2006570022756A0A756B008C828D83C005C004120BA2756A0A756B00120BE6A882D004D098
:20067700057430288520828521838522F0120BCB74032523F520E43524F521852522756AF1
:200697000A756B008C828D83120BE6A8827430288520828521838522F0120BCB74042523B3
:2006B700F9E43524FAAB2589828A838BF0E4020BCBC3EC9464ED94005003020781851D230A
:2006D700851E24851F25756A64756B008C828D83C005C004120BA2A882D004D0057430284B
:2006F7008523828524838525F0120BCB74012523F520E43524F521852522756A0A756B0051
:200717008C828D83C005C004120BA2756A0A756B00120BE6A882D004D005743028852082CA
:200737008521838522F0120BCB74022523F520E43524F521852522756A0A756B008C828DA4
:2007570083120BE6A8827430288520828521838522F0120BCB74032523F9E43524FAAB2578
:2007770089828A838BF0E4020BCBC3EC940AED94004076851D23851E24851F25756A0A75DC
:200797006B008C828D83C005C004120BA2A882D004D0057430288523828524838525F012D0
:2007B7000BCB74012523F9E43524FAAB25756A0A756B008C828D83C003C002C001120BE65F
:2007D700AC82D001D002D00374302C89828A838BF0120BCB74022523FBE43524FCAD258BC4
:2007F700828C838DF0E4020BCBAB1DAC1EAD1F74302E8B828C838DF0120BCB0BBB00010C94
:200817008B828C838DF0E4020BCB85829910990280FB2275990A10990280FB2275990910FD
:20083700990280FB22AD82AE83AFF08D828E838FF0120C33FC60188C820DBD00010EC00758
:20085700C006C005120821D005D006D00780DC22AE82AF83752600752700752800752900E7
:20087700752A00752B00751D26751E00751F408E828F8312049790002675F04002083C1083
:12089700980280FBAF998F82C007120821D0078F8222D5
:2008A900AE82AF837D00BD10005017EF30E704D2A38002C2A3D2A1EE2EFEEF33FFC2A10D98
:2008C90080E422AF827E00BE08005016EF30E704D2A38002C2A3D2A18F05ED2DFFC2A10EB7
:2008E90080E522AE82AF83C2A07582F0C007C0061208CCD006D0078E828F831208A9852C07
:20090900821208CCD2A022AE82AF83C2A07D0075820FC007C006C0051208CCD005D006D0D8
:20092900078E828F83C0051208A9D0057F00BF08005012D2A18D06EE2EFEA2A2E4334EFDBA
:20094900C2A10F80E9D2A08D822285822C9000011208EC852D2C9000021208EC852E2C9061
:2009690000031208EC852F2C9000040208EC75307A75312E75327A75332E75347A75352E16
:2009890075367A753700900001120910E582F530900002120910E582F5329000031209102C
:2009A900E582F534900004120910E582F5362275387A75392E753A7A753B2E753C7A753D44
:2009C9002E753E7A753F0090000F120910E582F538900010120910E582F53A900011120984
:2009E90010E582F53C900012120910E582F53E2275407A75412E75427A75432E75447A75EB
:200A0900452E75467A754700900005120910E582F540900006120910E582F5429000071205
:200A29000910E582F544900008120910E582F5462275487A75492E754A7A754B2E754C7AE8
:200A4900754D2E754E7A754F2E75507A75512E75527A755300900009120910E582F548903A
:200A6900000A120910E582F54A90000B120910E582F54C90000C120910E582F54E90000D16
:200A8900120910E582F55090000E120910E582F5522285822C9000051208EC85542C90007A
:200AA900061208EC85552C9000071208EC85562C9000080208EC85822C9000091208EC8592
:200AC900572C90000A1208EC85582C90000B1208EC85592C90000C1208EC855A2C90000DEC
:200AE9001208EC855B2C90000E0208EC85822C90000F1208EC855C2C9000101208EC855DDA
:200B09002C9000111208EC855E2C9000120208ECE582FF7012855F2C9004041208EC8560D7
:200B29002C9004050208ECBF0112855F2C9005041208EC85602C9005050208EC2285826640
:200B4900858367E4F568F569AA68AB69C3EA9561EB95625043E5682563F9E5693564FAABE6
:200B690065A866AF67AD68AE69ED28F8EE3FFF88828F83C003C002C001120910AF82D001EF
:190B8900D002D00389828A838BF0EF120BCB0568E4B568B4056980B02262
:200BA2007A10E4FBFCE58225E0F582E58333F583EB33FBEC33FCEB956AF5F0EC956B4006A3
:090BC200FCABF0438201DADD22F4
:06003500E478FFF6D8FD9F
:200013007900E94400601B7A00900D5F780175A000E493F2A308B8000205A0D9F4DAF27527
:02003300A0FF2C
:1B0BCB0020F71130F6138883A88220F509F6A8837583002280FEF280F5F02229
:200BE600E56A456B60467A01E56A25E0F56AE56B334012F56BE582956AE583956B40030ACC
:200C060080E6C3E56B13F56BE56A13F56AC3E582956AF5F0E583956B4005F58385F082C334
:0D0C2600E56B13F56BE56A13F56ADAE12260
:20003B007800E84400600A790175A000E4F309D8FC7800E84400600C7900900001E4F0A3C3
:04005B00D8FCD9FAFA
:0D00060075816B120C4FE582600302000350
:1C0C330020F71430F6148883A88220F507E6A88375830022E280F7E49322E022D0
:040C4F007582002288
:00000001FF
