:03000000020006F5
:1C005F00752130752200752300753900753A00754200E4F543F544F545020003E8
:03000300020F2CBD
:20007B00901CDC75F08012128F901CF175F08012128FE54260117401B542067E097F1D8063
:20009B000A7E0D7F1D80047E127F1D7D808E828F838DF012128F901D1675F08012128F902A
:2000BB001D1975F08012128F90002175F04012128F901D3075F08012128F90000F12148292
:2000DB007E008E8312137C12128F75822E1212869000101214827E008E8312137C12128F28
:2000FB0075822E1212869000111214827E008E8312137C12128F75822E1212869000121267
:20011B0014827E008E8312137C12128F901D4875F08012128F9000051214827E008E8312E0
:20013B00137C12128F75822E1212869000061214827E008E8312137C12128F75822E121229
:20015B00869000071214827E008E8312137C12128F75822E1212869000081214827E008EC1
:20017B008312137C12128F901D6175F08012128F9000011214827E008E8312137C12128FCB
:20019B0075822E1212869000021214827E008E8312137C12128F75822E12128690000312E4
:2001BB0014827E008E8312137C12128F75822E1212869000041214827E008E8312137C125E
:2001DB00128F901D7B75F08012128F90000912148212132F90000A12148212132F90000BDD
:2001FB0012148212132F90000C12148212132F90000D12148212132F90000E12148212134C
:20021B002F901D9475F08002128FC011858111C082C08305810581E5112403F8E4F608F665
:20023B00E51124FDF886027B00E5112403F8C3E69A08E664808BF063F08095F0503BE51113
:20025B002403F8E6243AF98703A811088602088607E5112403F88605088606ED2AFAEE3F4D
:20027B00FF8A828F83C0031214531581E5112403F806B60002080680A7851181D01122C092
:20029B0011858111C082C083C0F07C00E51124FDF8C3EC96502BEC2423F98703A81108EC38
:2002BB0026FAE40836FE0886078A828E838FF0121BEBFAEBB50202800575820080060C806E
:2002DB00CB758201851181D01122C011E581F5112404F5817410B539028006758200020454
:2002FB0066A911097700E904F87600740229C000F87600D0007F007E05BE10004003020432
:20031B0063EE2423FDC000A8058604D0007B008C828B83C007C006C005C001C000121B6669
:20033B00E5828583F0D000D001D005D006D00745F070030204558E04EC142423FBC000A8E1
:20035B00038603D0007A008B828A83C007C006C005C004C001C000121B66E5828583F0D039
:20037B0000D001D004D005D006D00745F07003020455EC142423FCC000A8048604A704A8AC
:20039B00058605D000A6057C007D00C3EC9402ED64809480506AC000E5112404F8EFC4547D
:2003BB00F0F6EC29F88602D000BA3000401DEA24C64018C000EA24D0FAC000E5112404F8F6
:2003DB008603D000EA2BFFD000802EEC29FBC000A8038603D000BB41004019EB24B94014D2
:2003FB0074C92BFBC000E5112404F88602D000EB2AFF800575820080520CBC008E0D808B81
:20041B008E047D00EC24FCF582ED34FFF583C007C006C001C0007402C0E0E4C0E0121C4C75
:20043B00AC8215811581D000D001D006D007EC243AC000F8A607D0008005758200800C8EE4
:20045B000574022DFE020314758201851181D01122C011858111058105810581AF827E0087
:20047B007D00C3ED9539500DED2423F98704BC2E010E0D80EDBE0302800675820002056B2C
:20049B00EF2423F98707BF2E0675820002056B89077E007D407498C0E0741DC0E07480C0CC
:2004BB00E08F828E838DF012175DAD82AE83AFF01581158115818D028E038F04ED4E7005F8
:2004DB00F58202056B7F008A828B838CF0C007121862AD82AE83D0078D048E03EC4B601BA5
:2004FB00C0078C068B07C374FF9EE49FD007400BEF243AF98C05A7050F8012EC4B7009EFBA
:20051B00243AF876000F80057582008043C0077498C0E0741DC0E07480C0E090000075F079
:20053B000012175DA81108A68208A68308A6F0158115811581D007A81108860208860308E7
:20055B008604A81108E6084660030204E2758201851181D01122E4C0E09000001214531502
:20057B008174C3C0E090001612145315817407C0E0900017121453158174D0C0E0900018F6
:20059B0012145315817405C0E09000191214531581753A7E753B0A753CC8753DFE7404C018
:2005BB00E09000011202251581753AFF753BFF753CC0753D007404C0E09000051202251565
:2005DB0081753A00753B08753CDC753D24753E4B753F5E7406C0E0900009120225158175AE
:2005FB003A7E753B0A753CD2753D0A7404C0E090000F12022515817402C0E09004001214D9
:20061B005315817421C0E0900500121453158174AAC0E090001A121453158174AAC0E09038
:20063B00001B12145315817413C0E090040412145315817488C0E0900405121453158174EF
:20065B0017C0E090050412145315817470C0E09005051214531581227401C0E09004011215
:20067B0014531581900403121482AF82BF2201227410C0E0900401121453158180DAC011FB
:20069B00E581F5112404F581AE82AF83C2A5900420C007C006121482900421121482C03A2C
:2006BB0090040C1214531581C03B90040D1214531581C03C90040E1214531581C03D900487
:2006DB000F1214531581C03E9004101214531581C03F90041112145315819004241214821D
:2006FB00AC827D00900425C005C004121482AB82D004D005D006D0077A00A81108EB4DF65E
:20071B00EA4C08F6A81108860208860353030F8A048B0574402DFDE5112403F8A60408A6E2
:20073B0005EE2AFCEF3BFDC3E49C74109D506EE4C39AFA74109BFBC007C006C003C002C015
:20075B0043C044C045C002C003E5112403F8868208868312155FE58124FBF581D002D00359
:20077B00D006D007EEC39AFCEF9BFDC006C007EA2543FAEB3544FBAF45C007C006C002C0A8
:20079B0003C007C004C00590400012155FE58124FBF581D006D007D007D0068025C007C014
:2007BB0006C043C044C045C006C007E5112403F8868208868312155FE58124FBF581D006FA
:2007DB00D007A81108EE26FEEF0836FFFDC007C006C0059004241214531581D006D007C0A5
:2007FB000690042512145315817420C0E09004011214531581D2A5851181D01122C011E5F1
:20081B0081F5112408F581900426121482900427121482900428121482AE827F00900429FF
:20083B00C007C006121482AD82D006D0077C00EF4205EE42048D06740F5CFFA81108A606C8
:20085B0008A607A8110886020886038A0674602BFFE5112403F8A60608A60774082AFEE462
:20087B003BFFC3E49E74109F4003020911C005C004A81108E4C396FE74100896FFC007C02F
:20089B0006C005C004743AC0E07400C0E07440C0E0C006C007E5112403F88682088683122B
:2008BB0014C5E58124FBF581D004D005D006D0077408C39EFBE49FFAEE243AFD7E007F4018
:2008DB00C005C004C003C002C005C006C007C003C0029060001214C5E58124FBF581D00270
:2008FB00D003D004D005E5112405F8A60308A602D004D0058047C005C004C003C002743AC5
:20091B00C0E07400C0E07440C0E07408C0E0E4C0E0E5112403F886820886831214C5E58195
:20093B0024FBF581D002D003D004D00574082AFAE43BFBE5112405F8A60208A603C005C00A
:20095B0004E5112405F8860608860774602FFFAB407A00AC417D00E5112407F8EC4AF6ED3D
:20097B004B08F6E5112407F8E5112403F9E6F708E609F7E5112403F88682088683C007C064
:20099B00061219C3AC82AD83D006D0078C438D44754500E5112405F8E5112407F9E726FCA9
:2009BB0009E70836FDC3E49C74109DD004D0055074C005C004E5112405F8E4C396FA7410C5
:2009DB000896FBC005C004C003C002C043C044C045C002C0038E828F831214C5E58124FB32
:2009FB00F581D002D003D004D005E5112407F8E6C39AFF08E69BFEEA2543FAEB3544FBADDE
:200A1B0045C005C004C002C003C005C007C0069060001214C5E58124FBF581D004D005D0C7
:200A3B0004D0058027C005C004C043C044C045E5112407F8E6C0E008E6C0E08E828F831225
:200A5B0014C5E58124FBF581D004D005E5112403F8740826FEE40836FFEE2DFDEF3CFCFFEA
:200A7B00C005C004C0079004281214531581D00490042912145315817440C0E090040112A5
:200A9B0014531581AD43AE44AF458D828E838FF0121BEBB521537E007F008E048F05E5116F
:200ABB002407F8C3EC96ED08965031EE2543FBEF3544FCAD458B828C838DF0121BEBFABA9B
:200ADB0061004011EA2485400CEA24E08B828C838DF012194A0EBE00C10F80BEE511240773
:200AFB00F88682088683120699AD43AE44AF458D828E838FF0121612851181D011229004BC
:200B1B0002121482E58230E20BC2A4D2A6120818C2A6D2A4227401C0E09005011214531543
:200B3B0081900503121482AF82BF13028017901D9A75F08012128F7410C0E090050112147E
:200B5B0053158180D07402C0E09005011214531581900503121482AF82BF1401227410C0DB
:200B7B00E0900501121453158180AA900502121482E58220E10B900502121482E58230E340
:200B9B001B7410C0E09005011214531581741FC0E09005021214531581020B3022C011E568
:200BBB0081F5112404F581AE82AF83C2A5900520C007C0061214829005211214829005242B
:200BDB00121482AC827D00900525C005C004121482AB82D004D005D006D0077A00A81108FE
:200BFB00EB4DF6EA4C08F6A81108860208860353030F8A048B0574502DFDE5112403F8A672
:200C1B000408A605EE2AFCEF3BFDC3E49C74109D506EE4C39AFA74109BFBC007C006C00300
:200C3B00C002C043C044C045C002C003E5112403F8868208868312155FE58124FBF581D0C7
:200C5B0002D003D006D007EEC39AFCEF9BFDC006C007EA2543FAEB3544FBAF45C007C00670
:200C7B00C002C003C007C004C00590400012155FE58124FBF581D006D007D007D006802534
:200C9B00C007C006C043C044C045C006C007E5112403F8868208868312155FE58124FBF5E5
:200CBB0081D006D007A81108EE26FEEF0836FFFDC007C006C0059005241214531581D006FF
:200CDB00D007C00690052512145315817420C0E09005011214531581D2A5851181D0112229
:200CFB00C011E581F5112406F581900526121482AF82900527C007121482AE82D0077D00B9
:200D1B008F047F00EE4207ED4204900528C007C004121482AE82D0048E057E00900529C0B9
:200D3B0006C005C004121482AB82D004D005D006D0077A00E5112403F8EB4EF6EA4D08F6EB
:200D5B00E5112403F8860208860353030F8A058B0674702EFEA81108A60508A6068F828CF8
:200D7B0083C007C004C003C0021219C3AD82AE83D002D003D004D0078D438E44754500EFDC
:200D9B002AFDEC3BFEC3E49D74109E506CE4C39AFA74109BFBC007C004C003C002C043C0A2
:200DBB0044C045C002C003A8110886820886831214C5E58124FBF581D002D003D004D0073A
:200DDB00EFC39AFDEC9BFEC007C004EA2543FAEB3544FBAF45C007C004C002C003C007C069
:200DFB0005C0069070001214C5E58124FBF581D004D007D004D0078023C007C004C043C0E0
:200E1B0044C045C007C004A8110886820886831214C5E58124FBF581D004D007E51124035B
:200E3B00F8EF26FDEC0836FEFBC007C006C005C004C0039005281214531581D004D005D04C
:200E5B0006C004C00590052912145315817440C0E09005011214531581D004D007AB43ADDC
:200E7B0044AE458B828D838EF0121BEBB52160E5112405F8E4F608F6E5112405F8860208A1
:200E9B008603C3EA9FEB9C503DE5112405F8E62543FA08E63544FBAE458A828B838EF012F0
:200EBB001BEBFDBD61004011ED2485400CED24E08A828B838EF012194AE5112405F806B6F2
:200EDB000002080680B28F828C83120BB8C2A6AD43AE44AF458D828E838FF0121612851113
:200EFB0081D01122900502121482E58230E20BC2A4D2A6120CFBC2A6D2A42275985075893E
:200F1B0020758DFDD29CC2A8C288D2AFD28EC298229003E812125B120F16C2A112057112EA
:200F3B000673C2A6E542701D120B19741FC0E0900402121453158174FFC0E0900015121415
:200F5B0053158180527401B54220120EFF120B86741FC0E0900502121453158174FFC0E081
:200F7B009000151214531581802D120B19120EFF120B86741FC0E0900502121453158174B0
:200F9B001FC0E0900402121453158174FFC0E09000151214531581121403AF82BF30004082
:200FBB0005EF24C65026BF61004005EF2485501CBF41004005EF24A55012BF2002800DBFCD
:200FDB002E028008BF3F028003BF3D1874EB25394012E5392423F8A60705398F82C0071266
:200FFB001286D007BF0823E539601FE5392423F876001539758208C0071212867582201226
:20101B001286758208121286D007BF0D028003020F3FE5397003020F3FE5392423F8760048
:20103B00901D9C75F08012128F90002375F04012128F901DA375F08012128F7401B5390B53
:20105B00743FB5230612007B0212397403C0E0901DA875F08012029AAF821581EF60197567
:20107B00820312046CE582600F7404C0E090000F12022515810212397404C0E0901DAC75BF
:20109B00F08012029AAF821581EF601C7405B53917AF27BF30005003021239EF24C65003D6
:2010BB000212398F210212397404C0E0901DB175F08012029AAF821581EF60197582041286
:2010DB00046CE582600F7404C0E090000512022515810212397404C0E0901DB675F0801274
:2010FB00029AAF821581EF60161202E5E582600F7406C0E0900009120225158102123974FB
:20111B0005C0E0901DBB75F08012029AAF821581EF601975820512046CE582600F7404C059
:20113B00E090000112022515810212397405C0E0901DC175F08012029AAF821581EF6025B2
:20115B007408B53920AF28BF540C7443B529077450B52A028041BF550C7444B52907745071
:20117B00B52A0280327409B5390280030212307442B528028003021230744FB5290280030B
:20119B000212307454B52A0280030212307448B52B028003021230AF28BF422C75420274EA
:2011BB0010C0E090040112145315817410C0E09005011214531581120673120B30901DC7AB
:2011DB0075F08012128F8056BF54247401B54202801D7542017410C0E09004011214531545
:2011FB0081120B30901DE175F08012128F802F7455B5282AE54260267542007410C0E09049
:20121B0005011214531581120673901DF275F08012128F8009901E0375F08012128F7E008C
:20123B007F00C3EE9416EF64809480500DEE2423F876000EBE00EB0F80E8753900020F3FA6
:201CBD005254553D0049503D005355423D00474154453D004D41433D004D4F44453D000AFA
:201CDD000D57697A4E657420416461707465723A0D0A0A00536574204D4F44453E202E2020
:201CFD002E202E202E204D4F44453D0054435000424F544800554450000D0A00536574201B
:201D1D005254552028302D39293E20202E205254553D000D0A5365742049503E202E202ECA
:201D3D00202E202E202E2049503D000D0A536574205355424E45543E202E202E202E2053D7
:201D5D0055423D000D0A53657420474154453E202E202E202E202E20474154453D000D0A03
:201D7D00536574204D41433E20202E202E202E202E204D41433D000A0D0A002E007A000D8F
:201D9D000A434F4D3E000D0A0D0A0049503D005254553D005355423D004D41433D00474106
:201DBD0054453D004D4F44453D005544502F5443503A353030302F36303030204F50454E89
:201DDD000D0A00005443503A36303030204F50454E0D0A00005544503A35303030204F50D8
:1B1DFD00454E0D0A0000496E76616C69642C20747279203C3F3E0D0A0D0A00A8
:20125B00AE82AF83EE4F6012EE24FFFCEF34FFFDEC24FFFEED34FFFF80EA22758CFF758A7F
:20127B00F6D28C308DFDC28CC28D2285829910990280FB22AD82AE83AFF08D828E838FF000
:20129B00121BEBFC600C8C990DBD00010E1099EA80FB22C011858111058105810581AF82DA
:2012BB00E51124FBF88604088605088606EFC4540FFB53030F7A00EB2418F582EA341EF596
:2012DB0083E4938C828D838EF012194AA8110874012CF6E43D08F608A6068F0353030F7F47
:2012FB0000EB2418F582EF341EF583E493FFA8110886820886830886F0EF12194A74022CA8
:20131B00FCE43DFD8C828D838EF0E412194A851181D01122C011858111058105810581AF60
:20133B0082A911097700E904F87600740229F8760089067D007C40C001C006C005C0048F07
:20135B00821212AE158115811581D00189077E007D408F828E838DF012128F851181D01176
:20137B0022C011858111058105810581AE82AF83A81108760D087600087640A8110816B647
:20139B00FF0208168E048F03C004C003740AC0E0E4C0E08C828B83121C07AF821581158118
:2013BB00D003D0048F0574302DFDA8110886820886830886F0ED12194A740AC0E0E4C0E0AD
:2013DB008C828B831215E1AC82AD83158115818C068D07EC4D70A4A81108868208868308EF
:1513FB0086F0851181D011221098028004859982227582002244
:111E1800303132333435363738394142434445460017
:20141000AE82AF837D00BD10005017EF30E704D2A38002C2A3D2A1EE2EFEEF33FFC2A10D25
:2014300080E422AF827E00BE08005016EF30E704D2A38002C2A3D2A18F05ED2DFFC2A10E44
:2014500080E522C011858111AE82AF83C2A07582F0C007C006121433D006D0078E828F83AD
:20147000121410E51124FDF88682121433D2A0D01122AE82AF83C2A07D0075820FC007C073
:2014900006C005121433D005D006D0078E828F83C005121410D0057F00BF08005012D2A189
:2014B0008D06EE2EFEA2A2E4334EFDC2A10F80E9D2A08D8222C011858111C082C083E58178
:2014D0002404F581E5112405F8E4F608F6E5112405F88602088603E51124FCF8C3EA96EB03
:2014F00008965065E51124F9F8E5112405F9E726FA09E70836FB088607A81108E5112403C3
:20151000F9E6F708E609F7E5112405F88604088606E5112403F8EC26FCEE0836FE8C828ED9
:2015300083C007C003C002121482AE82D002D003D0078A828B838FF0EE12194AE51124055D
:20155000F806B6000208068084851181D01122C011858111C082C08305810581E511240303
:20157000F8E4F608F6E5112403F88602088603E51124FCF8C3EA96EB0896504FE51124F9D1
:20159000F8E5112403F9E726FA09E70836FB0886078A828B838FF0121BEBFAA81108860670
:2015B000088607E5112403F88603088605EB2EFEED3FFFC0028E828F831214531581E5112A
:1115D0002403F806B600020806809A851181D01122EB
:2015E100E58124FEF8E6F918E6F87A10E4FBFCE58225E0F582E58333F583EB33FBEC33FC06
:11160100EB98F5F0EC994006FCABF0438201DADF226D
:20161200C011858111C082C083C0F0E5812404F581A81108E608467003021757E51124069F
:20163200F8E4F608F6900001E0FAA3E0FF7D017E00EA4F6037C005C006A8110886050886AA
:2016520006C3EA9DEF9ED006D0055020E5112406F8A60208A60774022AFBE43FFC8B058C35
:20167200068B828C83E0FAA3E0FF80C5A811088603088604EB24FEFBEC34FFFCE511240478
:20169200F874022BF6E43C08F6E5112404F88682088683EAF0EFA3F08D828E83EBF0ECA376
:2016B200F08B828C83E0FDA3E0FEEAB50539EFB506358D828E83A3A3E0FEA3E0FFE5112412
:2016D20004F88682088683EEF0EFA3F08B828C83E0FEA3E0FF8E828F83E0FEA3E0FF8B8278
:2016F2008C83EEF0EFA3F0E5112406F8E608466054E5112406F88682088683E0FEA3E0FFD8
:20171200EEB50341EFB5043D8B828C83E0FBA3E0FCE5112406F88682088683EBF0ECA3F0EA
:20173200E5112406F8740226FEE40836FFE5112404F88682088683E0FCA3E0FD8E828F8317
:0B175200ECF0EDA3F0851181D0112216
:20175D00C011858111AD82AE83AFF0ED4E60068D0E8E0F8F10E50E450F7008900000F5F0D9
:20177D0002185FAD0EAE0FAF108D828E838FF0121BEB6036AD0EAE0FAF108D828E838FF079
:20179D00121BEBFDC005E51124FBF886820886830886F0121B9EAD82AE831581ED4E600A48
:2017BD00050EE4B50EBD050F80B9AD0EAE0FAF10AA0EAB0FAC108A828B838CF0121BEB60D5
:2017DD0061AA0EAB0FAC108A828B838CF0121BEBFAC007C006C005C002E51124FBF886828C
:2017FD000886830886F0121B9EAA82AB831581D005D006D007EA4B601FAA0EAB0FAC108A94
:20181D00828B838CF0E412194A050EB50E02050F8D828E838FF0802A050EE4B50E92050FB1
:20183D00808EE4F50EF50FF5108D828E838FF0121BEB60088D828E838FF080069000007544
:05185D00F000D0112293
:06003500E478FFF6D8FD9F
:20186200C011E581F5112406F581AD82AE83AFF07B007C008D828E838FF0121BEBFABA2008
:20188200028003BA09070DBD00EA0E80E7A81108A60508A60608A6078D828E838FF0121B2D
:2018A200EBFFBF2D03D38001C39200BF2D028003BF2B09A8110806B600020806A81108E50D
:2018C200112404F9E6F708E609F708E609F7E5112404F886820886830886F0121BEBFABAA2
:2018E200300092014048EA24C692014041C020C003C00490000A121965AA82AF8315811519
:2019020081D020E5112404F886820886830886F0121BEBFEA31818A68208A6837D00EE24D6
:20192200D0FEED34FFFDEE2AFBED3FFC80A0300009C3E49BFEE49CFF80048B068C078E82AF
:081942008F83851181D0112271
:200013007900E94400601B7A00901E2B780375A004E493F2A308B8000205A0D9F4DAF27544
:02003300A0FF2C
:1B194A0020F71130F6138883A88220F509F6A8837583002280FEF280F5F0229C
:2019650074FE2581F8E68582F0A4C0E08582F018E6A4F582D0E025F0C58386F0A42583F55D
:021985008322BB
:201987009000017403F07400A3F0901E29E493FE740193FF1EBEFF011FEE2403FEEF3400BD
:2019A700FF900003EEF0EFA3F0900001E0FEA3E0FF8E828F83A3A3E4F0A3F022C011E58115
:2019C700F5112408F581AE82AF83900001E0F5F0A3E045F0700BC007C006121987D006D088
:2019E70007EE4F600E74022EFCE43FFDC3EC9EED9F5006900000021B6074022EFDE43FFC72
:201A0700C3ED9404EC940050047D047C00900001E5112405F8E0F6A3E008F67A017B00E5CC
:201A2700112405F8E608467003021B5DC002C003E5112405F88682088683A91109E0F7A35A
:201A4700E009F7A811088602088603E5112405F8E5112403F9E6F708E609F7E5112403F8B8
:201A6700EAC396FAEB0896FB8A078B06C3EF9DEE9CD003D0025003021B3AC002C003740457
:201A87002DFAE43CFBC3EF9AEE9BD003D0024076E5112403F8ED26FEEC0836FFE51124075D
:201AA700F8A60608A607E5112407F88682088683A91109E7F009E7A3F0E5112407F87402E8
:201AC70026FEE40836FFE5112405F88682088683A3A3E0FCA3E0FD8E828F83ECF0EDA3F06A
:201AE7008A828B83E5112407F8E6F008E6A3F0E5112405F88682088683E5112407F9E7F034
:201B070009E7A3F0801AE5112405F88682088683A3A3E0FEA3E0FF8A828B83EEF0EFA3F051
:201B2700E5112405F8740226FEE40836FF8E828F838026E5112405F8740226FEE40836FF32
:1F1B47008E028F038E828F83E5112405F8E0F6A3E008F6021A26900000851181D01122E1
:201B6600AE82AF83C007C006121C89E5828583F0D006D00745F07012BE300092004007EE41
:181B860024C692005004C2008002D200A200E433FE7F008E828F8322E7
:20003B007800E84400600A790175A000E4F309D8FC7802E84404600C7905900001E4F0A3B8
:04005B00D8FCD9FAFA
:201B9E00C011858111AD82AE83AFF08D828E838FF0121BEBFC6012E51124FDF8E6B504026B
:201BBE0080070DBD00E50E80E28D828E838FF0121BEBFCE51124FDF8E6B504088D828E83D8
:0D1BDE008FF0800690000075F000D01122FD
:021E29000004B3
:0D000600758145121CB9E5826003020003FC
:1C1BEB0020F71430F6148883A88220F507E6A88375830022E280F7E49322E02209
:201C0700E58124FEF88601188600E84960367A01E825E0F8E933400EF9E58298E58399404E
:201C2700030A80ECC3E913F9E813F8C3E58298F5F0E583994005F58385F082C3E913F9E87D
:051C470013F8DAE722AA
:201C4C00C2D5E58330E70DD2D5E4C39582F582E49583F583E58124FEF8E630E70AB2D518DF
:1D1C6C00E4C396F6E40896F918E6F81215EB30D50BE4C39582F582E49583F58322CA
:201C8900AE82BE410092004007EE24A592005012BE610092004007EE248592005004C20051
:101CA9008002D200A200E433FE7F008E828F83225D
:041CB900758200220E
:00000001FF
