:03000000020006F5
:03005F0002000399
:030003000205A54E
:20006200AE82AF83EE4F60071EBEFF011F80F522758CFF758AF6D28C308DFDC28CC28D221A
:2000820085829910990280FB22AD82AE83AFF08D828E838FF012062BFC60188C820DBD0049
:2000A200010EC007C006C005120082D005D006D00780DC2210980280FBAF998F82C00712F2
:2000C2000082D0078F8222AE82AF837D00BD10005017EF30E704D2A38002C2A3D2A1EE2E8A
:2000E200FEEF33FFC2A10D80E422AF827E00BE08005016EF30E704D2A38002C2A3D2A18FA6
:2001020005ED2DFFC2A10E80E522AE82AF83C2A07582F0C007C0061200ECD006D0078E82D4
:200122008F831200C98508821200EC120072D2A022AE82AF83C2A07D0075820FC007C006D7
:20014200C0051200ECD005D006D0078E828F83C0051200C9D0057F00BF08005012D2A18D19
:2001620006EE2EFEA2A2E4334EFDC2A10F80E990064B75F080C00512008BD0058D82C0050B
:2001820012008275820A120082D005D2A08D822285820890000112010C85090890000212C3
:2001A200010C850A0890000312010C850B0890000402010C750C7A750D2E750E7A750F2E52
:2001C20075107A75112E75127A751300900001120133E582F50C900002120133E582F50E60
:2001E200900003120133E582F510900004120133E582F5122275147A75152E75167A751702
:200202002E75187A75192E751A7A751B0090000F120133E582F514900010120133E582F5BB
:2002220016900011120133E582F518900012120133E582F51A22751C7A751D2E751E7A757E
:200242001F2E75207A75212E75227A752300900005120133E582F51C900006120133E5823D
:20026200F51E900007120133E582F520900008120133E582F5222275247A75252E75267AA2
:2002820075272E75287A75292E752A7A752B2E752C7A752D2E752E7A752F00900009120170
:2002A20033E582F52490000A120133E582F52690000B120133E582F52890000C120133E5FB
:2002C20082F52A90000D120133E582F52C90000E120133E582F52E228582089000051201C9
:2002E2000C85300890000612010C85310890000712010C85320890000802010C8582089005
:20030200000912010C85330890000A12010C85340890000B12010C85350890000C12010C42
:2003220085360890000D12010C85370890000E02010C85820890000F12010C8538089000A9
:200342001012010C85390890001112010C853A0890001202010CE582FF7012853B0890042A
:200362000412010C853C0890040502010CBF0112853B0890050412010C853C089005050230
:20038200010C2275080090000012010C75080190001612010C75090A750ADC750BFE758265
:2003A2007E1201927530FF7531C07532007582FF1202DA7533087534DC75352475364B7515
:2003C200375E7582001202FE75380A7539D2753A0A75827E12033475080290040012010C9D
:2003E20075080190050012010C75080A90001A12010C75080A90001B12010C753B13753CB4
:2004020088758200120358753B13753CEC758201020358753D00E53D7026750801900401BC
:2004220012010C900403120133AF82BF2202800B75081090040112010C80DB753D0180D67A
:2004420022E4F541F542F543900426120133900427120133900428120133AB827C009004AF
:2004620029C004C003120133AA82D003D0047F00EC4202EB420774FF2AFA740F3FFF8A3EAE
:2004820074602FF53F7540008A038F0674042EFEC3E49B74109E5051E4C39AFA74109FFF46
:2004A200AC3EAD3FAE40E4F548F549F54AF54B754C048C828D838EF0C007C0021205BBD00C
:2004C20002D0078A418F42E4F543C39AFA74049FFF85414885424985434A8A4B8F4C90604C
:2004E2000075F0001205BB801BAC3EAD3FAE40E4F548F549F54AF54B754C048C828D838E15
:20050200F01205BB7E007F00C3EE9404EF64809480501FEE2444F9EE2541FBEF3542FCADCE
:20052200438B828C838DF012062BF70EBE00D90F80D674042541FDE43542FEAF438D828ED6
:20054200838FF012062B74052541FDE43542FEAF438D828E838FF012062B74062541FDE48A
:200562003542FEAF438D828E838FF012062B74072541FDE43542FEAF438D828E838FF00266
:20058200062B900402120133E58230E20302044322759850758920758DFDD29CD2AFD2AC7E
:1905A200D28E22120593C2A112038512041590065475F08012008B80F50B
:16064B005374617475733A200048656C6C6F20776F726C640A0075
:06003500E478FFF6D8FD9F
:2005BB00AD82AE83AFF08D4D8E4E8F4F854850854951854A52A84BA94C8803890418B8FF61
:2005DB000119EB4C60258550828551838552F012062BFCA38582508583518D828E838FF082
:1505FB00EC120610A3AD82AE8380CE854D82854E83854FF022F6
:200013007900E94400601B7A00900661780175A000E493F2A308B8000205A0D9F4DAF2752C
:02003300A0FF2C
:1B06100020F71130F6138883A88220F509F6A8837583002280FEF280F5F022E9
:20003B007800E84400600A790175A000E4F309D8FC7800E84400600C7900900001E4F0A3C3
:04005B00D8FCD9FAFA
:0D000600758152120647E582600302000377
:1C062B0020F71430F6148883A88220F507E6A88375830022E280F7E49322E022DE
:040647007582002296
:00000001FF
